:020000040000fa
:08000000c01e04000000000016
:020000040000fa
:10000800041e0000081e00000c1e0000101e000048
:10001800141e0000bc1e0000bc1e0000bc1e000018
:10002800181e00001c1e0000201e0000241e0000d8
:10003800bc1e0000281e00002c1e0000301e000000
:10004800341e0000381e00003c1e0000401e000048
:10005800441e0000481e0000bc1e0000bc1e00001c
:100068004c1e0000501e0000541e0000581e0000c8
:100078005c1e0000bc1e0000bc1e0000bc1e000070
:10008800bc1e0000601e0000641e0000681e000008
:100098006c1e0000701e0000741e0000781e000018
:1000a8007c1e0000801e0000bc1e0000bc1e00005c
:1000b800bc1e0000841e0000881e00008c1e00006c
:1000c800bc1e0000901e0000bc1e0000bc1e0000ec
:1000d800bc1e0000941e0000bc1e0000bc1e0000d8
:1000e800bc1e0000981e00009c1e0000bc1e0000e4
:1000f800bc1e0000bc1e0000bc1e0000bc1e000090
:10010800bc1e0000bc1e0000bc1e0000bc1e00007f
:10011800bc1e0000bc1e0000a01e0000bc1e00008b
:10012800bc1e0000a41e0000a81e0000ac1e00009b
:10013800bc1e0000bc1e0000bc1e0000bc1e00004f
:10014800b01e0000bc1e0000bc1e0000bc1e00004b
:10015800bc1e0000b41e0000bc1e0000bc1e000037
:10016800bc1e0000bc1e0000bc1e0000bc1e00001f
:10017800bc1e0000bc1e0000b81e0000bc1e000013
:10018800bc1e0000bc1e0000bc1e0000bc1e0000ff
:10019800bc1e0000bc1e0000bc1e0000bc1e0000ef
:1001a800bc1e0000bc1e0000bc1e0000bc1e0000df
:1001b800bc1e0000bc1e0000bc1e0000bc1e0000cf
:1001c800bc1e0000bc1e0000bc1e0000bc1e0000bf
:1001d800bc1e0000bc1e0000bc1e0000bc1e0000af
:1001e800bc1e0000bc1e0000bc1e0000bc1e00009f
:0801f800bc1e0000bc1e00004b
:020000040000fa
:04020800882000004a
:020000040000fa
:04020c008820000046
:020000040000fa
:040210008820000042
:020000040000fa
:04021400882000003e
:020000040000fa
:04021800882000003a
:020000040000fa
:04021c008820000036
:020000040000fa
:040220008820000032
:020000040000fa
:04022400882000002e
:020000040000fa
:04022800882000002a
:020000040000fa
:04022c008820000026
:020000040000fa
:040230008820000022
:020000040000fa
:04023400882000001e
:020000040000fa
:04023800882000001a
:020000040000fa
:04023c008820000016
:020000040000fa
:040240008820000012
:020000040000fa
:04024400882000000e
:020000040000fa
:04024800882000000a
:020000040000fa
:04024c008820000006
:020000040000fa
:040250008820000002
:020000040000fa
:0402540088200000fe
:020000040000fa
:0402580088200000fa
:020000040000fa
:04025c0088200000f6
:020000040000fa
:0402600088200000f2
:020000040000fa
:0402640088200000ee
:020000040000fa
:0402680088200000ea
:020000040000fa
:04026c0088200000e6
:020000040000fa
:0402700088200000e2
:020000040000fa
:0402740088200000de
:020000040000fa
:0402780088200000da
:020000040000fa
:04027c0088200000d6
:020000040000fa
:0402800088200000d2
:020000040000fa
:0402840088200000ce
:020000040000fa
:0402880088200000ca
:020000040000fa
:04028c0088200000c6
:020000040000fa
:0402900088200000c2
:020000040000fa
:0402940088200000be
:020000040000fa
:0402980088200000ba
:020000040000fa
:04029c0088200000b6
:020000040000fa
:0402a00088200000b2
:020000040000fa
:0402a40088200000ae
:020000040000fa
:0402a80088200000aa
:020000040000fa
:0402ac0088200000a6
:020000040000fa
:0402b00088200000a2
:020000040000fa
:0402b400882000009e
:020000040000fa
:0402b800882000009a
:020000040000fa
:0402bc008820000096
:020000040000fa
:0402c0008820000092
:020000040000fa
:0402c400882000008e
:020000040000fa
:0402c800882000008a
:020000040000fa
:0402cc008820000086
:020000040000fa
:0402d0008820000082
:020000040000fa
:0402d400882000007e
:020000040000fa
:0402d800882000007a
:020000040000fa
:0402dc008820000076
:020000040000fa
:0402e0008820000072
:020000040000fa
:0402e400882000006e
:020000040000fa
:0402e800882000006a
:020000040000fa
:0402ec008820000066
:020000040000fa
:0402f0008820000062
:020000040000fa
:0402f400882000005e
:020000040000fa
:0402f800882000005a
:020000040000fa
:0402fc008820000056
:020000040000fa
:040300008820000051
:020000040000fa
:04030400882000004d
:020000040000fa
:040308008820000049
:020000040000fa
:04030c008820000045
:020000040000fa
:040310008820000041
:020000040000fa
:04031400882000003d
:020000040000fa
:040318008820000039
:020000040000fa
:04031c008820000035
:020000040000fa
:040320008820000031
:020000040000fa
:04032400882000002d
:020000040000fa
:040328008820000029
:020000040000fa
:04032c008820000025
:020000040000fa
:040330008820000021
:020000040000fa
:04033400882000001d
:020000040000fa
:040338008820000019
:020000040000fa
:04033c008820000015
:020000040000fa
:040340008820000011
:020000040000fa
:04034400882000000d
:020000040000fa
:040348008820000009
:020000040000fa
:04034c008820000005
:020000040000fa
:040350008820000001
:020000040000fa
:0403540088200000fd
:020000040000fa
:0403580088200000f9
:020000040000fa
:04035c0088200000f5
:020000040000fa
:0403600088200000f1
:020000040000fa
:0403640088200000ed
:020000040000fa
:0403680088200000e9
:020000040000fa
:04036c0088200000e5
:020000040000fa
:0403700088200000e1
:020000040000fa
:0403740088200000dd
:020000040000fa
:0403780088200000d9
:020000040000fa
:04037c0088200000d5
:020000040000fa
:0403800088200000d1
:020000040000fa
:103c0000c01e040000000000882004000000000026
:103c1000c81f040000000000da1f040000000000bc
:103c2000d01f040000000000e21f0400000000009c
:103c30008c1f040000000000882004000000000029
:103c4000882004000000000088200400000000001c
:103c5000882004000000000088200400000000000c
:103c600088200400000000008820040000000000fc
:103c700088200400000000008820040000000000ec
:103c800088200400000000008820040000000000dc
:103c900088200400000000008820040000000000cc
:103ca0002020040000000000882004000000000024
:103cb0008820040000000000aa1f0400000000008b
:103cc000882004000000000088200400000000009c
:103cd0008820040000000000ea1f0400000000002b
:103ce000882004000000000088200400000000007c
:103cf000882004000000000088200400000000006c
:103d0000882004000000000088200400000000005b
:103d1000882004000000000088200400000000004b
:103d2000882004000000000088200400000000003b
:103d30008820040000000000422004000000000071
:103d4000882004000000000088200400000000001b
:103d5000882004000000000088200400000000000b
:103d600088200400000000008820040000000000fb
:103d7000642004000000000088200400000000000f
:020000040000fa
:103d80000fa220000e7f22000e018800000000001c
:103d9000000020000000e0000200320000012000ce
:103da0002002880014000700db0007000000e0008c
:103db00003003a0080b32900010020000200370010
:103dc0000000200001002000810f7000010032007f
:103dd00014000700000020000000e0000200320094
:103de0000000020000000000ae8802000000000099
:103df0000040da000000fe004440a900a00c2000b2
:103e00000000e0000300320000002000a001880054
:103e10004440a800000006008a1f78008b1f78002d
:103e20000000060091018800800478000000eb008b
:103e30001a003700e284440032a0b4009905ba00a9
:103e4000e284440032a0b4009906ba00e28444003f
:103e500032a0b4000006eb00476fde00fd07b200a1
:103e6000636ce10003003a00ebff07000000eb0089
:103e70000a003700606ce10004003a00005deb00ce
:103e80008b05e900fdff3e00040037006168e1009a
:103e9000010032000086eb000b00070019c7ba00d2
:103ea0001905ba000e04e00003003a000a00e00021
:103eb000e0ff3a0000000600fe07b2009e01880005
:103ec0008a047800f5ff3700395dba008b05e900f8
:103ed0000c003200295dba008b05e90008003200b1
:103ee0000c00e00003003a00e284440032a0b40079
:103ef000f5ff370019ddba008b05e900faff3a003b
:103f00008904e800e184440032a0b4000000060007
:103f100000000000000000003600f800809fbe0096
:103f2000829fbe00849fbe00869fbe000000fa00f4
:103f3000823e07008400a9000080fa004f03be0003
:103f40004f02be004f01be004f00be003600f90018
:103f5000004006003600f800809fbe00829fbe0031
:103f6000849fbe00869fbe000000fa00783e0700d6
:103f70008680a9000080fa004f03be004f02be00f9
:103f80004f01be004f00be003600f90000400600a1
:103f90003600f8008020a9000000eb00933e0700e7
:103fa0003600f800953e07008040a9001000200070
:103fb0008e3e07003600f8008060a9002000200037
:103fc0008a3e07003600f8008080a90030002000fb
:103fd000863e07003600f800809fbe00829fbe002c
:103fe000849fbe00869fbe000000fa00b0438000a0
:103ff0000000e00002003200b04380000000010039
:10400000b09b2000104078008040e800b09b20006a
:1040100001487800a09b200011c0b300014878003f
:104020008780a9000080fa004f03be004f02be0047
:104030004f01be004f00be003600f90000400600f0
:10404000809fbe000000fa00c0438000e10f5000d6
:1040500001003a007828ef00411080000040200065
:10406000008060000000e00002003200100020002c
:10407000d04388008620a9000080fa004f00be00cf
:1040800000400600809fbe000000fa00e043800070
:10409000e10f500001003a007c28ef00c1108000c1
:1040a00000402000008060000000e00002003200bc
:1040b00010002000f04388008a40a9000080fa0028
:1040c0004f00be00004006003600f800809fbe0092
:1040d000829fbe00849fbe00869fbe003400f80011
:1040e00000002000a00188000000fa00ea2207007a
:1040f0000080fa003400f9004f03be004f02be00fa
:104100004f01be004f00be003600f900004006001f
:104110000040da000000fe0000000500839f6800f8
:104120000100e00002003d0060001000e080180087
:104130000300e00002003d0060011100e081190071
:104140003e0007004f00e00002003b00600010004e
:10415000e0801800000006000001be0022000700f9
:104160000470a70003f0a1006509b1001600320039
:104170000d0035006828e10006003500f0ff2f0033
:10418000f1ff27000300e00013003b0001002800be
:104190000000050000004000818048008502e90021
:1041a000fcff3a0008003700f88f420002003c0094
:1041b0008000eb00000005008100d1000080d300ea
:1041c0008502e800fcff3a000300e00002003b002b
:1041d00060001000e0801800000006004f89de003b
:1041e0008201780027013700c70ade00f107b2001c
:1041f000f50fb20008003200e1cf420002003200a9
:104200000170a00024000500810f70000100320041
:104210000408050044000500810f700002003a0008
:10422000140005008502e9000000400081c048003c
:10423000fcff3b000170a000240005006022b800d4
:10424000060220000000d0008180d2000482d2004b
:104250008582d2000000a0000202520083825a0030
:10426000030031000202420083824a000000a100e4
:104270000603e900f3ff3a0000000600038368002c
:104280000700280007036300470ade000480a1003e
:10429000c71ade000580a100f70f20000720e1000b
:1042a000420032000728e10040003200889fbe0033
:1042b0008a9fbe008c1f7800f107b200f307b2009e
:1042c0000400e000640032000170a0000500e0007e
:1042d000680032000370a00085054200eb07b100c2
:1042e0000204b8000302b8008484440060854a00d8
:1042f000020ab800848444000a854a00030ab80010
:1043000004054500040033000804d0008984d2006d
:104310000a85d2008b05e9006158e1003d003500b7
:10432000021020000901610003082000898161005a
:10433000f70720008783640008867300c84cde00fe
:10434000c853dd00878474004855de000300e00098
:104350000600320082037600040032008904e8007f
:1043600060054d000a88a3000c003a00f70f2000fa
:104370000758e10044003d000a70a100c75ddd0060
:104380000a8575008a007300090078004f067800de
:104390004f05be004f04be00000006000a05d10014
:1043a0008984d3008b05e800f0ff3700881f780070
:1043b0000604780090000700070278000001fd0065
:1043c0008101fd008c0007008702780085037200e0
:1043d0000778a300050032000001fd008101fd0007
:1043e0009f0007004f04780000000600850372005c
:1043f0000748a30003003200f0ff2f00f1ff270061
:10440000f8ff37000000200001f8270088807000c6
:10441000f4ff3700880178004848dd008081710092
:104420004848de00c850dd0001007000c850de00c2
:10443000060478000b0178001600070088807000e1
:10444000d2ff37000500e000050032001700200011
:104450003a0007009dff370081037000f9ff3a0022
:10446000860078004f0678004f05be004f04be005e
:104470000000050083037100f9ff320027002000cf
:104480002e00070094ff370001f827008680700097
:10449000f4ff37000100e000260032006101110046
:1044a0007810e10023003c006022b8007010e100a9
:1044b0000400350080027800010078008000eb00e5
:1044c000700151000200e000090034007003110087
:1044d000062add00822ade008603dd008782720064
:1044e0000200de00860bdd00070070008208de009f
:1044f00084817100f4ff27000482620084817100ce
:1045000004002800848262006102600005f0a600b9
:104510000000060004827100070032000000e8007d
:10452000e0804800000006000002be006000b80005
:10453000efff37006000b80000000600889fbe0053
:104540000004eb006138e10016003a000100e000d1
:1045500008003a00c800de004800dd0088002000a6
:104560000100e00003003a00c800de004800dd0062
:10457000680444008184cf00e984540006003400bc
:104580008908dd00f08314008703de008780700057
:104590000900dd0009044400610214004f04be005c
:1045a000000006000300e00008003a00c811de0029
:1045b0004811dd00880020000300e00003003a00fd
:1045c000c811de004811dd00680444008384cf0078
:1045d000e9845400060034008919dd00f0831400da
:1045e0008713de00878171000911dd000904440092
:1045f000e1021400e9ff37002700200001f0a700c6
:1046000017002000470bde00f60fb2000400320056
:104610000643e8000a0032004702b300000006002b
:1046200001037800f607b2000603700002003a00aa
:104630000703b300000006008702b3000000060075
:1046400001037800f607b200060370000200320092
:104650000770a000000006000760a0000000060030
:104660000478a300040032000578a30003003200a0
:104670000168a30001003a000200be000160a00032
:1046800000000600881f7800030478000300e000a3
:1046900007003d0060001000e08018006001190074
:1046a000e081190002003b0001f02d0003003700fb
:1046b0000400070008f0a70001f0a0004f047800f4
:1046c00000000600889fbe008a9fbe000082700026
:1046d0000402710004827100260032000004be0052
:1046e0000200be006011b8006b0920009502200096
:1046f0000182cf000a0039000541b1000082cf00dd
:10470000070039000541b1000982cf0004003900db
:104710000541b1000882cf00010039000541b10018
:1047200005425200120032000a003b0082817100f3
:10473000610164008100d1000080d3008984d3002e
:104740000884d3008b05e8000442e800f7ff3a0034
:10475000070037000804440089844c00000048002a
:10476000818048008b05e9000442e900f9ff3a0026
:10477000030007004f05be004f04be000000060006
:1047800081002000618055000b003d000b002000df
:1047900061fe2f000100e1001d00340082817100e4
:1047a000610164008904d1000884d3000000e8009e
:1047b000faff3a00710020006100640003007000fd
:1047c000020060000900320061044400e0844c00f3
:1047d0000988a500050032008b05e8006808e100a3
:1047e00002003a008904d1000884d300f20f2000af
:1047f0000258e10005003d00c75ddd00f907b20089
:104800008980750008007800000006000bf827007a
:104810008b0078000000050080017800020037005e
:10482000b15978000201e9000200e000fcff3a0003
:1048300000000600889fbe008a9fbe0080047800aa
:104840000200e0005b00320001407800814c7800fb
:1048500082814400f1f99f00e20f510055003600bb
:1048600091449800a1449800e1f99f00d1f99f007c
:10487000e60f51004f003600b1449800c1f99f0087
:10488000e80f51004b0036000905ea00630565009a
:104890000a8444000a055100c1ff2f00010565008c
:1048a0000080fb008000eb0012102000131020009d
:1048b00044000700008cbe000a01440060b99f005c
:1048c00071b99f00e80f55003a00360020049800a7
:1048d00031049800400498005104980020b99f00ca
:1048e00031b99f0040b99f0051b99f00f80f5500a2
:1048f000300036006004980071049800000c9800a5
:10490000110c9800200c9800310c9800400c980075
:10491000510c980020b19f0031b19f0040b19f0021
:1049200051b19f0060b19f0071b19f0000b99f001d
:1049300011b99f0064016400780141000204440041
:10494000020555006011b8000203be000002be005f
:104950000403be006022b800000072008180720073
:10496000020173008381730010003700009cbe00b9
:104970000294be004004980051049800620498001c
:1049800073049800000c9800110c9800220c9800f9
:10499000330c9800400c9800510c9800620c980061
:1049a000730c98000a02b1000802b000ff0f550016
:1049b000eeff3e00090078004f05be004f04be0028
:1049c00000000600020ab900001bb9000200b8008e
:0c49d0008100420081004300000006004e
:020000040000fa
:1049dc0012010000000200000000000000080000ae
:1049ec00d80400003f00000000010000010200009c
:1049fc000001000009020000290000000101000074
:104a0c0000c0000032090000040000000002000099
:104a1c00030000000000000009210000110100004b
:104a2c0000010000221d00000007000005810000ad
:104a3c000340000000010000070500000103000016
:104a4c004000000001000000040300000904000005
:104a5c00340300004d0000006900000063000000fa
:104a6c00720000006f00000063000000680000008e
:104a7c0069000000700000002000000054000000dd
:104a8c006500000063000000680000006e0000007c
:104a9c006f0000006c0000006f0000006700000059
:104aac007900000020000000490000006e000000aa
:104abc00630000002e0000002e03000053000000d5
:104acc00690000006d000000700000006c00000028
:104adc0065000000200000004800000049000000b4
:104aec0044000000200000004400000065000000ad
:104afc007600000069000000630000006500000003
:104b0c002000000044000000650000006d00000063
:104b1c006f00000006000000ff09000001a100006a
:104b2c0001190000012900004015000000260000ba
:104b3c00ff00000075080000954000008100000097
:104b4c00190100002940000091000000c000000085
:104b5c0000a500002aa500002ea5000062a50000fb
:044b6c0023270000fb
:020000040000fa
:104b70000000fa004100200040002000b82d07008e
:104b800001f0230020002000b52d07008000eb007d
:104b900020002000b22d07008000eb006000200004
:104ba000af2d0700f1f3200060012000ac2d0700bd
:104bb00080c0eb00205028009b2d070080c0eb0038
:104bc000b0502800982d0700f1f32000400120008c
:104bd000a32d0700e1cfb30020512800922d07003c
:104be00080c0eb00405128008f2d070080c0eb00f3
:104bf000505128008c2d070080c0eb006051280028
:104c0000892d070031c0b30000412800862d070020
:104c1000f1c3b30030412800832d070061c0b30009
:104c200000422800802d070011c3b300004f280068
:104c30007d2d070011c0b300404f28007a2d0700da
:104c4000012c210000542800852d07008040eb0036
:104c500000632800742d07003175200010632800c0
:104c60007f2d070021c0b300006728006e2d0700cc
:104c7000012c2100c0a02800792d070011c0b3002d
:104c8000005e2800682d070001102000305e28001b
:104c9000732d07008040eb0000c02800622d070044
:104ca00080c0eb0010c028005f2d070080c0eb0023
:104cb00020c028005c2d070080c0eb0030c0280019
:104cc000592d070080c0eb0040c02800562d07007a
:104cd00080c0eb0050c02800532d070080c0eb00bf
:104ce00060c02800502d07008040eb0070c02800f5
:104cf0004d2d070021c5b30080c028004a2d0700b4
:104d000021c6b30090c02800472d070011c0b30092
:104d1000a0c02800442d07008040eb00b0c0280050
:104d2000412d070011c0b300c0c028003e2d070070
:104d30008040eb00d0c028003b2d07008040eb00f6
:104d4000e0c02800382d07008040eb00f0c02800ac
:104d5000352d0700c1c1b30000c12800322d070066
:104d6000d1c1b30010c128002f2d070011c0b3001e
:104d700020c128002c2d070031c0b30030c128000d
:104d8000292d070001c8b30040c12800262d0700c7
:104d900061c0b30050c12800232d0700a1c0b3009b
:104da00060c12800202d070081c7b30070c1280012
:104db0001d2d0700a1c0b30080c128001a2d0700d7
:104dc000d1c0b30090c12800172d070091ccb300cb
:104dd000a0c12800142d070001cab300b0c12800eb
:104de000112d070071c5b300c0c128000e2d0700aa
:104df00071c4b300d0c128000b2d070081c9b300d6
:104e0000e0c12800082d070071c2b300f0c12800de
:104e1000052d070021c1b30000c22800022d0700a4
:104e200081c4b30010c22800ff2c0700c1c4b30026
:104e300020c22800fc2c07008040eb0030c2280074
:104e4000f92c07008040eb0040c22800f62c070038
:104e50008040eb0050c22800f32c070011c0b300c3
:104e600060c22800f02c070011c0b30070c22800f7
:104e7000ed2c070011c0b30080c22800ea2c070007
:104e800011c0b30090c22800e72c070011c0b30086
:104e9000a0c22800e42c070011c0b300b0c2280053
:104ea000e12c070011c0b300c0c22800de2c0700af
:104eb00011c0b300d0c22800db2c070011c0b30022
:104ec000e0c22800d82c070011c0b300f0c22800af
:104ed000d52c070011c0b30000c32800d22c070056
:104ee00011c0b30010c32800cf2c070011c0b300bd
:104ef00020c32800cc2c070011c0b30030c3280009
:104f0000c92c070011c0b30040c32800c62c0700fd
:104f100011c0b30050c32800c32c0700a1c4b300c4
:104f200060c32800c02c0700a1c1b30070c32800d3
:104f3000bd2c070001cdb30080c32800ba2c0700a8
:104f400001cbb30090c32800b72c070001c2b30007
:104f5000a0c32800b42c07008040eb00b0c3280099
:104f6000b12c0700c1c0b300c0c32800ae2c07009d
:104f700001c5b300d0c32800ab2c0700b1c5b300f6
:104f8000e0c32800a82c070001c2b300f0c328002a
:104f9000a52c070031c6b30000c42800a22c0700ce
:104fa0008040eb0010c428009f2c0700d1c3b30041
:104fb00020c428009c2c0700d1c6b30030c42800b0
:104fc000992c07008040eb0040c42800962c070075
:104fd0008040eb0050c42800932c07008040eb0079
:104fe00060c42800902c070081c1b30070c4280061
:104ff0008d2c0700a1c4b30080c428008a2c0700b0
:10500000a1c1b30090c42800872c070001cdb300d4
:10501000a0c42800842c070001cbb300b0c4280032
:10502000812c070001c2b300c0c428007e2c0700f9
:105030008040eb00d0c428007b2c0700c1c0b30027
:10504000e0c42800782c070001c5b300f0c4280094
:10505000752c0700b1c5b30000c52800722c0700ed
:1050600001c2b30010c528006f2c070031c6b30081
:1050700020c528006c2c07008040eb0030c52800bc
:10508000692c0700d1c3b30040c52800662c070077
:10509000d1c6b30050c52800632c07008040eb0048
:1050a00060c52800602c07008040eb0070c5280018
:1050b0005d2c07008040eb0080c528005a2c0700bb
:1050c00081c1b30090c52800572c07008040eb0039
:1050d000a0c52800542c07008040eb00b0c5280074
:1050e000512c07008040eb00c0c528004e2c070063
:1050f000c1cfb300d0c528004b2c07008040eb0087
:10510000e0c52800482c070031c4b300f0c52800d2
:10511000452c0700f1c4b30000c62800422c07004c
:10512000d1c4b30010c628003f2c070051c3b30000
:1051300020c628003c2c070001c3b30030c628005d
:10514000392c070081c4b30040c62800362c070064
:1051500051c3b30050c62800332c0700e1c4b3008c
:1051600060c62800302c070001c3b30070c62800b9
:105170002d2c070031c3b30080c628002a2c07005d
:1051800051c5b30090c62800272c0700c1c4b30046
:10519000a0c62800242c070031c4b300b0c62800e4
:1051a000212c07008040eb00c0c628001e2c070001
:1051b0008040eb00d0c628001b2c07008040eb008d
:1051c000e0c62800182c0700d1cfb300f0c6280095
:1051d000152c07008040eb0000c72800122c0700a8
:1051e00061c3b30010c728000f2c070021c4b3000f
:1051f00020c728000c2c070051c4b30030c728007a
:10520000092c0700b1c4b30040c72800062c0700d2
:1052100061c0b30050c72800032c07008040eb009a
:1052200060c72800002c0700a1c0b30070c7280089
:10523000fd2b070001c2b30080c72800fa2b07002e
:1052400001c2b30090c72800f72b070001c2b300ca
:10525000a0c72800f42b070001c2b300b0c7280084
:10526000f12b070001c2b300c0c72800ee2b0700d6
:1052700001c2b300d0c72800eb2b070011c0b30058
:10528000e0c72800e82b070001c5b300f0c72800dd
:10529000e52b070021c0b30000c82800e22b07005f
:1052a00031c0b30010c82800df2b0700a1c1b30034
:1052b00020c82800dc2b070001ccb30030c8280030
:1052c000d92b070071c4b30040c82800d62b0700b3
:1052d000d1c7b30050c82800d32b0700d1c7b300f3
:1052e00060c82800d02b0700d1c7b30070c82800c1
:1052f000cd2b0700d1c7b30080c82800ca2b0700f8
:10530000d1c7b30090c82800c72b0700d1c7b3008e
:10531000a0c82800c42b0700d1c7b300b0c828001c
:10532000c12b070031c2b300c0c82800be2b070044
:1053300081c0b300d0c82800bb2b070071c0b300e8
:10534000e0c82800b82b070011c0b300f0c828003f
:10535000b52b070031c8b30000c92800b22b0700e5
:1053600011c0b30010c92800af2b07008040eb002c
:1053700020c92800ac2b07008040eb0030c9280072
:10538000a92b070051c6b30040c92800a62b07006f
:1053900031c0b30050c92800a32b0700c1c0b3001f
:1053a00060c92800a02b07008040eb0070c92800ce
:1053b0009d2b070001c1b30080c928009a2b07006c
:1053c0008040eb0090c92800972b0700a1c4b300d0
:1053d000a0c92800942b0700a1c1b300b0c92800c0
:1053e000912b070001cdb300c0c928008e2b070008
:1053f00001cbb300d0c928008b2b070001c2b3003a
:10540000e0c92800882b07008040eb00f0c9280085
:10541000852b0700c1c0b30000ca2800822b0700fb
:1054200001c5b30010ca28007f2b0700b1c5b30027
:1054300020ca28007c2b070001c2b30030ca280014
:10544000792b070031c6b30040ca2800762b07002d
:105450008040eb0050ca2800732b0700d1c3b30073
:1054600060ca2800702b0700d1c6b30070ca28009c
:105470006d2b07008040eb0080ca28006a2b0700d4
:105480008040eb0090ca2800672b07008040eb00ab
:10549000a0ca2800642b070081c1b300b0ca28004d
:1054a000612b0700a1c4b300c0ca28005e2b07000f
:1054b000a1c1b300d0ca28005b2b070001cdb30007
:1054c000e0ca2800582b070001cbb300f0ca28001f
:1054d000552b070001c2b30000cb2800522b070058
:1054e0008040eb0010cb28004f2b0700c1c0b30059
:1054f00020cb28004c2b070001c5b30030cb28007f
:10550000492b0700b1c5b30040cb2800462b07004c
:1055100001c2b30050cb2800432b070031c6b300b3
:1055200060cb2800402b07008040eb0070cb2800a8
:105530003d2b0700d1c3b30080cb28003a2b0700d6
:10554000d1c6b30090cb2800372b07008040eb007a
:10555000a0cb2800342b07008040eb00b0cb280004
:10556000312b07008040eb00c0cb28002e2b07001a
:1055700081c1b300d0cb28002b2b0700a1c4b300fe
:10558000e0cb2800282b0700a1c1b300f0cb2800f6
:10559000252b070001cdb30000cc2800222b0700eb
:1055a00001cbb30010cc28001f2b070001c2b300b1
:1055b00020cc28001c2b07008040eb0030cc2800ba
:1055c000192b0700c1c0b30040cc2800162b0700e0
:1055d00001c5b30050cc2800132b0700b1c5b300a0
:1055e00060cc2800102b070001c2b30070cc28004b
:1055f0000d2b070031c6b30080cc28000a2b070012
:105600008040eb0090cc2800072b0700d1c3b300eb
:10561000a0cc2800042b0700d1c6b300b0cc2800d2
:10562000012b07008040eb00c0cc2800fe2a0700b9
:105630008040eb00d0cc2800fb2a07008040eb0024
:10564000e0cc2800f82a070081c1b300f0cc280084
:10565000f52a0700a1c4b30000cd2800f22a0700f4
:10566000a1c1b30010cd2800ef2a070001cdb3007f
:1056700020cd2800ec2a070001cbb30030cd280054
:10568000e92a070001c2b30040cd2800e62a07003e
:105690008040eb0050cd2800e32a0700c1c0b300d2
:1056a00060cd2800e02a070001c5b30070cd2800b6
:1056b000dd2a0700b1c5b30080cd2800da2a070033
:1056c00001c2b30090cd2800d72a070031c6b3002d
:1056d000a0cd2800d42a07008040eb00b0cd2800e0
:1056e000d12a0700d1c3b300c0cd2800ce2a0700bd
:1056f000d1c6b300d0cd2800cb2a07008040eb00f4
:10570000e0cd2800c82a07008040eb00f0cd28003b
:10571000c52a07008040eb0000ce2800c22a0700ff
:1057200081c1b30010ce2800bf2a07008040eb00e3
:1057300020ce2800bc2a07008040eb0030ce280095
:10574000b92a07008040eb0040ce2800b62a0700a7
:105750008040eb0050ce2800b32a07008040eb00c9
:1057600060ce2800b02a07008040eb0070ce2800f1
:10577000ad2a07008040eb0080ce2800aa2a07004f
:105780008040eb0090ce2800a72a07008040eb0065
:10579000a0ce2800a42a07008040eb00b0ce28004d
:1057a000a12a07008040eb00c0ce28009e2a0700f7
:1057b0008040eb00d0ce28009b2a07008040eb0001
:1057c000e0ce2800982a07008040eb00f0ce2800a9
:1057d000952a07008040eb0000cf2800922a07009e
:1057e0008040eb0010cf28008f2a07008040eb009c
:1057f00020cf28008c2a07008040eb0030cf280003
:10580000892a07008040eb0040cf2800862a070045
:105810008040eb0050cf2800832a07008040eb0037
:1058200060cf2800802a07008040eb0070cf28005e
:105830007d2a07008040eb0080cf28007a2a0700ed
:105840008040eb0090cf2800772a07008040eb00d3
:10585000a0cf2800742a07008040eb00b0cf2800ba
:10586000712a07008040eb00c0cf28006e2a070095
:105870008040eb00d0cf28006b2a07008040eb006f
:10588000e0cf2800682a070041c3b300f0cf28000a
:10589000652a070021c0b30030542800622a07009f
:1058a00011c1b300405428005f2a07008040eb007c
:1058b000006028005c2a070031cfb3002060280078
:1058c000592a070021c0b30030602800562a07007b
:1058d000c1c0b30040602800532a070051c0b30084
:1058e00060602800502a07008040eb0070602800ac
:1058f0004d2a070021c0b300206528004a2a07006e
:10590000a29b2400c320200010672800672a0700fc
:1059100092082b00131e200050672800632a0700fe
:105920008040eb00006828003f2a07000080fa0052
:10593000000006000200fa0000522800a429070017
:10594000004f780000522800a1290700004f78007e
:10595000005228009e290700004f78009e407800e2
:1059600061cf6000f1d32000600120003c2a0700d5
:105970001100200020002000392a07001e80fb00b3
:105980000080fa00000006000a00fa008000eb0028
:1059900020002000322a0700000a20000100200019
:1059a000f83707004001200094290700000f780015
:1059b000a001200091290700204798002e40900068
:1059c000614060003047980020502800802907007f
:1059d0004047980010c0b30040479800b0502800de
:1059e0007b290700504798000052280078290700bb
:1059f00060479800ee40900010c8b30000c06000ff
:105a000060479800f1f3200060012000142a07008d
:105a100080c0eb0020502800032a070080c0eb0064
:105a2000b0502800002a0700f1f3200040012000b8
:105a30000b2a07003e4090000080fb00c200dd0002
:105a40004e4090000080fb0000004000810070008c
:105a50006e4090000080fb0001007000400798003d
:105a60004e0090000080fa00000006000000fa00de
:105a7000f1d3200060012000f929070011c0b30014
:105a8000a0542800e82907000080fa000000060062
:105a90000000fa0000402b00414c2000b9370700fd
:105aa00041c1200040002000ed2907000120210015
:105ab00020002000ea2907008000eb0020002000e1
:105ac000e729070021c4b30020a02800d629070039
:105ad000120020000300200080102000f32907009e
:105ae0001200200003002000c0102000ef29070052
:105af0001200200003002000002a2000eb290700ec
:105b00003242210003002000c02a2000e7290700bc
:105b100000e82300010020009a370700320020002f
:105b200003002000002a2000e02907004201200095
:105b30000300200080112000dc290700d22b210067
:105b40000300200000122000d82907006011b800cf
:105b500040122000d5290700121020000300200069
:105b600080122000d129070002002000130020002d
:105b700000132000cd2907000200250003002000ab
:105b800040132000c9290700020020001300200054
:105b900080132000c5290700020020001300200008
:105ba000c0132000c12907000200200013002000bc
:105bb00000142000bd29070002002000130020006f
:105bc00040142000b9290700020021000300200032
:105bd00080142000b52907000200200013002000d7
:105be000c0142000b1290700121420000300200077
:105bf00000152000ad29070012002000030020003e
:105c000040152000a9290700820c20000300200075
:105c100080152000a5290700a20220000300200013
:105c200080162000a1290700a22a200003002000de
:105c3000001720009d290700020820000300200013
:105c4000c017200099290700f2002000030020005f
:105c5000c0182000952907005205200003002000ed
:105c600000192000912907006011b800401a200097
:105c70008e2907005201200003002000001c200094
:105c80008a2907006011b8004021200087290700f9
:105c90000208200003002000c02120008329070003
:105ca0006011b80040222000802907002200200057
:105cb00003002000402520007c290700220020004e
:105cc00023012000802520007829070022002000e1
:105cd00053002000c0252000742907003200200056
:105ce00033002000002620007029070082a3240032
:105cf00003002000402620006c29070082002000bd
:105d000003002000802620006829070042002000b0
:105d100053002000c0262000642907000202200052
:105d2000030020000027200060290700f201200066
:105d300003002000402720005c29070012002000fb
:105d4000230020008027200058290700220020007f
:105d500003002000c0272000542907001200200063
:105d600003002000c0112000502907008000eb0034
:105d7000005020003a2907006201200003002000a3
:105d800000112000492907006201200003002000c3
:105d90000031200045290700ca350700910328007b
:105da000405020002e2907004100200040502000d4
:105db0002b29070091fb2f004050200028290700c5
:105dc0003148290040502000252907009103280070
:105dd00040502000222907001101200040502000df
:105de0001f29070011cb2700405020001c29070065
:105df00001402200405020001929070061102000b6
:105e000040502000162907000101210040502000c9
:105e10001329070061e222004050200010290700ea
:105e2000d1d12100405020000d290700712521000b
:105e3000405020000a29070011602e004050200029
:105e400007290700210e20004050200004290700e8
:105e50009103280040502000012907007100200014
:105e600040502000fe280700210b20004050200059
:105e7000fb280700814c200040502000f828070034
:105e80004100200040502000f52807006106200056
:105e900040502000f2280700510020004050200010
:105ea000ef2807000102200040502000ec280700e6
:105eb0005101200040502000e92807006103200024
:105ec00040502000e62807005101200040502000eb
:105ed000e3280700a103270040502000e028070026
:105ee0009103280040502000dd280700f101200028
:105ef00040502000da280700410b200040502000cd
:105f0000d72807004120230040502000d428070054
:105f10000101200040502000d1280700210321006a
:105f200040502000ce2807000120230040502000d0
:105f3000cb2807000181200040502000c82807001e
:105f40007112200040502000c52807003135200084
:105f500040502000c228070071132000405020004c
:105f6000bf2807003115200040502000bc28070042
:105f70000103230040502000b92807001110200021
:105f800040502000b6280700311420004050200067
:105f9000b32807003114200040502000b02807002b
:105fa0001116260040502000ad28070011002000e7
:105fb00040502000aa2807009103280040502000ec
:105fc000a72807005100200040502000a428070007
:105fd000f16b200040502000a12807002100210083
:105fe000405020009e280700410020004050200023
:105ff0009b280700910328004050200098280700a4
:10600000510020004050200095280700710c20000e
:10601000405020009228070001012000405020003d
:106020008f28070001012000405020008c28070025
:1060300091032800405020008928070031002000eb
:106040004050200086280700618c2000405020002e
:10605000832807008100200040502000802807008e
:1060600091032800405020007d28070031002000c7
:10607000405020007a28070001cc2000405020002a
:1060800077280700510120004050200074280700a5
:1060900091032800405020007128070011022000c1
:1060a000405020006e280700510d20004050200075
:1060b0006b2807008000eb00405020006828070094
:1060c00001a020004050200065280700011020009a
:1060d000405020006228070031032000405020007b
:1060e0005f28070001302300405020005c28070093
:1060f00001002100405020005928070021432500bd
:106100004050200056280700610721004050200021
:106110005328070021832800405020005028070002
:1061200081882800405020004d28070081882800e1
:10613000405020004a280700818828004050200055
:106140004728070091992900405020004428070063
:106150009149250040502000412807006187280010
:10616000405020003e2807008108200040502000b9
:106170003b280700910328004050200038280700e2
:10618000010820004050200035280700111c200085
:1061900040502000322807000160200040502000bd
:1061a0002f280700e1602100405020002c28070024
:1061b000e16122004050200029280700e16223000d
:1061c0004050200026280700e163240040502000b2
:1061d00023280700e1642500405020002028070004
:1061e000e1652600405020001d280700e1662700d9
:1061f000405020001a280700e16728004050200086
:1062000017280700e16829004050200014280700e3
:10621000e1692a004050200011280700e16a2b00a4
:10622000405020000e280700e16b2c004050200059
:106230000b280700e16c2d004050200008280700c3
:10624000e16d2e004050200005280700e16e2f0070
:106250004050200002280700e10f2000405020009d
:10626000ff2707008000eb0040502000fc270700bc
:106270008000eb0040502000f92707008000eb0071
:1062800040502000f62707008000eb00405020001f
:10629000f32707000130200040502000f0270700be
:1062a000b130210040502000ed270700b13122001d
:1062b00040502000ea270700b13223004050200060
:1062c000e7270700b133240040502000e4270700ef
:1062d000b134250040502000e1270700b1352600e9
:1062e00040502000de270700b13627004050200034
:1062f000db270700b137280040502000d8270700cf
:10630000b138290040502000d5270700b1392a00b4
:1063100040502000d2270700b13a2b004050200007
:10632000cf270700b13b2c0040502000cc270700ae
:10633000b13c2d0040502000c9270700b13d2e0080
:1063400040502000c6270700b13e2f0040502000db
:10635000c3270700b10f200040502000c0270700ce
:106360008000eb0040502000bd2707008000eb00bc
:1063700040502000ba2707008000eb00405020006a
:10638000b72707008000eb0040502000b42707002b
:106390008000eb0040502000b12707008100210061
:1063a00040502000ae27070081e12100405020002e
:1063b000ab27070061e2220040502000a827070019
:1063c00061e3230040502000a527070061e424007a
:1063d00040502000a227070061e525004050200022
:1063e0009f27070061e62600405020009c270700f9
:1063f00061e72700405020009927070061e8280046
:10640000405020009627070061e9290040502000f5
:106410009327070061ea2a004050200090270700d8
:1064200061eb2b00405020008d27070061ec2c0011
:10643000405020008a27070061ed2d0040502000c9
:106440008727070061de2e004050200084270700c8
:10645000510f200040502000812707008000eb00f2
:10646000405020007e2707008000eb0040502000b5
:106470007b2707008000eb004050200078270700b2
:106480008000eb0040502000752707009103280092
:106490004050200072270700b10220004050200029
:1064a0006f270700010e2000405020006c270700d6
:1064b0008000eb00405020006927070021d1210017
:1064c0004050200066270700413321004050200043
:1064d00063270700a14220004050200060270700ea
:1064e000c1202100405020005d270700619121005c
:1064f000405020005a2707006161210040502000d1
:1065000057270700e11021004050200054270700c2
:106510008000eb004050200051270700018021003f
:10652000405020004e27070041f223004050200039
:106530004b27070061c12200405020004827070078
:1065400041d0200040502000452707000161210074
:106550004050200042270700816121004050200068
:106560003f27070061012100405020003c27070021
:106570001171200040502000392707006161200080
:106580004050200036270700f180200040502000b6
:10659000332707006171200040502000302707009a
:1065a00001012000405020002d2707009103280002
:1065b000405020002a270700a10020004050200062
:1065c0002727070091fc20004050200024270700c7
:1065d00001e021004050200021270700e1012000b8
:1065e000405020001e2707008000eb004050200094
:1065f0001b27070011e02300405020001827070048
:1066000051012000405020001527070011f52f00f0
:106610004050200012270700510120004050200068
:106620000f27070031052000405020000c270700ed
:10663000510120004050200009270700c17b2000a5
:10664000405020000627070000882300110020008a
:10665000cc340700510120004050200000270700e3
:10666000c19c200040502000fd2607000050230060
:10667000c1002000c3340700510120004050200019
:10668000f7260700a13b200040502000f426070019
:106690005100200040502000f12607001101200089
:1066a00040502000ee26070000402d00010320008e
:1066b000b43407005100200040502000e8260700b5
:1066c0009102200040502000e526070000c027006e
:1066d00021092000ab3407008000eb0000002500fa
:1066e000df2607008000eb00c0002500dc26070045
:1066f000f12c2000e0002500d92607008000eb00e7
:1067000000082500d62607008000eb00c008250001
:10671000d3260700f12c2000e0082500d026070032
:106720000108200000082700cd260700018720006f
:1067300080002500ca260700018720008008250068
:10674000c726070080c0eb0020502800b6260700af
:1067500080c0eb0030502800b326070080c0eb005b
:1067600040502800b026070080c0eb0050502800a1
:10677000ad26070080c0eb0060502800aa26070065
:1067800080c0eb00b0502800a7260700f1f32000de
:1067900040012000b2260700f1d320006001200054
:1067a000af26070051c3200040002000ac260700a0
:1067b0008000eb0060002000a92607006200200096
:1067c0000300200000112000b8260700620020000e
:1067d0000300200000312000b42607000080fa00ea
:1067e000000006000000fa0041c120004000200027
:1067f0009b260700810020006000200098260700eb
:106800000120210020002000952607008000eb00d9
:1068100020002000922607008000eb00600020008e
:106820008f26070091002000000027008c2607001b
:106830001200200003002000801020009b2607008b
:106840001200200003002000c0102000972607003f
:106850001200200003002000002a200093260700d9
:106860003242210003002000c02a20008f260700aa
:1068700000e823000100200042340700320020001d
:1068800003002000002a2000882607004201200083
:10689000030020008011200084260700d22b210055
:1068a0000300200000122000802607006011b800bd
:1068b000401220007d260700121020000300200057
:1068c000801220007926070002002000130020001b
:1068d0000013200075260700020025000300200099
:1068e0004013200071260700020020001300200042
:1068f000801320006d2607000200200013002000f6
:10690000c0132000692607000200200013002000a9
:10691000001420006526070002002000130020005c
:10692000401420006126070002002100030020001f
:10693000801420005d2607000200200013002000c4
:10694000c014200059260700121420000300200064
:10695000001520005526070012002000030020002b
:106960004015200051260700820c20000300200063
:10697000801520004d260700a20220000300200001
:10698000801620004926070062292000030020000d
:106990000017200045260700020820000300200001
:1069a000c017200041260700f2002000030020004d
:1069b000c01820003d2607005205200003002000db
:1069c00000192000392607006011b800401a200085
:1069d000362607005201200003002000001c200082
:1069e000322607006011b800402120002f26070042
:1069f0000208200003002000c02120002b260700f1
:106a00006011b80040222000282607002200200044
:106a1000030020004025200024260700220020003b
:106a200023012000802520002026070022002000ce
:106a300053002000c02520001c2607003200200043
:106a400033002000002620001826070082a324001f
:106a500003002000402620001426070082002000aa
:106a6000030020008026200010260700420020009e
:106a700053002000c02620000c2607000202200040
:106a8000030020000027200008260700f201200054
:106a900003002000402720000426070012002000e9
:106aa000230020008027200000260700220020006d
:106ab00003002000c0272000fc2507001200200052
:106ac00003002000c0112000f82507008000eb0023
:106ad00000502000e22507008000eb0000002500a8
:106ae000df25070001002800c0002500dc25070085
:106af0008000eb0000082500d925070001022000d6
:106b000080002700d625070031002000a0002700c4
:106b1000d325070001382000c0002700d02507003a
:106b2000c1502000e0002700cd250700012d2000e6
:106b300000012700ca25070001502000200127007e
:106b4000c72507005105200040012700c425070084
:106b50006100200060012700c125070071002000ae
:106b600000002700be25070051c320004000200080
:106b7000bb25070062002000030020000011200058
:106b8000ca25070062002000030020000031200019
:106b9000c625070041c1200040002000b0250700a5
:106ba0008000eb0000002700ad2507000080fa0000
:106bb000000006000000fa004232070041c1200038
:106bc00040002000a6250700f1d32000600120002e
:106bd000a32507000080fa00000006000200fa006a
:106be000000f780001ccb300005428008e25070068
:106bf00021c1b300105428008b25070001ccb3003d
:106c0000c0a028008825070021c1b300d0a028001b
:106c10008525070031c3b3003059280082250700bd
:106c200000a02600810120005633070050402800b4
:106c3000e72407009e007800804878001e0fe800d7
:106c400060402800e22407009e0078008048780019
:106c50001e0fe800e0582800dd2407009e007800a1
:106c6000804878001e0fe800f0582800d82407005c
:106c70009e007800804878001e0fe8000058280029
:106c8000d32407009e007800804878001e0fe8009b
:106c900010582800ce2407009e0078008048780015
:106ca0001e0fe80020582800c92407009e00780025
:106cb000804878001e0fe80030582800c4240700e0
:106cc0009e007800804878001e0fe80000592800d8
:106cd000bf2407009e007800804878001e0fe8005f
:106ce00010592800ba2407009e00780080487800d8
:106cf0001e0fe80040582800b52407009e007800c9
:106d0000804878001e0fe80050582800b024070083
:106d10009e007800804878001e0fe8006058280028
:106d2000ab2407009e007800804878001e0fe80022
:106d300070582800a62407009e007800804878003c
:106d40001e0fe800c0582800a12407009e0078000c
:106d5000804878001e0fe800d05828009c240700c7
:106d60009e007800804878001e0fe80060522800de
:106d7000972407009e007800804878000080fa0081
:106d8000000006000000fa0062012000030020005d
:106d900000112000452507006201200003002000ab
:106da0000031200041250700c6310700910328006b
:106db000405020002a2507004100200040502000bc
:106dc0002725070091fb2f004050200024250700b5
:106dd0003148290040502000212507009103280058
:106de000405020001e2507001101200040502000c7
:106df0001b25070011cb2700405020001825070055
:106e0000014022004050200015250700611020009d
:106e100040502000122507000101210040502000b1
:106e20000f25070061e22200405020000c250700da
:106e3000d1d12100405020000925070071252100f3
:106e4000405020000625070011602e004050200011
:106e500003250700210e20004050200000250700d8
:106e60009103280040502000fd24070071002000fd
:106e700040502000fa240700210b20004050200041
:106e8000f7240700814c200040502000f424070024
:106e90004100200040502000f1240700610620003e
:106ea00040502000ee2407005100200040502000f8
:106eb000eb2407000102200040502000e8240700d6
:106ec0005101200040502000e5240700610320000c
:106ed00040502000e22407005101200040502000d3
:106ee000df240700a103270040502000dc24070016
:106ef0009103280040502000d9240700f101200010
:106f000040502000d6240700410b200040502000b4
:106f1000d32407004120230040502000d024070044
:106f20000101200040502000cd2407002103210052
:106f300040502000ca2407000120230040502000b8
:106f4000c72407000181200040502000c42407000e
:106f50007112200040502000c1240700313520006c
:106f600040502000be240700711320004050200034
:106f7000bb2407003115200040502000b824070032
:106f80000103230040502000b52407001110200009
:106f900040502000b224070031142000405020004f
:106fa000af2407003114200040502000ac2407001b
:106fb0001116260040502000a924070011002000cf
:106fc00040502000a62407009103280040502000d4
:106fd000a32407005100200040502000a0240700f7
:106fe000f16b2000405020009d240700210021006b
:106ff000405020009a24070041002000405020000b
:107000009724070091032800405020009424070093
:10701000510020004050200091240700710c2000f6
:10702000405020008e240700010120004050200025
:107030008b24070001012000405020008824070015
:1070400091032800405020008524070031002000d3
:107050004050200082240700618c20004050200016
:107060007f24070081002000405020007c2407007e
:1070700091032800405020007924070031002000af
:10708000405020007624070001cc20004050200012
:107090007324070051012000405020007024070095
:1070a00091032800405020006d24070011022000a9
:1070b000405020006a240700510d2000405020005d
:1070c000672407008000eb00405020006424070084
:1070d00001a0200040502000612407000110200082
:1070e000405020005e240700310320004050200063
:1070f0005b24070001302300405020005824070083
:1071000001002100405020005524070021432500a4
:107110004050200052240700610721004050200009
:107120004f24070021832800405020004c240700f2
:1071300081882800405020004924070081882800c9
:10714000405020004624070081882800405020003d
:107150004324070091992900405020004024070053
:1071600091492500405020003d24070061872800f8
:10717000405020003a2407008108200040502000a1
:1071800037240700910328004050200034240700d2
:10719000010820004050200031240700111c20006d
:1071a000405020002e2407000160200040502000a5
:1071b0002b240700e1602100405020002824070014
:1071c000e16122004050200025240700e1622300f5
:1071d0004050200022240700e1632400405020009a
:1071e0001f240700e1642500405020001c240700f4
:1071f000e16526004050200019240700e1662700c1
:107200004050200016240700e1672800405020006d
:1072100013240700e16829004050200010240700d3
:10722000e1692a00405020000d240700e16a2b008c
:10723000405020000a240700e16b2c004050200041
:1072400007240700e16c2d004050200004240700b3
:10725000e16d2e004050200001240700e16e2f0058
:1072600040502000fe230700e10f20004050200086
:10727000fb2307008000eb0040502000f8230700ac
:107280008000eb0040502000f52307008000eb0059
:1072900040502000f22307008000eb004050200007
:1072a000ef2307000130200040502000ec230700ae
:1072b000b130210040502000e9230700b131220005
:1072c00040502000e6230700b13223004050200048
:1072d000e3230700b133240040502000e0230700df
:1072e000b134250040502000dd230700b1352600d1
:1072f00040502000da230700b1362700405020001c
:10730000d7230700b137280040502000d4230700be
:10731000b138290040502000d1230700b1392a009c
:1073200040502000ce230700b13a2b0040502000ef
:10733000cb230700b13b2c0040502000c82307009e
:10734000b13c2d0040502000c5230700b13d2e0068
:1073500040502000c2230700b13e2f0040502000c3
:10736000bf230700b10f200040502000bc230700be
:107370008000eb0040502000b92307008000eb00a4
:1073800040502000b62307008000eb004050200052
:10739000b32307008000eb0040502000b02307001b
:1073a0008000eb0040502000ad2307008100210049
:1073b00040502000aa23070081e121004050200016
:1073c000a723070061e2220040502000a423070009
:1073d00061e3230040502000a123070061e4240062
:1073e000405020009e23070061e52500405020000a
:1073f0009b23070061e626004050200098230700e9
:1074000061e72700405020009523070061e828002d
:10741000405020009223070061e9290040502000dd
:107420008f23070061ea2a00405020008c230700c8
:1074300061eb2b00405020008923070061ec2c00f9
:10744000405020008623070061ed2d0040502000b1
:107450008323070061de2e004050200080230700b8
:10746000510f2000405020007d2307008000eb00da
:10747000405020007a2307008000eb00405020009d
:10748000772307008000eb004050200074230700a2
:107490008000eb004050200071230700910328007a
:1074a000405020006e230700b10220004050200011
:1074b0006b230700010e20004050200068230700c6
:1074c0008000eb00405020006523070021d12100ff
:1074d000405020006223070041332100405020002b
:1074e0005f230700a1422000405020005c230700da
:1074f000c120210040502000592307006191210044
:1075000040502000562307006161210040502000b8
:1075100053230700e11021004050200050230700b2
:107520008000eb00405020004d2307000180210027
:10753000405020004a23070041f223004050200021
:107540004723070061c12200405020004423070068
:1075500041d020004050200041230700016121005c
:10756000405020003e230700816121004050200050
:107570003b23070061012100405020003823070011
:107580001171200040502000352307006161200068
:107590004050200032230700f1802000405020009e
:1075a0002f23070061712000405020002c2307008a
:1075b00001012000405020002923070091032800ea
:1075c0004050200026230700a1002000405020004a
:1075d0002323070091fc20004050200020230700b7
:1075e00001e02100405020001d230700e1012000a0
:1075f000405020001a2307008000eb00405020007c
:107600001723070011e02300405020001423070037
:1076100051012000405020001123070011f52f00d8
:10762000405020000e230700510120004050200050
:107630000b230700310520004050200008230700dd
:10764000510120004050200005230700c17b20008d
:107650004050200002230700008823001100200072
:10766000c83007005101200040502000fc220700d4
:10767000c19c200040502000f92207000050230048
:10768000c1002000bf300700510120004050200001
:10769000f3220700a13b200040502000f022070009
:1076a0005100200040502000ed2207001101200071
:1076b00040502000ea22070000402d000103200076
:1076c000b03007005100200040502000e4220700a5
:1076d0009102200040502000e122070000c0270056
:1076e00021092000a73007000080fa0000000600f2
:1076f0000000fa004100200040002000d8220700ce
:1077000001f0230020002000d52207008000eb00bc
:1077100020002000d22207008000eb006000200043
:10772000cf220700f1f3200060012000cc220700e7
:1077300080c0eb0020502800bb22070080c0eb0077
:10774000b0502800b8220700f1f3200040012000cb
:10775000c3220700e1cfb30020512800b222070066
:1077600080c0eb0040512800af22070080c0eb0032
:1077700050512800ac22070080c0eb006051280067
:10778000a922070031c0b30000412800a62207004b
:10779000f1c3b30030412800a322070061c0b30049
:1077a00000422800a022070011c3b300004f2800a8
:1077b0009d22070011c0b300404f28009a22070005
:1077c000012c210000542800a52207008040eb0076
:1077d0000063280094220700317520001063280000
:1077e0009f22070021c0b300006728008e220700f7
:1077f000012c2100c0a028009922070011c0b3006d
:10780000005e28008822070001102000305e28005a
:10781000932207008040eb0000c02800822207006e
:1078200080c0eb0010c028007f22070080c0eb0062
:1078300020c028007c22070080c0eb0030c0280058
:107840007922070080c0eb0040c0280076220700a4
:1078500080c0eb0050c028007322070080c0eb00fe
:1078600060c02800702207008040eb0070c0280034
:107870006d22070021c5b30080c028006a220700de
:1078800021c6b30090c028006722070071c0b30072
:10789000a0c02800642207008040eb00b0c0280090
:1078a0006122070071c0b300c0c028005e2207003b
:1078b0008040eb00d0c028005b2207008040eb0036
:1078c000e0c02800582207008040eb00f0c02800ec
:1078d00055220700c1c1b30000c128005222070091
:1078e000d1c1b30010c128004f22070011c0b3005e
:1078f00020c128004c22070031c0b30030c128004d
:107900004922070001c8b30040c1280046220700f1
:1079100061c0b30050c1280043220700a1c0b300da
:1079200060c128004022070081c7b30070c1280051
:107930003d220700a1c0b30080c128003a22070001
:10794000d1c0b30090c128003722070091ccb3000a
:10795000a0c128003422070001cab300b0c128002a
:107960003122070071c5b300c0c128002e220700d4
:1079700071c4b300d0c128002b22070081c9b30015
:10798000e0c128002822070071c2b300f0c128001e
:107990002522070021c1b30000c2280022220700cf
:1079a00081c4b30010c228001f220700c1c4b30065
:1079b00020c228001c2207008040eb0030c22800b3
:1079c000192207008040eb0040c228001622070061
:1079d0008040eb0050c228001322070011c0b30002
:1079e00060c228001022070011c0b30070c2280036
:1079f0000d22070011c0b30080c228000a22070030
:107a000011c0b30090c228000722070011c0b300c4
:107a1000a0c228000422070011c0b300b0c2280091
:107a20000122070011c0b300c0c22800fe210700d8
:107a300011c0b300d0c22800fb21070011c0b30061
:107a4000e0c22800f821070011c0b300f0c22800ee
:107a5000f521070011c0b30000c32800f221070080
:107a600011c0b30010c32800ef21070011c0b300fc
:107a700020c32800ec21070011c0b30030c3280048
:107a8000e921070011c0b30040c32800e621070028
:107a900011c0b30050c32800e3210700a1c4b30004
:107aa00060c32800e0210700a1c1b30070c3280013
:107ab000dd21070001cdb30080c32800da210700d3
:107ac00001cbb30090c32800d721070001c2b30047
:107ad000a0c32800d42107008040eb00b0c32800d9
:107ae000d1210700c1c0b300c0c32800ce210700c8
:107af00001c5b300d0c32800cb210700b1c5b30036
:107b0000e0c32800c821070001c2b300f0c3280069
:107b1000c521070031c6b30000c42800c2210700f8
:107b20008040eb0010c42800bf210700d1c3b30080
:107b300020c42800bc210700d1c6b30030c42800ef
:107b4000b92107008040eb0040c42800b62107009f
:107b50008040eb0050c42800b32107008040eb00b8
:107b600060c42800b021070081c1b30070c42800a0
:107b7000ad210700a1c4b30080c42800aa210700da
:107b8000a1c1b30090c42800a721070001cdb30014
:107b9000a0c42800a421070001cbb300b0c4280072
:107ba000a121070001c2b300c0c428009e21070024
:107bb0008040eb00d0c428009b210700c1c0b30067
:107bc000e0c428009821070001c5b300f0c42800d4
:107bd00095210700b1c5b30000c528009221070018
:107be00001c2b30010c528008f21070031c6b300c1
:107bf00020c528008c2107008040eb0030c52800fc
:107c000089210700d1c3b30040c5280086210700a1
:107c1000d1c6b30050c52800832107008040eb0087
:107c200060c52800802107008040eb0070c5280057
:107c30007d2107008040eb0080c528007a210700e5
:107c400081c1b30090c52800772107008040eb0078
:107c5000a0c52800742107008040eb00b0c52800b3
:107c6000712107008040eb00c0c528006e2107008d
:107c7000c1cfb300d0c528006b2107008040eb00c6
:107c8000e0c528006821070041c5b300f0c5280001
:107c900065210700f1c6b30000c628006221070075
:107ca00031c7b30010c628005f21070081c6b300aa
:107cb00020c628005c21070091c6b30030c628000a
:107cc0005921070021c6b30040c6280056210700ed
:107cd00011c6b30050c6280053210700d1c2b3001b
:107ce00060c628005021070051c5b30070c62800a7
:107cf0004d21070081c4b30080c628004a21070037
:107d000021c3b30090c628004721070041c4b30037
:107d1000a0c6280044210700a1c0b300b0c62800b7
:107d2000412107008040eb00c0c628003e2107002b
:107d30008040eb00d0c628003b2107008040eb00cc
:107d4000e0c6280038210700d1cfb300f0c62800d4
:107d5000352107008040eb0000c7280032210700d2
:107d600061c3b30010c728002f21070021c4b3004e
:107d700020c728002c21070051c4b30030c72800b9
:107d800029210700b1c4b30040c7280026210700fd
:107d900061c0b30050c72800232107008040eb00da
:107da00060c7280020210700a1c0b30070c72800c9
:107db0001d21070001c2b30080c728001a21070057
:107dc00001c2b30090c728001721070001c2b30009
:107dd000a0c728001421070001c2b300b0c72800c3
:107de0001121070001c2b300c0c728000e210700ff
:107df00001c2b300d0c728000b21070011c0b30097
:107e0000e0c728000821070061c8b300f0c72800b8
:107e10000521070021c0b30000c828000221070087
:107e200031c0b30010c82800ff200700a1c1b30073
:107e300020c82800fc20070011ccb30030c828005f
:107e4000f920070071c4b30040c82800f6200700dd
:107e5000d1ceb30050c82800f3200700e1c6b3001c
:107e600060c82800f0200700e1c6b30070c82800f1
:107e7000ed200700e1c6b30080c82800ea20070013
:107e8000e1c6b30090c82800e7200700e1c6b300b0
:107e9000a0c82800e4200700e1c6b300b0c828004d
:107ea000e120070031c2b300c0c82800de2007006f
:107eb00081c0b300d0c82800db20070071c0b30028
:107ec000e0c82800d820070011c0b300f0c828007f
:107ed000d520070031c8b30000c92800d220070010
:107ee00011c0b30010c92800cf2007008040eb006c
:107ef00020c92800cc2007008040eb0030c92800b2
:107f0000c920070051c6b30040c92800c620070099
:107f100031c0b30050c92800c3200700c1c0b3005e
:107f200060c92800c02007008040eb0070c928000d
:107f3000bd20070001c1b30080c92800ba20070096
:107f40008040eb0090c92800b7200700a1c4b3000f
:107f5000a0c92800b4200700a1c1b300b0c92800ff
:107f6000b120070001cdb300c0c92800ae20070032
:107f700001cbb300d0c92800ab20070001c2b30079
:107f8000e0c92800a82007008040eb00f0c92800c5
:107f9000a5200700c1c0b30000ca2800a220070026
:107fa00001c5b30010ca28009f200700b1c5b30067
:107fb00020ca28009c20070001c2b30030ca280054
:107fc0009920070031c6b30040ca28009620070058
:107fd0008040eb0050ca280093200700d1c3b300b3
:107fe00060ca280090200700d1c6b30070ca2800dc
:107ff0008d2007008040eb0080ca28008a200700ff
:108000008040eb0090ca2800872007008040eb00ea
:10801000a0ca28008420070081c1b300b0ca28008c
:1080200081200700a1c4b300c0ca28007e20070039
:10803000a1c1b300d0ca28007b20070001cdb30046
:10804000e0ca28007820070001cbb300f0ca28005e
:108050007520070001c2b30000cb28007220070082
:108060008040eb0010cb28006f200700c1c0b30098
:1080700020cb28006c20070001c5b30030cb2800be
:1080800069200700b1c5b30040cb28006620070077
:1080900001c2b30050cb28006320070031c6b300f3
:1080a00060cb2800602007008040eb0070cb2800e8
:1080b0005d200700d1c3b30080cb28005a20070001
:1080c000d1c6b30090cb2800572007008040eb00ba
:1080d000a0cb2800542007008040eb00b0cb280044
:1080e000512007008040eb00c0cb28004e20070045
:1080f00081c1b300d0cb28004b200700a1c4b3003e
:10810000e0cb280048200700a1c1b300f0cb280035
:108110004520070001cdb30000cc28004220070015
:1081200001cbb30010cc28003f20070001c2b300f0
:1081300020cc28003c2007008040eb0030cc2800f9
:1081400039200700c1c0b30040cc2800362007000a
:1081500001c5b30050cc280033200700b1c5b300df
:1081600060cc28003020070001c2b30070cc28008a
:108170002d20070031c6b30080cc28002a2007003c
:108180008040eb0090cc280027200700d1c3b3002b
:10819000a0cc280024200700d1c6b300b0cc280012
:1081a000212007008040eb00c0cc28001e200700e3
:1081b0008040eb00d0cc28001b2007008040eb0063
:1081c000e0cc28001820070081c1b300f0cc2800c3
:1081d00015200700a1c4b30000cd2800122007001d
:1081e000a1c1b30010cd28000f20070001cdb300be
:1081f00020cd28000c20070001cbb30030cd280093
:108200000920070001c2b30040cd28000620070066
:108210008040eb0050cd280003200700c1c0b30010
:1082200060cd28000020070001c5b30070cd2800f4
:10823000fd1f0700b1c5b30080cd2800fa1f07005d
:1082400001c2b30090cd2800f71f070031c6b3006c
:10825000a0cd2800f41f07008040eb00b0cd28001f
:10826000f11f0700d1c3b300c0cd2800ee1f0700e7
:10827000d1c6b300d0cd2800eb1f07008040eb0033
:10828000e0cd2800e81f07008040eb00f0cd28007b
:10829000e51f07008040eb0000ce2800e21f07002a
:1082a00081c1b30010ce2800df1f07008040eb0023
:1082b00020ce2800dc1f07008040eb0030ce2800d5
:1082c000d91f07008040eb0040ce2800d61f0700d2
:1082d0008040eb0050ce2800d31f07008040eb0009
:1082e00060ce2800d01f07008040eb0070ce280031
:1082f000cd1f07008040eb0080ce2800ca1f07007a
:108300008040eb0090ce2800c71f07008040eb00a4
:10831000a0ce2800c41f07008040eb00b0ce28008c
:10832000c11f07008040eb00c0ce2800be1f070021
:108330008040eb00d0ce2800bb1f07008040eb0040
:10834000e0ce2800b81f07008040eb00f0ce2800e8
:10835000b51f07008040eb0000cf2800b21f0700c8
:108360008040eb0010cf2800af1f07008040eb00db
:1083700020cf2800ac1f07008040eb0030cf280042
:10838000a91f07008040eb0040cf2800a61f070070
:108390008040eb0050cf2800a31f07008040eb0077
:1083a00060cf2800a01f07008040eb0070cf28009e
:1083b0009d1f07008040eb0080cf28009a1f070018
:1083c0008040eb0090cf2800971f07008040eb0013
:1083d000a0cf2800941f07008040eb00b0cf2800fa
:1083e000911f07008040eb00c0cf28008e1f0700c0
:1083f0008040eb00d0cf28008b1f07008040eb00af
:10840000e0cf2800881f0700d1c1b300f0cf2800bb
:10841000851f070021c0b30030542800821f0700c9
:1084200011c1b300405428007f1f07008040eb00bb
:10843000006028007c1f070031cfb30020602800b7
:10844000791f070021c0b30030602800761f0700a5
:10845000c1c0b30040602800731f070051c0b300c3
:1084600060602800701f07008040eb0070602800eb
:108470006d1f070021c0b300206528006a1f070098
:10848000a29b2400c320200010672800871f07003c
:1084900092082b00131e200050672800831f07003e
:1084a0008040eb00006828005f1f07000052280092
:1084b000c71e0700f1d3200060012000681f0700dd
:1084c0001100200020002000651f07008000eb0045
:1084d00020002000621f0700000a20000100200089
:1084e000282d0700000a200001002000252d07008c
:1084f00040012000c11e0700a0012000bf1e070090
:1085000020502800b21e0700b0502800b01e0700ff
:1085100000522800ae1e0700f1f320006001200089
:108520004f1f070080c0eb00205028003e1f0700af
:1085300080c0eb00b05028003b1f0700f1f3200083
:1085400040012000461f07000080fa0000000600de
:108550000000fa0000802400811e2000092d070081
:1085600041c12000400020003d1f070001202100e4
:10857000200020003a1f07008000eb0020002000b0
:10858000371f070021c4b30020a02800261f0700c2
:10859000120020000300200080102000431f07006d
:1085a0001200200003002000c01020003f1f070021
:1085b0001200200003002000002a20003b1f0700bb
:1085c0005242210003002000c02a2000371f07006c
:1085d00000e8230001002000ea2c07003200200000
:1085e00003002000002a2000301f07004201200065
:1085f00003002000801120002c1f0700d22b210037
:108600000300200000122000281f07006011b8009e
:1086100040122000251f0700121020000300200038
:1086200080122000211f07000200200013002000fc
:10863000001320001d1f070002002500030020007a
:1086400040132000191f0700020020001300200023
:1086500080132000151f07000200200013002000d7
:10866000c0132000111f070002002000130020008b
:10867000001420000d1f070002002000130020003e
:1086800040142000091f0700020021000300200001
:1086900080142000051f07000200200013002000a6
:1086a000c0142000011f0700121420000300200046
:1086b00000152000fd1e070012002000030020000e
:1086c00040152000f91e0700820c20000300200046
:1086d00080152000f51e0700a202200003002000e4
:1086e00080162000f11e0700022d2000030020004c
:1086f00000172000ed1e07001208200003002000d4
:10870000c0172000e91e0700f2002000030020002f
:10871000c0182000e51e07005205200003002000bd
:1087200000192000e11e07006011b800401a200067
:10873000de1e07005201200003002000001c200064
:10874000da1e07006011b80040212000d71e070084
:108750000208200003002000c0212000d31e0700d3
:108760006011b80040222000d01e07002200200027
:108770000300200040252000cc1e0700220020001e
:108780002301200080252000c81e070022002000b1
:1087900053002000c0252000c41e07003200200026
:1087a0003300200000262000c01e070082a3240002
:1087b0000300200040262000bc1e0700820020008d
:1087c0000300200080262000b81e07004200200081
:1087d00053002000c0262000b41e07000202200023
:1087e0000300200000272000b01e0700f201200037
:1087f0000300200040272000ac1e070012002000cc
:108800002300200080272000a81e0700220020004f
:1088100003002000c0272000a41e07001200200033
:1088200003002000c0112000a01e07008000eb0004
:10883000005020008a1e0700620120000300200073
:1088400000112000991e0700620120000300200093
:1088500000312000951e07008000eb000050200032
:108860007f1e07006201200003002000001120008d
:108870008e1e07006201200003002000003120004e
:108880008a1e070000102700210020003d2c070051
:108890009103280040502000711e07004100200075
:1088a000405020006e1e070091fb2f00405020001a
:1088b0006b1e07003148290040502000681e070049
:1088c0009103280040502000651e07001101200080
:1088d00040502000621e070011cb270040502000ae
:1088e0005f1e070001402200405020005c1e070070
:1088f0006110200040502000591e07000101210096
:1089000040502000561e070061e222004050200027
:10891000531e0700d1d1210040502000501e0700f7
:1089200071252100405020004d1e070011602e00cf
:10893000405020004a1e0700210e20004050200019
:10894000471e07009103280040502000441e0700e6
:108950007100200040502000411e0700210b200024
:10896000405020003e1e0700814c20004050200057
:108970003b1e07004100200040502000381e070029
:108980006106200040502000351e070051002000e5
:1089900040502000321e07000102200040502000fd
:1089a0002f1e070051012000405020002c1e070000
:1089b0006103200040502000291e070051012000c3
:1089c00040502000261e0700a10327004050200031
:1089d000231e07009103280040502000201e07009e
:1089e000f1012000405020001d1e0700410b200017
:1089f000405020001a1e0700412023004050200054
:108a0000171e07000101200040502000141e07001f
:108a10002103210040502000111e070001202300e7
:108a2000405020000e1e0700018120004050200011
:108a30000b1e07007112200040502000081e070086
:108a40003135200040502000051e07007113200022
:108a500040502000021e0700311520004050200029
:108a6000ff1d07000103230040502000fc1d0700ec
:108a70001110200040502000f91d07003114200083
:108a800040502000f61d0700311420004050200007
:108a9000f31d07001116260040502000f01d0700ae
:108aa0001100200040502000ed1d07009103280018
:108ab00040502000ea1d07005100200040502000d7
:108ac000e71d0700f16b200040502000e41d070067
:108ad0002100210040502000e11d0700410020003e
:108ae00040502000de1d0700910328004050200068
:108af000db1d07005100200040502000d81d07005a
:108b0000710c200040502000d51d070001012000fd
:108b100040502000d21d07000101200040502000dd
:108b2000cf1d07009103280040502000cc1d0700f6
:108b30003100200040502000c91d0700618c20003a
:108b400040502000c61d070081002000405020003a
:108b5000c31d07009103280040502000c01d0700de
:108b60003100200040502000bd1d070001cc200036
:108b700040502000ba1d0700510120004050200045
:108b8000b71d07009103280040502000b41d0700c6
:108b90001102200040502000b11d0700510d20009f
:108ba00040502000ae1d07008000eb004050200028
:108bb000ab1d070001a0200040502000a81d0700a9
:108bc0000110200040502000a51d070031032000a7
:108bd00040502000a21d070001302300405020001b
:108be0009f1d070001002100405020009c1d070030
:108bf0002143250040502000991d070061072100f6
:108c000040502000961d070021832800405020007e
:108c1000931d07008188280040502000901d070008
:108c200081882800405020008d1d07008188280081
:108c3000405020008a1d07009199290040502000d3
:108c4000871d07009149250040502000841d070022
:108c50006187280040502000811d07008108200006
:108c6000405020007e1d0700910328004050200046
:108c70007b1d07000108200040502000781d0700e0
:108c8000111c200040502000751d070001602000cd
:108c900040502000721d0700e1602100405020007c
:108ca0006f1d0700e1612200405020006c1d07008d
:108cb000e162230040502000691d0700e1632400a9
:108cc00040502000661d0700e16425004050200050
:108cd000631d0700e165260040502000601d07006d
:108ce000e1662700405020005d1d0700e167280075
:108cf000405020005a1d0700e16829004050200024
:108d0000571d0700e1692a0040502000541d07004c
:108d1000e16a2b0040502000511d0700e16b2c0040
:108d2000405020004e1d0700e16c2d0040502000f7
:108d30004b1d0700e16d2e0040502000481d07002c
:108d4000e16e2f0040502000451d0700e10f20007c
:108d500040502000421d07008000eb0040502000e2
:108d60003f1d07008000eb00405020003c1d070025
:108d70008000eb0040502000391d07008000eb0010
:108d800040502000361d07000130200040502000d8
:108d9000331d0700b130210040502000301d070076
:108da000b1312200405020002d1d0700b1322300b8
:108db000405020002a1d0700b133240040502000fd
:108dc000271d0700b134250040502000241d070056
:108dd000b135260040502000211d0700b136270084
:108de000405020001e1d0700b137280040502000d1
:108df0001b1d0700b138290040502000181d070036
:108e0000b1392a0040502000151d0700b13a2b004f
:108e100040502000121d0700b13b2c0040502000a4
:108e20000f1d0700b13c2d00405020000c1d070015
:108e3000b13d2e0040502000091d0700b13e2f001b
:108e400040502000061d0700b10f200040502000b8
:108e5000031d07008000eb0040502000001d0700ac
:108e60008000eb0040502000fd1c07008000eb005c
:108e700040502000fa1c07008000eb00405020000a
:108e8000f71c07008000eb0040502000f41c070096
:108e90008100210040502000f11c070081e12100e9
:108ea00040502000ee1c070061e2220040502000ec
:108eb000eb1c070061e3230040502000e81c070082
:108ec00061e4240040502000e51c070061e5250016
:108ed00040502000e21c070061e6260040502000c0
:108ee000df1c070061e7270040502000dc1c070062
:108ef00061e8280040502000d91c070061e92900e2
:108f000040502000d61c070061ea2a004050200093
:108f1000d31c070061eb2b0040502000d01c070041
:108f200061ec2c0040502000cd1c070061ed2d00ad
:108f300040502000ca1c070061de2e004050200077
:108f4000c71c0700510f200040502000c41c070020
:108f50008000eb0040502000c11c07008000eb00a7
:108f600040502000be1c07008000eb004050200055
:108f7000bb1c07008000eb0040502000b81c07001d
:108f80009103280040502000b51c0700b1022000ca
:108f900040502000b21c0700010e2000405020006d
:108fa000af1c07008000eb0040502000ac1c070005
:108fb00021d1210040502000a91c0700413321008d
:108fc00040502000a61c0700a14220004050200075
:108fd000a31c0700c120210040502000a01c070056
