:020000040000fa
:080000000004040000000000f0
:020000040000fa
:10000800041e0000081e00000c1e0000101e000048
:10001800141e0000bc1e0000bc1e0000bc1e000018
:10002800181e00001c1e0000201e0000241e0000d8
:10003800bc1e0000281e00002c1e0000301e000000
:10004800341e0000381e00003c1e0000401e000048
:10005800441e0000481e0000bc1e0000bc1e00001c
:100068004c1e0000501e0000541e0000581e0000c8
:100078005c1e0000bc1e0000bc1e0000bc1e000070
:10008800bc1e0000601e0000641e0000681e000008
:100098006c1e0000701e0000741e0000781e000018
:1000a8007c1e0000801e0000bc1e0000bc1e00005c
:1000b800bc1e0000841e0000881e00008c1e00006c
:1000c800bc1e0000901e0000bc1e0000bc1e0000ec
:1000d800bc1e0000941e0000bc1e0000bc1e0000d8
:1000e800bc1e0000981e00009c1e0000bc1e0000e4
:1000f800bc1e0000bc1e0000bc1e0000bc1e000090
:10010800bc1e0000bc1e0000bc1e0000bc1e00007f
:10011800bc1e0000bc1e0000a01e0000bc1e00008b
:10012800bc1e0000a41e0000a81e0000ac1e00009b
:10013800bc1e0000bc1e0000bc1e0000bc1e00004f
:10014800b01e0000bc1e0000bc1e0000bc1e00004b
:10015800bc1e0000b41e0000bc1e0000bc1e000037
:10016800bc1e0000bc1e0000bc1e0000bc1e00001f
:10017800bc1e0000bc1e0000b81e0000bc1e000013
:10018800bc1e0000bc1e0000bc1e0000bc1e0000ff
:10019800bc1e0000bc1e0000bc1e0000bc1e0000ef
:1001a800bc1e0000bc1e0000bc1e0000bc1e0000df
:1001b800bc1e0000bc1e0000bc1e0000bc1e0000cf
:1001c800bc1e0000bc1e0000bc1e0000bc1e0000bf
:1001d800bc1e0000bc1e0000bc1e0000bc1e0000af
:1001e800bc1e0000bc1e0000bc1e0000bc1e00009f
:0801f800bc1e0000bc1e00004b
:020000040000fa
:10020800e0040000e0040000e0040000e004000056
:10021800e0040000e0040000e0040000e004000046
:10022800e0040000e0040000e0040000e004000036
:10023800e0040000e0040000e0040000e004000026
:10024800e0040000e0040000e0040000e004000016
:10025800e0040000e0040000e0040000e004000006
:10026800e0040000c8040000e0040000e00400000e
:10027800e0040000e0040000e0040000e0040000e6
:10028800e0040000e0040000e0040000e0040000d6
:10029800e0040000e0040000e0040000e0040000c6
:1002a800e0040000e0040000e0040000e0040000b6
:1002b800e0040000e0040000e0040000e0040000a6
:1002c800e0040000e0040000e0040000e004000096
:1002d800e0040000e0040000e0040000e004000086
:1002e800e0040000e0040000e0040000e004000076
:1002f800e0040000e0040000e0040000e004000066
:10030800e0040000e0040000e0040000e004000055
:10031800e0040000e0040000e0040000e004000045
:10032800e0040000e0040000e0040000e004000035
:10033800e0040000e0040000e0040000e004000025
:10034800e0040000e0040000e0040000e004000015
:10035800e0040000e0040000e0040000e004000005
:10036800e0040000e0040000e0040000e0040000f5
:10037800e0040000e0040000e0040000e0040000e5
:10038800e0040000e0040000e0040000e0040000d5
:10039800e0040000e0040000e0040000e0040000c5
:1003a800e0040000e0040000e0040000e0040000b5
:1003b800e0040000e0040000e0040000e0040000a5
:1003c800e0040000e0040000e0040000e004000095
:1003d800e0040000e0040000e0040000e004000085
:1003e800e0040000e0040000e0040000e004000075
:0803f800e0040000e004000035
:020000040000fa
:100800000fa220000e7f22000e01880000000000d1
:10081000000020000000e000020032000001200083
:100820002002880014000700670007000000e000b5
:1008300003003a00e0902100010020000200370090
:100840000000200001002000810f70000100320034
:1008500014000700000020000000e0000200320049
:1008600000000200000000007418020000000000f8
:100870000040da000000fe004440a900000c200007
:100880000000e0000300320000002000a00188000a
:100890004440a800000006008a1f78008b1f7800e3
:1008a0000000060091018800800478000000eb0041
:1008b0001a003700e284440032a0b4009905ba005f
:1008c000e284440032a0b4009906ba00e2844400f5
:1008d00032a0b4000006eb00476fde00fd07b20057
:1008e000636ce10003003a00ebff07000000eb003f
:1008f0000a003700606ce10004003a00005deb0084
:100900008b05e900fdff3e00040037006168e1004f
:10091000010032000086eb000b00070019c7ba0087
:100920001905ba000e04e00003003a000a00e000d6
:10093000e0ff3a0000000600fe07b2009e018800ba
:100940008a047800f5ff3700395dba008b05e900ad
:100950000c003200295dba008b05e9000800320066
:100960000c00e00003003a00e284440032a0b4002e
:10097000f5ff370019ddba008b05e900faff3a00f0
:100980008904e800e184440032a0b40000000600bd
:10099000801f7800d0418000e10f500001003a0034
:1009a0003a28ef000942ab0002003200100020009c
:1009b000e04188008620a9004f0078000040060032
:1009c0000040da000000fe0000000500889fbe0025
:1009d0008a9fbe00800478000200e0005b003200c5
:1009e00001407800814c780082814400f1f99f0039
:1009f000e20f51005500360091449800a144980040
:100a0000e1f99f00d1f99f00e60f51004f00360039
:100a1000b1449800c1f99f00e80f51004b00360027
:100a20000905ea00630565000a8444000a055100cf
:100a3000c1ff2f00010565000080fb008000eb0076
:100a4000121020001310200044000700008cbe008c
:100a50000a01440060b99f0071b99f00e80f55007a
:100a60003a003600200498003104980040049800b1
:100a70005104980020b99f0031b99f0040b99f00f0
:100a800051b99f00f80f55003000360060049800ff
:100a900071049800000c9800110c9800200c98002c
:100aa000310c9800400c9800510c980020b19f0028
:100ab00031b19f0040b19f0051b19f0060b19f00d4
:100ac00071b19f0000b99f0011b99f0064016400db
:100ad0007801410002044400020555006011b8008d
:100ae0000203be000002be000403be006022b80084
:100af0000000720081807200020173008381730024
:100b000010003700009cbe000294be004004980014
:100b1000510498006204980073049800000c980037
:100b2000110c9800220c9800330c9800400c98008f
:100b3000510c9800620c9800730c98000a02b100e6
:100b40000802b000ff0f5500eeff3e0009007800dc
:100b50004f05be004f04be0000000600020ab900a7
:100b6000001bb9000200b800810042008100430070
:040b7000000006007b
:020000040000fa
:100b74001201000000020000000000000008000054
:100b8400d80400003c000000000100000102000045
:100b9400000100000902000029000000010100001a
:100ba40000c0000032090000040000000002000040
:100bb40003000000000000000921000011010000f2
:100bc40000010000221d0000000700000581000054
:100bd40003400000000100000705000001030000bd
:100be40040000000010000000403000009040000ac
:100bf400340300004d0000006900000063000000a1
:100c0400720000006f000000630000006800000034
:100c14006900000070000000200000005400000083
:100c24006500000063000000680000006e00000022
:100c34006f0000006c0000006f00000067000000ff
:100c44007900000020000000490000006e00000050
:100c5400630000002e000000260300005500000081
:100c64005300000042000000200000004800000083
:100c74004900000044000000200000004200000081
:100c84006f0000006f000000740000006c000000a2
:100c94006f000000610000006400000065000000b7
:100ca4007200000006000000ff09000001a100001e
:100cb4000119000001290000401500000026000071
:100cc400ff0000007508000095400000810000004e
:100cd400190100002940000091000000c00000003c
:100ce400cc850000f6850000fa8500002e86000001
:020000040000fa
:100cf4000080fb000181fb00000040000001410076
:100d04004311dd0003a020000301410012f0a10003
:100d14000104e00002003a00a18020000100370035
:100d2400e18020008230780012e0a10064014100db
:100d340012e0a00000000600314a800080c0b30029
:100d4400e78f50000c003e000140780081812000b4
:100d5400914078000104e00002003a0011c0b300a1
:100d640003003700e1cf500003003a0021c0b30074
:100d74008281200001497800619420000081fb00f9
:100d8400910811007140800080487800c1952000ce
:100d9400d14088004194200091007800e1806000f7
:100da4000800320011003700124a8000d140800050
:100db40092587800d1408800219420008208e800ed
:100dc4000040e9000004e000f7ff3a0000000600dc
:100dd400124a8000d140800092587800d1408800a7
:100de400219420008208e8000040e9000004e000ab
:100df400f7ff3a000000060000c8b3004195200048
:100e0400914f10002d003a004094200001ccb30013
:100e1400014878007195200091407800e2cf50009d
:100e240008003200e3cf500015003200e1cf50003b
:100e340021003a00a05b2800104a8800200120000d
:100e440019003700619520001104e00018003a00f1
:100e54001180fb0000004000216728006100780039
:100e6400104a880061942000204190008248780054
:100e74007194200030409000804878000000060003
:100e84006195200022c0b300914f110008003e007c
:100e94001180fb00000040004167280061007800d9
:100ea400104a88001080fb00304a880000000600c9
:100eb4000048eb00000006000048eb0000000600bc
:100ec400c09520000048eb00d19520008048eb003d
:100ed4004195200091407800ffc060008180fb00b4
:100ee400e18f50000b003200e28f50000d00320001
:100ef4000100e00027003a00214a80000170a000b0
:100f0400214a88000348e200220032001014a000a5
:100f140020003700204a80000070a000204a88008a
:100f24001c003700204a80000070a000204a88007e
:100f34008095200010417800ef40610015003200d8
:100f44001004e00006003500104078006f40600097
:100f54000080fb0000004000a18020000500370055
:100f6400104078006f4060000080fb0000004000eb
:100f7400e1802000e100780000402800910060003a
:100f8400808f500003003a0011c0b300c0952000c8
:100f940001487800000820004194200011006000fe
:100fa40008003200c0952000104a8800204a8000c2
:100fb4000000a000204a880021c0b30060942000f3
:100fc4000148780000000600aa24ab00110032009a
:100fd400a04080001041900001c8b300814f51002f
:100fe4000b003a00714080001141900041c8b300e9
:100ff400814f510006003a00c1c0b300114098006f
:10100400a1408000114090000074a000904098001e
:10101400aa24a9000008200050248800000006002b
:10102400881f780070408000100478004e44de0071
:10103400614464000020a2007040880030408000b9
:10104400e80f500009003a00609520001080fb0072
:10105400f007b200b0248800000120009604e200ea
:1010640001003a00400020003040880019c8bf0049
:10107400e14f500015003a00c195200070408000f7
:10108400110098002cff070070408000818120002f
:1010940091407800e2cf500002003a0041c0b30012
:1010a4000400370081c4b3000804e00001003200ea
:1010b40081c0b3001140980071408000114090003d
:1010c4000074a000904098000f003700a094200006
:1010d4001004e0000b003d00614a8000c808de00f7
:1010e400e09420001080fb004800dd0000807000c8
:1010f4000100320000000100504a80000070a1008d
:10110400504a88001968ef004f0478000000060078
:101114000468ef000001eb00820078004007200023
:10112400190807008284a900000120000024880017
:101134000968ef00000006008284a8000001200076
:101144005024880010c0b30004e8b7000968ef0019
:101154000001eb0082007800500720000a083700e5
:10116400889fbe006095200090407800e1cf500039
:101174000f003a0040952000104078007f40600046
:101184000b003a00204a80000070a000204a88002a
:101194005095200032c0b300904f110003003a0074
:1011a4003080200001487800010037000368ef0018
:1011b400609520001004e0008f003a004095200064
:1011c400104078007f406000e24f50008a003a00ef
:1011d4008095200010417800ef40610086003200c5
:1011e40010417800ef4061008180fb00e18f5000e6
:1011f40081003c000102200032408000810f510038
:101204007d003a00214a80000170a000214a880034
:101214001004e0000b00350010417800ef4061003d
:101224008180fb0081804000a280200062847800dd
:10123400104078006f4060000080fb002195200082
:101244000a00370010417800ef4061008180fb0004
:1012540081804000e28020006284780010407800a1
:101264006f4060000080fb0001952000e14478009d
:101274000908a30002003a000820a1000100370079
:101284000820a000809520001004e000060035002e
:10129400104078006f4060000080fb0000004000b8
:1012a400a180200005003700104078006f406000e6
:1012b4000080fb0000004000e180200088307800be
:1012c4005095200031c0b30090cf100016003a00b2
:1012d4001800e0000f003d00809520001004e0009d
:1012e4000500350010407800ef4060008180fb006d
:1012f400229520000400370010407800ef40600081
:101304008180fb000295200062c078000014a000d8
:1013140000f178009840900040c8b30000c070000d
:101324001044980034003700880078000120a2009f
:10133400114090001100e00007003d000074a1007e
:101344000064a0009040980022002000500020007b
:101354008d070700020037000064a0009040980049
:101364000918a30002003a001800e00017003d002d
:10137400809520001004e00005003500104078003e
:10138400ef4060008180fb002295200004003700bc
:1013940010407800ef4060008180fb00029520003f
:1013a40062c078000014a10000f178001840900099
:1013b400b043b20010449800220020008800780056
:1013c4005000200070070700030037001840900009
:1013d400b043b2001044980080952000104078007b
:1013e4006f4060000080fb0000004000a14a200024
:1013f400010040001014a1004f04be0000000600cc
:10140400204a80000070a000204a8800ac24ef002d
:10141400020220008000eb0000a020006afd07000b
:101424009424a800f0942000119520001295200027
:101434000068eb008068eb00820f5000fcff3a006c
:101444001268ef009424a90080a020007040880056
:1014540000a02000a0408800b040880060952000d3
:101464001040780008e8b7000004e00002003a00e9
:1014740000012000050037001200200081802000b8
:101484000200780040070700000220003040880076
:10149400000006004095200001c6b30010c06000a3
:1014a40039003a00509520001080fb008000eb00ca
:1014b400eb0f5000e08f580033003e000060010045
:1014c40016003700160037002f00370014003700cd
:1014d4002d003700060037000b00370026003700c8
:1014e4000b003700090037000e00370019003700e1
:1014f400204a80000070a000204a8800800020005c
:1015040030408800000006003bfe3700bcff370077
:1015140080802000104a88000700370068fe3700ea
:101524000fff3700809520001081fb0021812000ef
:101534002094200001084100204a800012c0b3001a
:1015440061942000824878001008b300204a880083
:1015540000000600204a80000070a000204a880095
:10156400809520009080fb0020812000629520005f
:1015740092707800000006000001eb008200780001
:101584002000200000070700000006009ec0a900fc
:101594008ea4ef008aa4ef00aa24ef00ac24ef008d
:1015a4002000200030258800a824ef008644a900ec
:1015b400f0092000802488006024880082c4a800e8
:1015c4008804a80000a020004800de00c024880091
:1015d4000000eb00c200dd0002a0200081004100f9
:1015e4008008eb00b11078000000e800e80f50001c
:1015f400f8ff3a009424a8009624ef0094a4a900cc
:101604009424a900800020005024880050248000e5
:1016140068006000fbff3a00419420008048780095
:10162400a09420000048eb00504a8000f00fb20064
:10163400504a880000f02f00614a8000008060005a
:10164400604a880010c0b30020e8b70021e8b70062
:101654000268ef000068ef000468ef00c480200017
:1016640083802000f2942000119520000040eb00bc
:10167400002aeb008029eb000069eb008068eb0096
:101684000040e800e24f5000f9ff3a0080a020003b
:1016940070408800d000200050258800409520002c
:1016a4001050880081c0b30000a0200001487800d9
:1016b40010a0200041c0b300014878001074a000bd
:1016c4000868ef002228ef002428ef000968ef00e3
:1016d4000628ef0000000600889fbe008a1f7800dd
:1016e40000447800814478000985fb000a38a3008f
:1016f400030032008040eb00084078007cfd0700c6
:101704000a28a3000300320011c0b3000840780087
:1017140077fd07000884fb0008044400a04a200069
:1017240009707c004f0578004f04be0000000600dd
:101734000082fb000104e0000300320004024200c6
:10174400e58020000200370004024200a58020004a
:1017540065027a008002eb000400e000160032000b
:1017640012029800034a7800144190000244b20027
:1017740012429800144190000234a00012429800d2
:10178400144190000274a000124298000080fb00f3
:101794000104e0000300320000004000e18020006a
:1017a4000200370000004000a180200000804000bb
:1017b4001020a200840278000500780000000600d2
:1017c4000004e00014003a0081c0b300b04080007f
:1017d40001487800b0408000419520001100980035
:1017e400c1c0b30011409800b14080001140900086
:1017f4000074a0009040980041c0b3007040800085
:101804001140980071408000114090000074a000c5
:1018140090409800000006008180fb000080fb00df
:1018240000004000008040004300dd0002a02000d2
:10183400820140001342900041c8b300014272008b
:101844009441980064004000020040001041900060
:10185400814071001140980000000600889fbe007e
:1018640094a4ab00180032000080fb00000040008c
:10187400e180200000804000900078001104be0048
:101884000604200007002000060278008701780083
:10189400080162008288be00900078001160a200f6
:1018a400900078000120a200010878001141900006
:1018b4000244b200924098001000780090409000da
:1018c40004c26800144098004f04be0000000600e3
:1018d4002048e20028003a0010c0b30020e8b70016
:1018e4002148e20024003a0021e8b70019c8bf00eb
:1018f400e24f50000a003a00704080000048eb00bc
:1019040081c4b30070408000114098007140800091
:10191400114090000074a000904098000000060060
:10192400e14f500014003a001e68ef0083c0b3007a
:10193400a140800083487800a140800042952000a7
:101944009200980044c0b30094409800a4408000e2
:10195400944090000174a000114298001ee8b70062
:10196400b040800003487800b04080001200980026
:1019740001c8b3001140980000000600a040800098
:1019840090407800524a80004811de00c094200044
:101994001080fb004800dd00000071000181fb00a5
:1019a400800f510001003600804078000181fb0067
:1019b40002015000c811dd00504a8000f00fb2004f
:1019c40000807100504a88004811de0000f02f00aa
:1019d400634a80000080610000017100624a88004f
:1019e4000000eb0006003700424a8000c395200047
:1019f40063497800839420008209e8000000e8002d
:101a040080cf5000f8ff3e00504a80004800de00be
:101a1400f10f2000c2942000128160004811dd0003
:101a240002017000b04080000f00320081c0b3009a
:101a340001487800b0408000c29520001200980050
:101a4400a240800012e8a30001003a0081c4b30060
:101a540011409800b1408000114090000074a00033
:101a6400904098000000060082c0b300024878004d
:101a7400b0408000429520001200980042c0b3009c
:101a840012409800b2408000124090000074a00000
:101a940010419800624a80004811de00e094200062
:101aa400108060004800dd00000071000100320079
:101ab40000000100504a80000070a100504a8800d4
:101ac4000148e20001003a0081ff0700000006001f
:101ad40019c8bf00e24f500001003a00a7ff3700c9
:101ae4001968ef001e48e2000d003a0081c0b300ff
:101af400b040800001487800b0408000419520004b
:101b040011009800c1c0b30011409800b14080009a
:101b1400114090000074a00090409800000006005e
:101b24001e68ef00000006000268ef000068ef0086
:101b340019c8bf00e24f50000a003a0081c0b30048
:101b4400b040800001487800b0408000c19520007a
:101b54001100980081c4b30011409800b140800086
:101b640016003700a19520001181fb00b0952000dc
:101b74009081fb00c819dd0083017100629420008c
:101b8400928f5100050031009180fb001080fb0012
:101b94004800dd0000807000304a880066fc0700c1
:101ba400c1952000704080001100980081c4b300ea
:101bb40070408000114098007140800011409000f6
:101bc4000074a000904098000000060094a4a900ae
:101bd4000008200041942000110060001f003a001a
:101be400a09420001004e00008003d0020c0b300d1
:101bf40019e8b7000048e20001003a00caff0700f4
:101c04002168ef002068ef000000060081c0b300e7
:101c1400b040800001487800b04080004195200029
:101c240011009800c1c0b30011409800b140800079
:101c3400114090000074a0009040980041c0b3008f
:101c44007040800011409800714080001140900065
:101c54000074a00090409800000006004195200008
:101c64001104e0000a003d0010c0b30019e8b700f9
:101c74000248e20001003a00abff07002168ef00d0
:101c84002068ef000148e20013003a0010ff37001b
:101c940020c0b30019e8b70082c0b300b040800090
:101ca40002487800b04080001100980041c0b300a1
:101cb40011409800b1408000114090000074a000d1
:101cc400904098002168ef002068ef000148e2008e
:101cd40001003a00fefe0700000006001868ef004d
:101ce4000168ef000268ef000068ef001e68ef0073
:101cf4001968ef0071408000114090000074a10049
:101d040090409800704080000020a200704088003d
:101d1400904090000174a100114098000e48aa0060
:101d2400b1408000114090000074a10090409800e0
:101d3400409420000048eb008000eb00314a88000a
:101d4400a09420008180fb0001087800c09420004a
:101d540001f02f0010886000cefd07000001eb00a9
:101d640082007800300020000705070097ff370045
:101d7400d0c2b3001fe8b7001cc8bf000080fb003e
:101d8400800078000120a1000100e00013003a0067
:101d9400c00fb20001a0200001004000a040880054
:101da400800078000120a200b140880002c0230016
:101db4001001610001402300810f510006003a0028
:101dc400100090004195200007000900b0587800e9
:101dd4008000b100c1ff37003dff3700e88f50009d
:101de40001003a008efc070000000600104180004c
:101df4002141800061004000e080480010418800db
:101e0400214188000448e20004003a000948ec003b
:101e140009e8b70001003a0009e8ef0000000600f5
:101e2400881f78000608e20010003a009424ef00ae
:101e34008c24ef002000200030258800a824ef0027
:101e44008644a900f00920008024880060248800ca
:101e540082c4a800010037009404a8009404ab00d5
:101e6400fdff320010002000304088003040800028
:101e7400e10f500008003a0094c4ab0006003a0099
:101e84008aa4ef008c24ef008c04a8008c84a800a2
:101e940020002000304088008084ab000500320020
:101ea4008284ab000300320000012000002488007b
:101eb40097fc07008824ab005b003a008a04ab005f
:101ec400070032008c04ab0005003200affd0700b0
:101ed400400020003040880010002000502488007a
:101ee4008a84ab00030032008c84ab000100320012
:101ef40091fc070080c4ab00030032000004200002
:101f040000248800b9ff07008a44ab000f003200a8
:101f14008c44ab0004003200120020008000eb006f
:101f24003007200098040700400020005024880057
:101f34001fc8bf00020032000040e9001fe8b700dc
:101f44001f48e20001003a0061fe07008ae4ab008a
:101f5400030032008ce4ab00010032001afc0700dd
:101f64008a24ab00090032008c24ab000700320045
:101f7400120020008000eb00f0ff2700820407001d
:101f84008ea4ef0020002000502488003040800000
:101f9400e30f5000240036008c64ab0022003200b2
:101fa4000044eb008a64ab001f00320091248000df
:101fb400c0812000014878000180fb004400de005d
:101fc400004178001de8b7008000200050248800fc
:101fd4000280fb00239520000138a3000100320099
:101fe4000395200063427800e14062000104a200ee
:101ff4000404a10081407200817178000204e000b1
:1020040002003a005aff0700040037000001eb0009
:10201400c1812000200720005b0407000844e80079
:10202400e44f5400dfff3a008ec0a9004f0478004b
:1020340000000600104180002141800000000600dd
:102044008000eb000400370012712200828f5000e0
:10205400080032008100e800321080004410800043
:10206400800162007f01610003017100f6ff3a0004
:102074000000050010000500d00920002010880091
:1020840000002800301088000822ef008620a900f4
:102094009620a80000000600889fbe008a1f7800d2
:1020a40000047800010578003c28ef00300024008b
:1020b400e3ff0700e9ff2f00e10f50001700320093
:1020c4000602a80030002400ddff0700e10f5000e5
:1020d40012003200e04180008084eb00e10f5000e8
:1020e4000e00320010002000d04188000844440053
:1020f4000a4544000a85fb001a1088003a08e200e9
:10210400feff3a00e04180008084eb00e10f5000c4
:102114000200320049108000cf4cde000900780034
:102124004f0578004f04be0000000600889fbe00e3
:102134008a1f780000047800010578003c28ef002d
:1021440030002400beff0700e9ff2f00e10f50001c
:10215400170032000622a80030002400b8ff070050
:10216400e10f500012003200e04180008084eb0057
:10217400e10f50000e00320010002000d041880012
:10218400084444000a4544000a85fb001a108800ec
:102194003a08e200feff3a00e04180008084eb0050
:1021a400e10f50000200320049108000cf4cde00e5
:1021b400090078004f0578004f04be0000000600b7
:1021c4003c28ef00300024009dff070080007800c9
:1021d400e0ff2f00e18f5000060032000642a80005
:1021e400e14180000000eb00e18f500001003a0063
:1021f4000080eb0000000600881f7800004478008f
:102204003c28ef00100024008dff070080007800b8
:10221400e0ff2f00e18f500010003200e141800008
:102224000080eb00e18f50000c0032001000200011
:10223400d04188000884fb00181088003a08e200a6
:10224400feff3a00e14180000080eb00e18f500086
:1022540002003200401080004f00de004f0478007e
:1022640000000600889fbe008a1f78000004be009c
:10227400800ceb003c28ef002000240070ff0700d6
:10228400e20f4000070032000662a8000000eb00e5
:102294000800370011712200810f500004003a0039
:1022a400e0ff2f00800c78000080eb001b0037005b
:1022b4000000e800411080000662ab00f5ff3a0020
:1022c4000118a300f3ff3200e0418000e10f500049
:1022d400080032000a1080002000200058ff070088
:1022e400e20f4000efff3200e0418000e10f5000b8
:1022f40002003a00808ceb00ebff370061046400bd
:102304004544dd00301080000050a100000074003e
:10231400301088000682a8000a0078004f05780073
:102324004f04be0000000600e4874700889fbe00fb
:102334008a9fbe008c9fbe008e1f78000004780028
:10234400814478000205780003477800fd002000ee
:102354008000eb00080078004fff0700800578003c
:102364000b00e00024003a0009407800a2ff0700b7
:10237400800578000b00e0001f003a0011002000e7
:102384000800780069ff0700800578001c00200021
:102394000b00e000130032001700370000006e004d
:1023a40000f0a7000000ea000000e9004f00de0092
:1023b400f0805700abff0700004d78000fb897007e
:1023c4000000e00002003a000a05e80004003700bb
:1023d400e10f400007003200e20f40000500320028
:1023e4000c06e8000e80fb00800f5600ebff340063
:1023f400010037008005780071ff0700e18f450078
:1024040006003a0000a0260081012000b303070063
:102414008d06e900ceff3a0003003700e28f450045
:1024240001003a00004deb000b0078004f077800e4
:102434004f06be004f05be004f04be004f00b10062
:1024440000000600e4874700889fbe008a9fbe0004
:102454008c9fbe008e1f78008004780001447800b1
:102464000205780083467800fc0020008000eb0021
:102474000900780008ff0700800578000b00e000e1
:102484000e003a00084078005bff07008a007800dd
:102494000007eb00050037003140780081bf9f0042
:1024a40055ff07000e07e8008fb897000d80fb006a
:1024b400800f5700f8ff35000005450040ff070076
:1024c400e18f450005003a0000a0260081012000ac
:1024d400820307000c06e900e4ff3a000b007800d1
:1024e4004f0778004f06be004f05be004f04be00e4
:1024f4004f00b10000000600e4874700889fbe003b
:102504008a9fbe008c9fbe008e1f78000104780055
:1025140002477800804678004806de00fb00200071
:102524008000eb0070052000dbfe070080047800cb
:102534000900e00023003a000c4078002eff070059
:102544000d4078002cff07001100200070052000ca
:10255400f6fe0700800478001a0020000900e0005d
:10256400130032001700370000006d0000f0a700d0
:102574000000ea000000e9004f00de00f080570090
:1025840038ff0700004c78000fb897000000e00007
:1025940002003a000804e80004003700e10f40009c
:1025a40007003200e20f4000050032000a05e8008f
:1025b4000e80fb00800f5500ebff34000100370054
:1025c40080047800fefe0700e18f440006003a0014
:1025d40000a0260081012000400307008b05e900cc
:1025e400cfff3a0003003700e28f440001003a00b5
:1025f400004ceb00090078004f0778004f06be003e
:102604004f05be004f04be004f00b100000006009d
:10261400e4874700889fbe008a9fbe008c9fbe004f
:102624008e1f780001047800824678000046780006
:10263400c805de00fa0020008000eb0070052000d1
:1026440095fe0700800478000900e00010003a00bd
:102654000b407800e8fe07000c407800e6fe070017
:10266400880078000007eb0005003700314078004f
:1026740081bf9f00e0fe07000e07e8008fb89700b7
:102684000d80fb00800f5700f8ff35000004440064
:10269400cbfe0700e18f440005003a0000a02600ad
:1026a400810120000d0307000a05e900e2ff3a005a
:1026b400090078004f0778004f06be004f05be00a2
:1026c4004f04be004f00b10000000600881f7800d0
:1026d4002628ef002828ef0090c2b3002ae8b700ac
:1026e40000802a00604188002e28ef0018c0b30043
:1026f4000840780081832000884878003068ef0023
:1027040034a8ef0036a8ef003268ef00d1c1b3005f
:10271400f1fb070003c4b300228c20008040eb00cf
:102724000840780002fc0700304188004f0478001c
:102734000000060012832000124178000281fb0091
:102744008001eb004a18dd00c610de008100700035
:102754004a10dd0022042400023b88000181fb00b2
:10276400920188000081eb000208bb001000fc000d
:1027740050052000303b8800a00a2000303b880030
:1027840061e7a80000000000000000006007e2000c
:10279400feff35000000060030002400003b8800e6
:1027a40021902000170037000081fb008001eb001e
:1027b400a4418000b54180000201520083815a0087
:1027c40093018800020078001108bb0011019000f9
:1027d4000288bb001000fc0050052000303b88003c
:1027e400a00a2000303b880061e7a8000000000038
:1027f400000000006007e200feff350032e8ed0053
:10280400e480400032c8bf00e7ff3a0061c7a90076
:102814000000060093018000910188000001780007
:102824001282ba00840078001200ba009301880072
:1028340000000600889fbe003048e2001e003a00f7
:10284400404180000000e000020032001000e0007f
:102854003b013500304180000000e00002003200fe
:102864001000e00036013500108c20001184200097
:1028740012902000d0687800820f5000fdff3a00cb
:1028840003c4b300228c20008040eb0010c0b300ce
:10289400a7fb07003041880010c0b30030e8b70040
:1028a40010882000118c20000068eb00810f50007c
:1028b400fdff3a0022013700208420001080fb0035
:1028c4008000eb0062005000e0805800e60f5000ea
:1028d400e08f58001a013e00006001000600370036
:1028e4004a0037005b00370065003700b20037004c
:1028f400b50037000901370020c0b300218820004b
:102904008048780082c3b300318820008248780070
:10291400418820008048780011c0b300508820000e
:1029240001487800608820000048eb00e1c1b30052
:102934007088200001487800808820000048eb005f
:10294400908820000048eb0000202e00f1ff2f00ab
:10295400624180007341800002004000838048008f
:10296400a288200000497800c801de00b288200057
:1029740003497800c288200001497800c808de00b5
:10298400d088200001487800e188200080c8eb004e
:1029940038c8bf0017003a0032c0b300824878003c
:1029a40082cfb300f188200082487800b2cab30015
:1029b400018920008248780011892000804878002d
:1029c400218920008048780082c0b300318920002a
:1029d400824878004189200080487800518920008d
:1029e4008048780061892000804878007089200040
:1029f40000c8eb00404180000000e000bf0032004e
:102a04001000e000ce003500bc0037003084200008
:102a14001004e00007003a00a0c2b3002ae8b7009f
:102a240083bf2a00634188002e28ef003868ef0036
:102a3400b800370090c2b3002ae8b70000802a002b
:102a4400604188002e28ef0010c0b30038e8b700ba
:102a5400b000370070c0b30031e8b700030037009e
:102a640034ff0700eefc07003168ec002ac8bf0001
:102a74003148e300faff360061c7a900a50037001a
:102a8400a0418000b1418000e10f4000e08f480088
:102a94000e003a00328420001281fb00438420009f
:102aa4009381fb00c819dd000300710052842000eb
:102ab4001281fb00638420009381fb00c819dd00b0
:102ac40083007100a0418800b14188003284200055
:102ad4001281fb00438420009381fb00c819dd00b0
:102ae40003007100528420001281fb0063842000e3
:102af4009381fb00c819dd0083007100a2418000ae
:102b0400b34180000044eb00800f5100818f5900d5
:102b140080003a0022003700258320009542780087
:102b24000581fb00820141000882fb008203200032
:102b34000000510022002000110009000200d8000a
:102b44000000420064004000000040002284200095
:102b5400624278000482fb000000410010419000b2
:102b64004811dd00020172002090200002b07900bb
:102b74000540e80032e8b700a2418000b34180007c
:102b840061014100e0814900a2418800b34188000d
:102b9400fc4f500001003a00fffe07000844e80023
:102ba400708420001080fb008000d100814f54000d
:102bb400d9ff390057003700f7fe070034a8ef00ab
:102bc40036a8ef0053003700404180000000e000c9
:102bd400020032001000e0005900350071c0b3005b
:102be4002088200001487800328420001281fb00f4
:102bf400438420009381fb00c819dd0003007100a9
:102c0400528420001281fb00638420009381fb0026
:102c1400c819dd0083007100328820000049780063
:102c2400c801de0042882000034978005288200051
:102c340001497800c808de00608820000148780057
:102c44007184200070882000114878000044eb0053
:102c5400250037000881fb008001eb00348420004c
:102c64001482fb00458420009582fb00c82add0005
:102c740005007200548420001482fb006584200047
:102c84009582fb00c82add00850072000200400026
:102c940083804800dffe07000883fb009982fb0065
:102ca4008502d100850353000702b0002488200068
:102cb4008783430087034200804b7800c804de000a
:102cc400994398008181fb00050053001002b00075
:102cd400000040000000420003487800c818de00ed
:102ce4001140980008c4e800798420001980fb0092
:102cf4000000d100804f5400d6ff390003c4b30054
:102d04002288200011c0b3000140780088fa07002f
:102d1400404188003068ef00090037009424ef0038
:102d24000000eb00000000000000e800e10f40009c
:102d3400fcff3a0083e0a900001e0400000000002c
:102d44004f04be00000006004095200010407800ab
:102d54007f406000e14f50004e003a008095200013
:102d64001004e0004b003a005095200061c0b3000d
:102d740090cf100017003a007095200010407800a2
:102d840011c2b300814f50000400320021c2b300cd
:102d9400814f50000f003a000700370008c8bf00f9
:102da400e14f50000b003a00e05d2800104a880013
:102db400900020000300370040652800104a880076
:102dc400d0012000304a880001ccb3004094200098
:102dd400014878004095200002c6b300904061008d
:102de40000c2b30080cf50002a003a005095200062
:102df40010407800e34f50001700320003003e00fb
:102e0400e24f500023003a0005003700ea4f50001b
:102e140009003200eb4f50001e003a001600370044
:102e2400e0832000104a880010002000304a880007
:102e340011ccb3000d00370001c8b300409420004a
:102e4400014878007095200010417800e18320004b
:102e54008248780000000600f0832000104a8800b1
:102e640010002000304a880011c8b30040942000ac
:102e7400014878000000060001c8b3004094200017
:102e8400014878006095200010417800f18320000b
:102e94008248780000000600c4e2a900cc82a900a0
:102ea400d482a800d4a2a800d4c2a800d462a800e6
:102eb400c502a900cdc2a900cde2a900c522a8007f
:102ec40000000600d482a900006420000100200054
:102ed40002010700d4a2a900006420000100200020
:102ee400fe000700d4c2a90000402d000103200009
:102ef400fa000700c4e2a80000e823000100200053
:102f0400f6000700d462a90000d0270001002000c9
:102f1400f2000700cc82a80000802900a103200051
:102f2400ee003700c502a900cc82a900d462a80033
:102f3400c4e2a90000a0260081012000e7000700e8
:102f4400d4c2a800d4a2a800d482a800000006001d
:102f5400cc82a8000070270011002000df000700c9
:102f6400cc82a90000d0270001002000db0007006c
:102f7400cc82a8000070270011002000d700370081
:102f8400cc82a8000010270021002000d3000700f5
:102f9400cc82a9000030250071002000cf0007007a
:102fa400cc82a80000f0290041022000cb003700a9
:102fb400c4e2a80000d0270001002000c7000700d9
:102fc400c4e2a900001e200001002000c300070085
:102fd400c4e2a80000d0270001002000bf00370091
:102fe400c422ef00cc22ef00d422ef007041200075
:102ff40000168800f0fa20004016880040102000d7
:10300400801688006820ef006a20ef00c622ef00d7
:10301400ce22ef0010002000b0168800c09f2000d0
:1030240060198800f00b20004207b60063042000fa
:1030340074052000217420008348780084487800b7
:1030440080487800f00f2e000134800001016000f8
:10305400012021008280700001348800b236800093
:103064008200600001b0a000b1368800653680009f
:1030740005016000014021008280700061368800f3
:1030840081368000010160000130210082807000df
:103094008136880001fe2f004535800005816000df
:1030a4008201b3004235880082368000828060004d
:1030b4002101b30081368800d806b60001702000d3
:1030c40080807000c1368800103a80000060a00043
:1030d4002174200083487800844878008048780070
:1030e400000006000200fa0083e0a800bcff07000d
:1030f40069ff070073ff07002c000700600007004a
:10310400ddfb07000030250071002000730007007c
:1031140022c0b3008f80e900e0002000f6fc070025
:103124000000eb00eff897000104e00005003a000e
:103134007ff8970000c0ea000080fb000000e9006f
:103144004f00de000000e00006003a00003a800074
:103154003008b2000300320083e0a900001e04001e
:103164000000000009f907002dfb07003040800033
:10317400ff0f5000fcff36008824ab00faff3a0032
:10318400acfd0700f8ff3700e10f500003003200e8
:10319400e30f500004003a00020037004bfd070023
:1031a40001003700e8fe070010000500f18f2f0032
:1031b40072068000028060000080a0007006880013
:1031c40080ff2f0023058000030160000200a0009f
:1031d4002205880073058000030160000200a0003e
:1031e40072058800f2f82f00630580000301610076
:1031f4000240a00062058800e20580008280600031
:103204000180a000e1058800b200b6000000a00023
:0832140090058800000006008f
:020000040000fa
:10321c003a08000004000000000000004209000011
:10322c002200000000000000000800002600000042
:10323c0000000000000a0000200000000000000058
:10324c003e080000020000000000000042080000e0
:10325c00000100000000000026080000140000001f
:10326c000000000040080000020000000200000006
:08327c00010000000000000049
:020000040000fa
:1032840000122300203a88004827ef004e27ef0061
:103294007027ef007227ef007427ef007627ef0006
:1032a400a109200032002000800720003374200090
:1032b40080497800814978008249780071052000ae
:1032c4000001eb0060042000237420008049780092
:0c32d40081497800824978000000060063
:020000040000fa
:1032e000f03fb1000180b10006003500ee03090097
:1032f00000000000403fb1000180b100fbff3d0035
:103300001000b000203fb00002003500008009002e
:083310000000000000000600af
:020000040000fa
:08331800daff37000000060097
:020000040000fa
:103c00000004040000000000e004040000000000c4
:103c1000e004040000000000e004040000000000d4
:103c2000e004040000000000e004040000000000c4
:103c3000e004040000000000e004040000000000b4
:103c4000e004040000000000e004040000000000a4
:103c5000e004040000000000e00404000000000094
:103c6000e004040000000000e00404000000000084
:103c7000e004040000000000e00404000000000074
:103c8000e004040000000000e00404000000000064
:103c9000e004040000000000e00404000000000054
:103ca000c804040000000000e0040400000000005c
:103cb000e004040000000000e00404000000000034
:103cc000e004040000000000e00404000000000024
:103cd000e004040000000000e00404000000000014
:103ce000e004040000000000e00404000000000004
:103cf000e004040000000000e004040000000000f4
:103d0000e004040000000000e004040000000000e3
:103d1000e004040000000000e004040000000000d3
:103d2000e004040000000000e004040000000000c3
:103d3000e004040000000000e004040000000000b3
:103d4000e004040000000000e004040000000000a3
:103d5000e004040000000000e00404000000000093
:103d6000e004040000000000e00404000000000083
:103d7000e004040000000000e00404000000000073
:020000040000fa
:020000040001f9
:0457f000ffff0000b7
:020000040000fa
:020000040001f9
:0457f400fffc0000b6
:020000040000fa
:020000040001f9
:0457f800bd9b000055
:020000040000fa
:020000040001f9
:0457fc007f3f0000eb
:00000001FF
