:020000040000fa
:08000000c01e04000000000016
:020000040000fa
:10000800041e0000081e00000c1e0000101e000048
:10001800141e0000bc1e0000bc1e0000bc1e000018
:10002800181e00001c1e0000201e0000241e0000d8
:10003800bc1e0000281e00002c1e0000301e000000
:10004800341e0000381e00003c1e0000401e000048
:10005800441e0000481e0000bc1e0000bc1e00001c
:100068004c1e0000501e0000541e0000581e0000c8
:100078005c1e0000bc1e0000bc1e0000bc1e000070
:10008800bc1e0000601e0000641e0000681e000008
:100098006c1e0000701e0000741e0000781e000018
:1000a8007c1e0000801e0000bc1e0000bc1e00005c
:1000b800bc1e0000841e0000881e00008c1e00006c
:1000c800bc1e0000901e0000bc1e0000bc1e0000ec
:1000d800bc1e0000941e0000bc1e0000bc1e0000d8
:1000e800bc1e0000981e00009c1e0000bc1e0000e4
:1000f800bc1e0000bc1e0000bc1e0000bc1e000090
:10010800bc1e0000bc1e0000bc1e0000bc1e00007f
:10011800bc1e0000bc1e0000a01e0000bc1e00008b
:10012800bc1e0000a41e0000a81e0000ac1e00009b
:10013800bc1e0000bc1e0000bc1e0000bc1e00004f
:10014800b01e0000bc1e0000bc1e0000bc1e00004b
:10015800bc1e0000b41e0000bc1e0000bc1e000037
:10016800bc1e0000bc1e0000bc1e0000bc1e00001f
:10017800bc1e0000bc1e0000b81e0000bc1e000013
:10018800bc1e0000bc1e0000bc1e0000bc1e0000ff
:10019800bc1e0000bc1e0000bc1e0000bc1e0000ef
:1001a800bc1e0000bc1e0000bc1e0000bc1e0000df
:1001b800bc1e0000bc1e0000bc1e0000bc1e0000cf
:1001c800bc1e0000bc1e0000bc1e0000bc1e0000bf
:1001d800bc1e0000bc1e0000bc1e0000bc1e0000af
:1001e800bc1e0000bc1e0000bc1e0000bc1e00009f
:0801f800bc1e0000bc1e00004b
:020000040000fa
:04020800c220000010
:020000040000fa
:04020c00c22000000c
:020000040000fa
:04021000c220000008
:020000040000fa
:04021400c220000004
:020000040000fa
:04021800c220000000
:020000040000fa
:04021c00c2200000fc
:020000040000fa
:04022000c2200000f8
:020000040000fa
:04022400c2200000f4
:020000040000fa
:04022800c2200000f0
:020000040000fa
:04022c00c2200000ec
:020000040000fa
:04023000c2200000e8
:020000040000fa
:04023400c2200000e4
:020000040000fa
:04023800c2200000e0
:020000040000fa
:04023c00c2200000dc
:020000040000fa
:04024000c2200000d8
:020000040000fa
:04024400c2200000d4
:020000040000fa
:04024800c2200000d0
:020000040000fa
:04024c00c2200000cc
:020000040000fa
:04025000c2200000c8
:020000040000fa
:04025400c2200000c4
:020000040000fa
:04025800c2200000c0
:020000040000fa
:04025c00c2200000bc
:020000040000fa
:04026000c2200000b8
:020000040000fa
:04026400c2200000b4
:020000040000fa
:04026800c2200000b0
:020000040000fa
:04026c00c2200000ac
:020000040000fa
:04027000c2200000a8
:020000040000fa
:04027400c2200000a4
:020000040000fa
:04027800c2200000a0
:020000040000fa
:04027c00c22000009c
:020000040000fa
:04028000c220000098
:020000040000fa
:04028400c220000094
:020000040000fa
:04028800c220000090
:020000040000fa
:04028c00c22000008c
:020000040000fa
:04029000c220000088
:020000040000fa
:04029400c220000084
:020000040000fa
:04029800c220000080
:020000040000fa
:04029c00c22000007c
:020000040000fa
:0402a000c220000078
:020000040000fa
:0402a400c220000074
:020000040000fa
:0402a800c220000070
:020000040000fa
:0402ac00c22000006c
:020000040000fa
:0402b000c220000068
:020000040000fa
:0402b400c220000064
:020000040000fa
:0402b800c220000060
:020000040000fa
:0402bc00c22000005c
:020000040000fa
:0402c000c220000058
:020000040000fa
:0402c400c220000054
:020000040000fa
:0402c800c220000050
:020000040000fa
:0402cc00c22000004c
:020000040000fa
:0402d000c220000048
:020000040000fa
:0402d400c220000044
:020000040000fa
:0402d800c220000040
:020000040000fa
:0402dc00c22000003c
:020000040000fa
:0402e000c220000038
:020000040000fa
:0402e400c220000034
:020000040000fa
:0402e800c220000030
:020000040000fa
:0402ec00c22000002c
:020000040000fa
:0402f000c220000028
:020000040000fa
:0402f400c220000024
:020000040000fa
:0402f800c220000020
:020000040000fa
:0402fc00c22000001c
:020000040000fa
:04030000c220000017
:020000040000fa
:04030400c220000013
:020000040000fa
:04030800c22000000f
:020000040000fa
:04030c00c22000000b
:020000040000fa
:04031000c220000007
:020000040000fa
:04031400c220000003
:020000040000fa
:04031800c2200000ff
:020000040000fa
:04031c00c2200000fb
:020000040000fa
:04032000c2200000f7
:020000040000fa
:04032400c2200000f3
:020000040000fa
:04032800c2200000ef
:020000040000fa
:04032c00c2200000eb
:020000040000fa
:04033000c2200000e7
:020000040000fa
:04033400c2200000e3
:020000040000fa
:04033800c2200000df
:020000040000fa
:04033c00c2200000db
:020000040000fa
:04034000c2200000d7
:020000040000fa
:04034400c2200000d3
:020000040000fa
:04034800c2200000cf
:020000040000fa
:04034c00c2200000cb
:020000040000fa
:04035000c2200000c7
:020000040000fa
:04035400c2200000c3
:020000040000fa
:04035800c2200000bf
:020000040000fa
:04035c00c2200000bb
:020000040000fa
:04036000c2200000b7
:020000040000fa
:04036400c2200000b3
:020000040000fa
:04036800c2200000af
:020000040000fa
:04036c00c2200000ab
:020000040000fa
:04037000c2200000a7
:020000040000fa
:04037400c2200000a3
:020000040000fa
:04037800c22000009f
:020000040000fa
:04037c00c22000009b
:020000040000fa
:04038000c220000097
:020000040000fa
:103c0000c01e040000000000c220040000000000ec
:103c1000cc1f040000000000de1f040000000000b4
:103c2000d41f040000000000e61f04000000000094
:103c3000901f040000000000c220040000000000eb
:103c4000c220040000000000c220040000000000a8
:103c5000c220040000000000c22004000000000098
:103c60008c20040000000000c220040000000000be
:103c7000c220040000000000c22004000000000078
:103c8000c220040000000000c22004000000000068
:103c9000c220040000000000c22004000000000058
:103ca0002420040000000000c220040000000000e6
:103cb000c220040000000000ae1f0400000000004d
:103cc000c220040000000000c22004000000000028
:103cd000c220040000000000ee1f040000000000ed
:103ce000c220040000000000c22004000000000008
:103cf000c220040000000000c220040000000000f8
:103d0000c220040000000000c220040000000000e7
:103d1000c220040000000000c220040000000000d7
:103d2000c220040000000000c220040000000000c7
:103d3000c220040000000000462004000000000033
:103d4000c220040000000000c220040000000000a7
:103d5000c220040000000000c22004000000000097
:103d6000c220040000000000c22004000000000087
:103d70006820040000000000c220040000000000d1
:020000040000fa
:103d80000fa220000e7f22000e018800000000001c
:103d9000000020000000e0000200320000012000ce
:103da0002002880014000700f80007000000e0006f
:103db00003003a00e0ba29000100200002003700a9
:103dc0000000200001002000810f7000010032007f
:103dd00014000700000020000000e0000200320094
:103de0000000020000000000d08802000000000077
:103df0000040da000000fe004440a900a00c2000b2
:103e00000000e0000300320000002000a001880054
:103e10004440a800000006008a1f78008b1f78002d
:103e20000000060091018800800478000000eb008b
:103e30001a003700e284440032a0b4009905ba00a9
:103e4000e284440032a0b4009906ba00e28444003f
:103e500032a0b4000006eb00476fde00fd07b200a1
:103e6000636ce10003003a00ebff07000000eb0089
:103e70000a003700606ce10004003a00005deb00ce
:103e80008b05e900fdff3e00040037006168e1009a
:103e9000010032000086eb000b00070019c7ba00d2
:103ea0001905ba000e04e00003003a000a00e00021
:103eb000e0ff3a0000000600fe07b2009e01880005
:103ec0008a047800f5ff3700395dba008b05e900f8
:103ed0000c003200295dba008b05e90008003200b1
:103ee0000c00e00003003a00e284440032a0b40079
:103ef000f5ff370019ddba008b05e900faff3a003b
:103f00008904e800e184440032a0b4000000060007
:103f100000000000000000000000000000000000a1
:103f20003600f800809fbe00829fbe00849fbe00c6
:103f3000869fbe000000fa000f3f07008400a90022
:103f40000080fa004f03be004f02be004f01be00ca
:103f50004f00be003600f900004006003600f800b1
:103f6000809fbe00829fbe00849fbe00869fbe00d1
:103f70000000fa00053f07008680a9000080fa00d3
:103f80004f03be004f02be004f01be004f00be00f7
:103f90003600f900004006003600f8008020a90035
:103fa0000000eb00223f07003600f800243f070026
:103fb0008040a900100020001d3f07003600f800d7
:103fc0008060a90020002000193f07003600f8009b
:103fd0008080a90030002000153f07003600f8005f
:103fe000809fbe00829fbe00849fbe00869fbe0051
:103ff0000000fa00b04380000000e0000200320040
:10400000b043800000000100d09b200010407800e9
:104010008040e800d09b200001487800c09b200031
:1040200011c0b300014878008780a9000080fa0021
:104030004f03be004f02be004f01be004f00be0046
:104040003600f90000400600809fbe000000fa0024
:10405000c0438000e10f500001003a007828ef00d3
:104060004110800000402000008060000000e0005f
:104070000200320010002000d04388008620a900f2
:104080000080fa004f00be0000400600809fbe0086
:104090000000fa00e0438000e10f500001003a0008
:1040a0007c28ef00c11080000040200000806000ec
:1040b0000000e0000200320010002000f043880001
:1040c0008a40a9000080fa004f00be0000400600b0
:1040d0003600f800809fbe00829fbe00849fbe0015
:1040e000869fbe003400f80000002000a001880078
:1040f0000000fa00052307000080fa003400f900f0
:104100004f03be004f02be004f01be004f00be0075
:104110003600f900004006003600f800809fbe001f
:10412000829fbe00849fbe00869fbe000000fa00f2
:10413000904480000000e0000200320090448000c3
:1041400000000100f09b2000104078008040e80053
:10415000f09b200001487800e09b200011c0b300d4
:104160000148780084e0a9000080fa004f03be00f7
:104170004f02be004f01be004f00be003600f900e6
:10418000004006000040da000000fe0000000500cc
:10419000839f68000100e00002003d006000100005
:1041a000e08018000300e00002003d006001110003
:1041b000e08119003e0007004f00e00002003b00d4
:1041c00060001000e0801800000006000001be0042
:1041d000220007000470a70003f0a1006509b100e8
:1041e000160032000d0035006828e1000600350099
:1041f000f0ff2f00f1ff27000300e00013003b0059
:1042000001002800000005000000400081804800f7
:104210008502e900fcff3a0008003700f88f4200f1
:1042200002003c008000eb00000005008100d1008e
:104230000080d3008502e800fcff3a000300e000a4
:1042400002003b0060001000e08018000000060043
:104250004f89de008201780027013700c70ade009f
:10426000f107b200f50fb20008003200e1cf4200c2
:10427000020032000170a00024000500810f7000d0
:10428000010032000408050044000500810f7000a1
:1042900002003a00140005008502e9000000400019
:1042a00081c04800fcff3b000170a0002400050015
:1042b0006022b800060220000000d0008180d200f9
:1042c0000482d2008582d2000000a00002025200c7
:1042d00083825a00030031000202420083824a00b6
:1042e0000000a1000603e900f3ff3a000000060009
:1042f000038368000700280007036300470ade0005
:104300000480a100c71ade000580a100f70f20007d
:104310000720e100420032000728e100400032009f
:10432000889fbe008a9fbe008c1f7800f107b200f4
:10433000f307b2000400e000640032000170a00046
:104340000500e000680032000370a000850542000f
:10435000eb07b1000204b8000302b80084844400f3
:1043600060854a00020ab800848444000a854a0035
:10437000030ab80004054500040033000804d00017
:104380008984d2000a85d2008b05e9006158e100da
:104390003d003500021020000901610003082000e3
:1043a00089816100f7072000878364000886730015
:1043b000c84cde00c853dd00878474004855de0019
:1043c0000300e000060032008203760004003200a1
:1043d0008904e80060054d000a88a3000c003a003b
:1043e000f70f20000758e10044003d000a70a100cb
:1043f000c75ddd000a8575008a007300090078003a
:104400004f0678004f05be004f04be0000000600b6
:104410000a05d1008984d3008b05e800f0ff37003e
:10442000881f7800060478009000070007027800d3
:104430000001fd008101fd008c000700870278006b
:10444000850372000778a300050032000001fd001b
:104450008101fd009f0007004f0478000000060066
:10446000850372000748a30003003200f0ff2f000d
:10447000f1ff2700f8ff37000000200001f82700b7
:1044800088807000f4ff3700880178004848dd001c
:10449000808171004848de00c850dd0001007000d6
:1044a000c850de00060478000b01780016000700f3
:1044b00088807000d2ff37000500e0000500320060
:1044c000170020003a0007009dff370081037000ad
:1044d000f9ff3a00860078004f0678004f05be00cd
:1044e0004f04be000000050083037100f9ff320095
:1044f000270020002e00070094ff370001f8270056
:1045000086807000f4ff37000100e00026003200d2
:10451000610111007810e10023003c006022b80026
:104520007010e1000400350080027800010078007e
:104530008000eb00700151000200e000090034002f
:1045400070031100062add00822ade008603dd00ea
:10455000878272000200de00860bdd00070070001b
:104560008208de0084817100f4ff2700048262006b
:10457000848171000400280084826200610260006e
:1045800005f0a6000000060004827100070032005a
:104590000000e800e0804800000006000002be00c5
:1045a0006000b800efff37006000b80000000600b0
:1045b000889fbe000004eb006138e10016003a005d
:1045c0000100e00008003a00c800de004800dd00fd
:1045d000880020000100e00003003a00c800de006f
:1045e0004800dd00680444008184cf00e984540061
:1045f000060034008908dd00f08314008703de0024
:10460000878070000900dd00090444006102140085
:104610004f04be00000006000300e00008003a005e
:10462000c811de004811dd00880020000300e00012
:1046300003003a00c811de004811dd0068044400a0
:104640008384cf00e9845400060034008919dd001a
:10465000f08314008713de00878171000911dd00eb
:1046600009044400e1021400e9ff3700270020009c
:1046700001f0a70017002000470bde00f60fb20084
:10468000040032000643e8000a0032004702b3008b
:104690000000060001037800f607b2000603700070
:1046a00002003a000703b300000006008702b300cf
:1046b0000000060001037800f607b2000603700050
:1046c000020032000770a000000006000760a00092
:1046d000000006000478a300040032000578a3005f
:1046e000030032000168a30001003a000200be008e
:1046f0000160a00000000600881f78000304780015
:104700000300e00007003d0060001000e08018009a
:1047100060011900e081190002003b0001f02d004a
:10472000030037000400070008f0a70001f0a00014
:104730004f04780000000600889fbe008a9fbe00dc
:1047400000827000040271000482710026003200b1
:104750000004be000200be006011b8006b0920001a
:10476000950220000182cf000a0039000541b10006
:104770000082cf00070039000541b1000982cf0057
:10478000040039000541b1000882cf000100390062
:104790000541b10005425200120032000a003b0000
:1047a00082817100610164008100d1000080d3002a
:1047b0008984d3000884d3008b05e8000442e80014
:1047c000f7ff3a00070037000804440089844c00d2
:1047d00000004800818048008b05e9000442e900a0
:1047e000f9ff3a00030007004f05be004f04be006a
:1047f0000000060081002000618055000b003d0094
:104800000b00200061fe2f000100e1001d003400bc
:1048100082817100610164008904d1000884d300a1
:104820000000e800faff3a00710020006100640017
:1048300003007000020060000900320061044400bf
:10484000e0844c000988a500050032008b05e800d3
:104850006808e10002003a008904d1000884d3000e
:10486000f20f20000258e10005003d00c75ddd00a9
:10487000f907b20089807500080078000000060082
:104880000bf827008b0078000000050080017800fd
:1048900002003700b15978000201e9000200e0008f
:1048a000fcff3a0000000600889fbe008a9fbe0001
:1048b000800478000200e0005b00320001407800d4
:1048c000814c780082814400f1f99f00e20f510091
:1048d0005500360091449800a1449800e1f99f00ea
:1048e000d1f99f00e60f51004f003600b144980007
:1048f000c1f99f00e80f51004b0036000905ea009e
:10490000630565000a8444000a055100c1ff2f00b9
:10491000010565000080fb008000eb001210200004
:104920001310200044000700008cbe000a01440060
:1049300060b99f0071b99f00e80f55003a0036003a
:104940002004980031049800400498005104980015
:1049500020b99f0031b99f0040b99f0051b99f0015
:10496000f80f55003000360060049800710498007c
:10497000000c9800110c9800200c9800310c980045
:10498000400c9800510c980020b19f0031b19f005d
:1049900040b19f0051b19f0060b19f0071b19f0075
:1049a00000b99f0011b99f006401640078014100c3
:1049b00002044400020555006011b8000203be0065
:1049c0000002be000403be006022b80000007200b6
:1049d0008180720002017300838173001000370030
:1049e000009cbe000294be00400498005104980050
:1049f0006204980073049800000c9800110c980051
:104a0000220c9800330c9800400c9800510c980030
:104a1000620c9800730c98000a02b1000802b00002
:104a2000ff0f5500eeff3e00090078004f05be0065
:104a30004f04be0000000600020ab900001bb900c6
:104a40000200b8008100420081004300000006001f
:020000040000fa
:104a50001201000000020000000000000008000039
:104a6000d80400003f000000000100000102000027
:104a700000010000090200002900000001010000ff
:104a800000c0000032090000040000000002000025
:104a900003000000000000000921000011010000d7
:104aa00000010000221d0000000700000581000039
:104ab00003400000000100000705000001030000a2
:104ac0004000000001000000040300000904000091
:104ad000340300004d000000690000006300000086
:104ae000720000006f00000063000000680000001a
:104af0006900000070000000200000005400000069
:104b00006500000063000000680000006e00000007
:104b10006f0000006c0000006f00000067000000e4
:104b20007900000020000000490000006e00000035
:104b3000630000002e0000002e0300005300000060
:104b4000690000006d000000700000006c000000b3
:104b5000650000002000000048000000490000003f
:104b60004400000020000000440000006500000038
:104b7000760000006900000063000000650000008e
:104b80002000000044000000650000006d000000ef
:104b90006f00000006000000ff09000001a10000f6
:104ba0000119000001290000401500000026000046
:104bb000ff00000075080000954000008100000023
:104bc000190100002940000091000000c000000011
:104bd0003aa5000064a5000068a500009ca500009f
:044be0004206000089
:020000040000fa
:104be4000000fa004100200040002000ac2d070026
:104bf40001f0230020002000a92d07008000eb0015
:104c040020002000a62d07008000eb00600020009b
:104c1400a32d0700f1f3200060012000a02d070060
:104c240080c0eb00205028008f2d070080c0eb00cf
:104c3400b05028008c2d0700f1f320004001200023
:104c4400972d0700e1cfb30020512800862d0700df
:104c540080c0eb0040512800832d070080c0eb008a
:104c640050512800802d070080c0eb0060512800bf
:104c74007d2d070031c0b300004128007a2d0700c4
:104c8400f1c3b30030412800772d070061c0b300a1
:104c940000422800742d070011c3b300004f280000
:104ca400712d070011c0b300404f28006e2d07007e
:104cb400012c210000542800792d07008040eb00ce
:104cc40000632800682d0700317520001063280058
:104cd400732d070021c0b30000672800622d070070
:104ce400012c2100c0a028006d2d070011c0b300c5
:104cf400005e28005c2d070001102000305e2800b3
:104d0400672d07008040eb0000c02800562d0700e7
:104d140080c0eb0010c02800532d070080c0eb00ba
:104d240020c02800502d070080c0eb0030c02800b0
:104d34004d2d070080c0eb0040c028004a2d07001d
:104d440080c0eb0050c02800472d070080c0eb0056
:104d540060c02800442d07008040eb0070c028008c
:104d6400412d070021c5b30080c028003e2d070057
:104d740021c6b30090c028003b2d070011c0b3002a
:104d8400a0c02800382d07008040eb00b0c02800e8
:104d9400352d070011c0b300c0c02800322d070014
:104da4008040eb00d0c028002f2d07008040eb008e
:104db400e0c028002c2d07008040eb00f0c0280044
:104dc400292d0700c1c1b30000c12800262d07000a
:104dd400d1c1b30010c12800232d070011c0b300b6
:104de40020c12800202d070031c0b30030c12800a5
:104df4001d2d070001c8b30040c128001a2d07006b
:104e040061c0b30050c12800172d0700a1c0b30032
:104e140060c12800142d070081c7b30070c12800a9
:104e2400112d0700a1c0b30080c128000e2d07007a
:104e3400d1c0b30090c128000b2d070091ccb30062
:104e4400a0c12800082d070001cab300b0c1280082
:104e5400052d070071c5b300c0c12800022d07004d
:104e640071c4b300d0c12800ff2c070081c9b3006e
:104e7400e0c12800fc2c070071c2b300f0c1280077
:104e8400f92c070021c1b30000c22800f62c07004a
:104e940081c4b30010c22800f32c0700c1c4b300be
:104ea40020c22800f02c07008040eb0030c228000c
:104eb400ed2c07008040eb0040c22800ea2c0700dc
:104ec4008040eb0050c22800e72c070011c0b3005b
:104ed40060c22800e42c070011c0b30070c228008f
:104ee400e12c070011c0b30080c22800de2c0700ab
:104ef40011c0b30090c22800db2c070011c0b3001e
:104f0400a0c22800d82c070011c0b300b0c22800ea
:104f1400d52c070011c0b300c0c22800d22c070052
:104f240011c0b300d0c22800cf2c070011c0b300b9
:104f3400e0c22800cc2c070011c0b300f0c2280046
:104f4400c92c070011c0b30000c32800c62c0700f9
:104f540011c0b30010c32800c32c070011c0b30054
:104f640020c32800c02c070011c0b30030c32800a0
:104f7400bd2c070011c0b30040c32800ba2c0700a1
:104f840011c0b30050c32800b72c0700a1c4b3005c
:104f940060c32800b42c0700a1c1b30070c328006b
:104fa400b12c070001cdb30080c32800ae2c07004c
:104fb40001cbb30090c32800ab2c070001c2b3009f
:104fc400a0c32800a82c07008040eb00b0c3280031
:104fd400a52c0700c1c0b300c0c32800a22c070041
:104fe40001c5b300d0c328009f2c0700b1c5b3008e
:104ff400e0c328009c2c070001c2b300f0c32800c2
:10500400992c070031c6b30000c42800962c070071
:105014008040eb0010c42800932c0700d1c3b300d8
:1050240020c42800902c0700d1c6b30030c4280047
:105034008d2c07008040eb0040c428008a2c070018
:105044008040eb0050c42800872c07008040eb0010
:1050540060c42800842c070081c1b30070c42800f8
:10506400812c0700a1c4b30080c428007e2c070053
:10507400a1c1b30090c428007b2c070001cdb3006c
:10508400a0c42800782c070001cbb300b0c42800ca
:10509400752c070001c2b300c0c42800722c07009d
:1050a4008040eb00d0c428006f2c0700c1c0b300bf
:1050b400e0c428006c2c070001c5b300f0c428002c
:1050c400692c0700b1c5b30000c52800662c070091
:1050d40001c2b30010c52800632c070031c6b30019
:1050e40020c52800602c07008040eb0030c5280054
:1050f4005d2c0700d1c3b30040c528005a2c07001b
:10510400d1c6b30050c52800572c07008040eb00df
:1051140060c52800542c07008040eb0070c52800af
:10512400512c07008040eb0080c528004e2c07005e
:1051340081c1b30090c528004b2c07008040eb00d0
:10514400a0c52800482c07008040eb00b0c528000b
:10515400452c07008040eb00c0c52800422c070006
:10516400c1cfb300d0c528003f2c07008040eb001e
:10517400e0c528003c2c070031c4b300f0c528006a
:10518400392c0700f1c4b30000c62800362c0700f0
:10519400d1c4b30010c62800332c070051c3b30098
:1051a40020c62800302c070001c3b30030c62800f5
:1051b4002d2c070081c4b30040c628002a2c070008
:1051c40051c3b30050c62800272c0700e1c4b30024
:1051d40060c62800242c070001c3b30070c6280051
:1051e400212c070031c3b30080c628001e2c070001
:1051f40051c5b30090c628001b2c0700c1c4b300de
:10520400a0c62800182c070031c4b300b0c628007b
:10521400152c07008040eb00c0c62800122c0700a4
:105224008040eb00d0c628000f2c07008040eb0024
:10523400e0c628000c2c0700d1cfb300f0c628002c
:10524400092c07008040eb0000c72800062c07004b
:1052540061c3b30010c72800032c070021c4b300a6
:1052640020c72800002c070051c4b30030c7280011
:10527400fd2b0700b1c4b30040c72800fa2b070078
:1052840061c0b30050c72800f72b07008040eb0033
:1052940060c72800f42b0700a1c0b30070c7280022
:1052a400f12b070001c2b30080c72800ee2b0700d2
:1052b40001c2b30090c72800eb2b070001c2b30062
:1052c400a0c72800e82b070001c2b300b0c728001c
:1052d400e52b070001c2b300c0c72800e22b07007a
:1052e40001c2b300d0c72800df2b070011c0b300f0
:1052f400e0c72800dc2b070001c5b300f0c7280075
:10530400d92b070021c0b30000c82800d62b070002
:1053140031c0b30010c82800d32b0700a1c1b300cb
:1053240020c82800d02b070001ccb30030c82800c7
:10533400cd2b070071c4b30040c82800ca2b070056
:10534400d1c7b30050c82800c72b0700d1c7b3008a
:1053540060c82800c42b0700d1c7b30070c8280058
:10536400c12b0700d1c7b30080c82800be2b07009b
:10537400d1c7b30090c82800bb2b0700d1c7b30026
:10538400a0c82800b82b0700d1c7b300b0c82800b4
:10539400b52b070031c2b300c0c82800b22b0700e8
:1053a40081c0b300d0c82800af2b070071c0b30080
:1053b400e0c82800ac2b070011c0b300f0c82800d7
:1053c400a92b070031c8b30000c92800a62b070089
:1053d40011c0b30010c92800a32b07008040eb00c4
:1053e40020c92800a02b07008040eb0030c928000a
:1053f4009d2b070051c6b30040c928009a2b070013
:1054040031c0b30050c92800972b0700c1c0b300b6
:1054140060c92800942b07008040eb0070c9280065
:10542400912b070001c1b30080c928008e2b07000f
:105434008040eb0090c928008b2b0700a1c4b30067
:10544400a0c92800882b0700a1c1b300b0c9280057
:10545400852b070001cdb300c0c92800822b0700ab
:1054640001cbb300d0c928007f2b070001c2b300d1
:10547400e0c928007c2b07008040eb00f0c928001d
:10548400792b0700c1c0b30000ca2800762b07009f
:1054940001c5b30010ca2800732b0700b1c5b300bf
:1054a40020ca2800702b070001c2b30030ca2800ac
:1054b4006d2b070031c6b30040ca28006a2b0700d1
:1054c4008040eb0050ca2800672b0700d1c3b3000b
:1054d40060ca2800642b0700d1c6b30070ca280034
:1054e400612b07008040eb0080ca28005e2b070078
:1054f4008040eb0090ca28005b2b07008040eb0043
:10550400a0ca2800582b070081c1b300b0ca2800e4
:10551400552b0700a1c4b300c0ca2800522b0700b2
:10552400a1c1b300d0ca28004f2b070001cdb3009e
:10553400e0ca28004c2b070001cbb300f0ca2800b6
:10554400492b070001c2b30000cb2800462b0700fb
:105554008040eb0010cb2800432b0700c1c0b300f0
:1055640020cb2800402b070001c5b30030cb280016
:105574003d2b0700b1c5b30040cb28003a2b0700f0
:1055840001c2b30050cb2800372b070031c6b3004b
:1055940060cb2800342b07008040eb0070cb280040
:1055a400312b0700d1c3b30080cb28002e2b07007a
:1055b400d1c6b30090cb28002b2b07008040eb0012
:1055c400a0cb2800282b07008040eb00b0cb28009c
:1055d400252b07008040eb00c0cb2800222b0700be
:1055e40081c1b300d0cb28001f2b0700a1c4b30096
:1055f400e0cb28001c2b0700a1c1b300f0cb28008e
:10560400192b070001cdb30000cc2800162b07008e
:1056140001cbb30010cc2800132b070001c2b30048
:1056240020cc2800102b07008040eb0030cc280051
:105634000d2b0700c1c0b30040cc28000a2b070083
:1056440001c5b30050cc2800072b0700b1c5b30037
:1056540060cc2800042b070001c2b30070cc2800e2
:10566400012b070031c6b30080cc2800fe2a0700b6
:105674008040eb0090cc2800fb2a0700d1c3b30084
:10568400a0cc2800f82a0700d1c6b300b0cc28006b
:10569400f52a07008040eb00c0cc2800f22a07005e
:1056a4008040eb00d0cc2800ef2a07008040eb00bc
:1056b400e0cc2800ec2a070081c1b300f0cc28001c
:1056c400e92a0700a1c4b30000cd2800e62a070098
:1056d400a1c1b30010cd2800e32a070001cdb30017
:1056e40020cd2800e02a070001cbb30030cd2800ec
:1056f400dd2a070001c2b30040cd2800da2a0700e2
:105704008040eb0050cd2800d72a0700c1c0b30069
:1057140060cd2800d42a070001c5b30070cd28004d
:10572400d12a0700b1c5b30080cd2800ce2a0700d6
:1057340001c2b30090cd2800cb2a070031c6b300c4
:10574400a0cd2800c82a07008040eb00b0cd280077
:10575400c52a0700d1c3b300c0cd2800c22a070060
:10576400d1c6b300d0cd2800bf2a07008040eb008b
:10577400e0cd2800bc2a07008040eb00f0cd2800d3
:10578400b92a07008040eb0000ce2800b62a0700a3
:1057940081c1b30010ce2800b32a07008040eb007b
:1057a40020ce2800b02a07008040eb0030ce28002d
:1057b400ad2a07008040eb0040ce2800aa2a07004b
:1057c4008040eb0050ce2800a72a07008040eb0061
:1057d40060ce2800a42a07008040eb0070ce280089
:1057e400a12a07008040eb0080ce28009e2a0700f3
:1057f4008040eb0090ce28009b2a07008040eb00fd
:10580400a0ce2800982a07008040eb00b0ce2800e4
:10581400952a07008040eb00c0ce2800922a07009a
:105824008040eb00d0ce28008f2a07008040eb0098
:10583400e0ce28008c2a07008040eb00f0ce280040
:10584400892a07008040eb0000cf2800862a070041
:105854008040eb0010cf2800832a07008040eb0033
:1058640020cf2800802a07008040eb0030cf28009a
:105874007d2a07008040eb0040cf28007a2a0700e9
:105884008040eb0050cf2800772a07008040eb00cf
:1058940060cf2800742a07008040eb0070cf2800f6
:1058a400712a07008040eb0080cf28006e2a070091
:1058b4008040eb0090cf28006b2a07008040eb006b
:1058c400a0cf2800682a07008040eb00b0cf280052
:1058d400652a07008040eb00c0cf2800622a070039
:1058e4008040eb00d0cf28005f2a07008040eb0007
:1058f400e0cf28005c2a070041c3b300f0cf2800a2
:10590400592a070021c0b30030542800562a070042
:1059140011c1b30040542800532a07008040eb0013
:1059240000602800502a070031cfb300206028000f
:105934004d2a070021c0b300306028004a2a07001e
:10594400c1c0b30040602800472a070051c0b3001b
:1059540060602800442a07008040eb007060280043
:10596400412a070021c0b300206528003e2a070011
:10597400a29b2400c3202000106728005b2a070094
:1059840092082b00131e200050672800572a070096
:105994008040eb0000682800332a07000080fa00ea
:1059a400000006000200fa000052280098290700af
:1059b400004f78000052280095290700004f780016
:1059c4000052280092290700004f78009e4078007a
:1059d40061cf6000f1d3200060012000302a07006d
:1059e40011002000200020002d2a07001e80fb004b
:1059f4000080fa00000006000a00fa008000eb00b4
:105a040020002000262a0700000a200001002000b0
:105a14006c3807004001200088290700000f780037
:105a2400a001200085290700204798002e409000ff
:105a34006140600030479800205028007429070016
:105a44004047980010c0b30040479800b050280069
:105a54006f29070050479800005228006c2907005e
:105a640060479800ee40900010c8b30000c060008a
:105a740060479800f1f3200060012000082a070025
:105a840080c0eb0020502800f729070080c0eb00fd
:105a9400b0502800f4290700f1f320004001200051
:105aa400ff2907003e4090000080fb00c200dd009b
:105ab4004e4090000080fb00000040008100700018
:105ac4006e4090000080fb000100700040079800c9
:105ad4004e0090000080fa00000006000000fa006a
:105ae400f1d3200060012000ed29070011c0b300ac
:105af400a0542800dc2907000080fa0000000600fa
:105b04000000fa0000402b00414c20002d38070013
:105b140041c1200040002000e129070001202100ac
:105b240020002000de2907008000eb002000200078
:105b3400db29070021c4b30020a02800ca290700dc
:105b4400120020000300200080102000e729070035
:105b54001200200003002000c0102000e3290700e9
:105b64001200200003002000002a2000df29070083
:105b74003242210003002000c02a2000db29070054
:105b840000e82300010020000e3807003200200046
:105b940003002000002a2000d4290700420120002d
:105ba4000300200080112000d0290700d22b2100ff
:105bb4000300200000122000cc2907006011b80067
:105bc40040122000c9290700121020000300200001
:105bd40080122000c52907000200200013002000c5
:105be40000132000c1290700020025000300200043
:105bf40040132000bd2907000200200013002000ec
:105c040080132000b929070002002000130020009f
:105c1400c0132000b5290700020020001300200053
:105c240000142000b1290700020020001300200006
:105c340040142000ad2907000200210003002000c9
:105c440080142000a929070002002000130020006e
:105c5400c0142000a529070012142000030020000e
:105c640000152000a12907001200200003002000d5
:105c7400401520009d290700820c2000030020000d
:105c84008015200099290700a202200003002000ab
:105c94008016200095290700a22a20000300200076
:105ca40000172000912907000208200003002000ab
:105cb400c01720008d290700f200200003002000f7
:105cc400c018200089290700520520000300200085
:105cd40000192000852907006011b800401a20002f
:105ce400822907005201200003002000001c20002c
:105cf4007e2907006011b800402120007b2907009d
:105d04000208200003002000c0212000772907009a
:105d14006011b800402220007429070022002000ee
:105d240003002000402520007029070022002000e5
:105d340023012000802520006c2907002200200078
:105d440053002000c02520006829070032002000ed
:105d540033002000002620006429070082a32400c9
:105d64000300200040262000602907008200200054
:105d740003002000802620005c2907004200200048
:105d840053002000c02620005829070002022000ea
:105d9400030020000027200054290700f2012000fe
:105da4000300200040272000502907001200200093
:105db40023002000802720004c2907002200200017
:105dc40003002000c02720004829070012002000fb
:105dd40003002000c0112000442907008000eb00cc
:105de400005020002e29070062012000030020003b
:105df400001120003d29070062012000030020005b
:105e04000031200039290700e334070091032800fa
:105e1400405020002229070041002000405020006b
:105e24001f29070091fb2f00405020001c29070068
:105e34003148290040502000192907009103280007
:105e44004050200016290700110120004050200076
:105e54001329070011cb2700405020001029070008
:105e640001402200405020000d290700611020004d
:105e7400405020000a290700010121004050200061
:105e84000729070061e2220040502000042907008e
:105e9400d1d12100405020000129070071252100a3
:105ea40040502000fe28070011602e0040502000c2
:105eb400fb280700210e200040502000f82807008e
:105ec4009103280040502000f528070071002000ad
:105ed40040502000f2280700210b200040502000f1
:105ee400ef280700814c200040502000ec280700d8
:105ef4004100200040502000e928070061062000ee
:105f040040502000e62807005100200040502000a7
:105f1400e32807000102200040502000e028070089
:105f24005101200040502000dd28070061032000bb
:105f340040502000da280700510120004050200082
:105f4400d7280700a103270040502000d4280700c9
:105f54009103280040502000d1280700f1012000bf
:105f640040502000ce280700410b20004050200064
:105f7400cb2807004120230040502000c8280700f8
:105f84000101200040502000c52807002103210002
:105f940040502000c2280700012023004050200068
:105fa400bf2807000181200040502000bc280700c2
:105fb4007112200040502000b9280700313520001c
:105fc40040502000b62807007113200040502000e4
:105fd400b32807003115200040502000b0280700e6
:105fe4000103230040502000ad28070011102000b9
:105ff40040502000aa2807003114200040502000ff
:10600400a72807003114200040502000a4280700ce
:106014001116260040502000a1280700110020007e
:10602400405020009e280700910328004050200083
:106034009b280700510020004050200098280700aa
:10604400f16b20004050200095280700210021001a
:1060540040502000922807004100200040502000ba
:106064008f28070091032800405020008c28070047
:10607400510020004050200089280700710c2000a6
:1060840040502000862807000101200040502000d5
:1060940083280700010120004050200080280700c9
:1060a40091032800405020007d2807003100200083
:1060b400405020007a280700618c200040502000c6
:1060c4007728070081002000405020007428070032
:1060d400910328004050200071280700310020005f
:1060e400405020006e28070001cc200040502000c2
:1060f4006b28070051012000405020006828070049
:106104009103280040502000652807001102200058
:106114004050200062280700510d2000405020000c
:106124005f2807008000eb00405020005c28070037
:1061340001a0200040502000592807000110200031
:106144004050200056280700310320004050200012
:106154005328070001302300405020005028070036
:1061640001002100405020004d2807002143250054
:10617400405020004a2807006107210040502000b9
:1061840047280700218328004050200044280700a6
:106194008188280040502000412807008188280079
:1061a400405020003e2807008188280040502000ed
:1061b4003b28070091992900405020003828070007
:1061c40091492500405020003528070061872800a8
:1061d4004050200032280700810820004050200051
:1061e4002f28070091032800405020002c28070086
:1061f400010820004050200029280700111c20001d
:106204004050200026280700016020004050200054
:1062140023280700e16021004050200020280700c7
:10622400e1612200405020001d280700e1622300a4
:10623400405020001a280700e16324004050200049
:1062440017280700e16425004050200014280700a7
:10625400e16526004050200011280700e166270070
:10626400405020000e280700e1672800405020001d
:106274000b280700e1682900405020000828070087
:10628400e1692a004050200005280700e16a2b003c
:106294004050200002280700e16b2c0040502000f1
:1062a400ff270700e16c2d0040502000fc27070069
:1062b400e16d2e0040502000f9270700e16e2f0009
:1062c40040502000f6270700e10f20004050200036
:1062d400f32707008000eb0040502000f027070060
:1062e4008000eb0040502000ed2707008000eb0009
:1062f40040502000ea2707008000eb0040502000b7
:10630400e72707000130200040502000e427070061
:10631400b130210040502000e1270700b1312200b4
:1063240040502000de270700b132230040502000f7
:10633400db270700b133240040502000d827070092
:10634400b134250040502000d5270700b135260080
:1063540040502000d2270700b136270040502000cb
:10636400cf270700b137280040502000cc27070072
:10637400b138290040502000c9270700b1392a004c
:1063840040502000c6270700b13a2b00405020009f
:10639400c3270700b13b2c0040502000c027070052
:1063a400b13c2d0040502000bd270700b13d2e0018
:1063b40040502000ba270700b13e2f004050200073
:1063c400b7270700b10f200040502000b427070072
:1063d4008000eb0040502000b12707008000eb0054
:1063e40040502000ae2707008000eb004050200002
:1063f400ab2707008000eb0040502000a8270700cf
:106404008000eb0040502000a527070081002100f8
:1064140040502000a227070081e1210040502000c5
:106424009f27070061e22200405020009c270700bc
:1064340061e32300405020009927070061e4240011
:10644400405020009627070061e5250040502000b9
:106454009327070061e6260040502000902707009c
:1064640061e72700405020008d27070061e82800dd
:10647400405020008a27070061e92900405020008d
:106484008727070061ea2a0040502000842707007c
:1064940061eb2b00405020008127070061ec2c00a9
:1064a400405020007e27070061ed2d004050200061
:1064b4007b27070061de2e0040502000782707006c
:1064c400510f200040502000752707008000eb008a
:1064d40040502000722707008000eb00405020004d
:1064e4006f2707008000eb00405020006c27070056
:1064f4008000eb004050200069270700910328002a
:106504004050200066270700b102200040502000c0
:1065140063270700010e2000405020006027070079
:106524008000eb00405020005d27070021d12100ae
:10653400405020005a2707004133210040502000da
:1065440057270700a142200040502000542707008d
:10655400c1202100405020005127070061912100f3
:10656400405020004e270700616121004050200068
:106574004b270700e1102100405020004827070066
:106584008000eb00405020004527070001802100d7
:10659400405020004227070041f2230040502000d1
:1065a4003f27070061c12200405020003c2707001c
:1065b40041d020004050200039270700016121000c
:1065c4004050200036270700816121004050200000
:1065d40033270700610121004050200030270700c5
:1065e40011712000405020002d2707006161200018
:1065f400405020002a270700f1802000405020004e
:10660400272707006171200040502000242707003d
:106614000101200040502000212707009103280099
:10662400405020001e270700a100200040502000f9
:106634001b27070091fc200040502000182707006a
:1066440001e021004050200015270700e10120004f
:1066540040502000122707008000eb00405020002b
:106664000f27070011e02300405020000c270700eb
:1066740051012000405020000927070011f52f0088
:106684004050200006270700510120004050200000
:106694000327070031052000405020000027070091
:1066a4005101200040502000fd260700c17b20003e
:1066b40040502000fa260700008823001100200023
:1066c400403507005101200040502000f426070007
:1066d400c19c200040502000f126070000502300f8
:1066e400c100200037350700510120004050200030
:1066f400eb260700a13b200040502000e8260700bd
:106704005100200040502000e52607001101200020
:1067140040502000e226070000402d000103200025
:10672400283507005100200040502000dc260700d7
:106734009102200040502000d926070000c0270005
:10674400210920001f3507008000eb000000250010
:10675400d32607008000eb00c0002500d0260700e8
:10676400f12c2000e0002500cd2607008000eb007e
:1067740000082500ca2607008000eb00c008250099
:10678400c7260700f12c2000e0082500c4260700d6
:106794000108200000082700c12607000187200007
:1067a40080002500be260700018720008008250000
:1067b400bb26070080c0eb0020502800aa26070053
:1067c40080c0eb0030502800a726070080c0eb00f3
:1067d40040502800a426070080c0eb005050280039
:1067e400a126070080c0eb00605028009e26070009
:1067f40080c0eb00b05028009b260700f1f3200076
:1068040040012000a6260700f1d3200060012000eb
:10681400a326070051c3200040002000a026070043
:106824008000eb00600020009d260700620020002d
:106834000300200000112000ac26070062002000a5
:106844000300200000312000a82607000080fa0081
:10685400000006000000fa0041c1200040002000b2
:106864008f26070081002000600020008c2607008e
:106874000120210020002000892607008000eb0071
:1068840020002000862607008000eb006000200026
:1068940083260700910020000000270080260700bf
:1068a4001200200003002000801020008f26070023
:1068b4001200200003002000c01020008b260700d7
:1068c4001200200003002000002a20008726070071
:1068d4003242210003002000c02a20008326070042
:1068e40000e8230001002000b63407003200200035
:1068f40003002000002a20007c260700420120001b
:10690400030020008011200078260700d22b2100ec
:106914000300200000122000742607006011b80054
:1069240040122000712607001210200003002000ee
:10693400801220006d2607000200200013002000b2
:106944000013200069260700020025000300200030
:1069540040132000652607000200200013002000d9
:10696400801320006126070002002000130020008d
:10697400c01320005d260700020020001300200041
:1069840000142000592607000200200013002000f4
:1069940040142000552607000200210003002000b7
:1069a400801420005126070002002000130020005c
:1069b400c01420004d2607001214200003002000fc
:1069c40000152000492607001200200003002000c3
:1069d4004015200045260700820c200003002000fb
:1069e4008015200041260700a20220000300200099
:1069f400801620003d2607006229200003002000a5
:106a04000017200039260700020820000300200098
:106a1400c017200035260700f200200003002000e4
:106a2400c018200031260700520520000300200072
:106a3400001920002d2607006011b800401a20001c
:106a44002a2607005201200003002000001c200019
:106a5400262607006011b8004021200023260700e5
:106a64000208200003002000c02120001f26070088
:106a74006011b800402220001c26070022002000dc
:106a840003002000402520001826070022002000d3
:106a94002301200080252000142607002200200066
:106aa40053002000c02520001026070032002000db
:106ab40033002000002620000c26070082a32400b7
:106ac4000300200040262000082607008200200042
:106ad4000300200080262000042607004200200036
:106ae40053002000c02620000026070002022000d8
:106af4000300200000272000fc250700f2012000ed
:106b04000300200040272000f82507001200200081
:106b14002300200080272000f42507002200200005
:106b240003002000c0272000f025070012002000e9
:106b340003002000c0112000ec2507008000eb00ba
:106b440000502000d62507008000eb00000025003f
:106b5400d325070001002800c0002500d025070028
:106b64008000eb0000082500cd250700010220006d
:106b740080002700ca25070031002000a00027005c
:106b8400c725070001382000c0002700c4250700de
:106b9400c1502000e0002700c1250700012d20007e
:106ba40000012700be250700015020002001270016
:106bb400bb2507005105200040012700b825070028
:106bc4006100200060012700b52507007100200046
:106bd40000002700b225070051c320004000200018
:106be400af250700620020000300200000112000f0
:106bf400be250700620020000300200000312000b1
:106c0400ba25070041c1200040002000a425070048
:106c14008000eb0000002700a12507000080fa0097
:106c2400000006000000fa005b31070041c12000ab
:106c3400400020009a250700f1d3200060012000c5
:106c4400972507000080fa00000006000200fa0001
:106c5400000f780001ccb3000054280082250700ff
:106c640021c1b300105428007f25070001ccb300d4
:106c7400c0a028007c25070021c1b300d0a02800b3
:106c84007925070031c3b300305928007625070061
:106c940000a0260081012000ca33070050402800cc
:106ca400db2407009e007800804878001e0fe8006f
:106cb40060402800d62407009e00780080487800b1
:106cc4001e0fe800e0582800d12407009e00780039
:106cd400804878001e0fe800f0582800cc240700f4
:106ce4009e007800804878001e0fe80000582800b5
:106cf400c72407009e007800804878001e0fe80033
:106d040010582800c22407009e00780080487800ac
:106d14001e0fe80020582800bd2407009e007800bc
:106d2400804878001e0fe80030582800b824070077
:106d34009e007800804878001e0fe8000059280063
:106d4400b32407009e007800804878001e0fe800f6
:106d540010592800ae2407009e007800804878006f
:106d64001e0fe80040582800a92407009e00780060
:106d7400804878001e0fe80050582800a42407001b
:106d84009e007800804878001e0fe80060582800b4
:106d94009f2407009e007800804878001e0fe800ba
:106da400705828009a2407009e00780080487800d4
:106db4001e0fe800c0582800952407009e007800a4
:106dc400804878001e0fe800d0582800902407005f
:106dd4009e007800804878001e0fe800605228006a
:106de4008b2407009e007800804878000080fa0019
:106df400000006000000fa006201200003002000e9
:106e04000011200039250700620120000300200042
:106e14000031200035250700df30070091032800ea
:106e2400405020001e250700410020004050200053
:106e34001b25070091fb2f00405020001825070058
:106e440031482900405020001525070091032800ef
:106e5400405020001225070011012000405020005e
:106e64000f25070011cb2700405020000c250700f8
:106e74000140220040502000092507006110200035
:106e84004050200006250700010121004050200049
:106e94000325070061e2220040502000002507007e
:106ea400d1d1210040502000fd240700712521008c
:106eb40040502000fa24070011602e0040502000aa
:106ec400f7240700210e200040502000f42407007e
:106ed4009103280040502000f12407007100200095
:106ee40040502000ee240700210b200040502000d9
:106ef400eb240700814c200040502000e8240700c8
:106f04004100200040502000e524070061062000d5
:106f140040502000e224070051002000405020008f
:106f2400df2407000102200040502000dc24070079
:106f34005101200040502000d924070061032000a3
:106f440040502000d624070051012000405020006a
:106f5400d3240700a103270040502000d0240700b9
:106f64009103280040502000cd240700f1012000a7
:106f740040502000ca240700410b2000405020004c
:106f8400c72407004120230040502000c4240700e8
:106f94000101200040502000c124070021032100ea
:106fa40040502000be240700012023004050200050
:106fb400bb2407000181200040502000b8240700b2
:106fc4007112200040502000b52407003135200004
:106fd40040502000b22407007113200040502000cc
:106fe400af2407003115200040502000ac240700d6
:106ff4000103230040502000a924070011102000a1
:1070040040502000a62407003114200040502000e6
:10701400a32407003114200040502000a0240700be
:1070240011162600405020009d2407001100200066
:10703400405020009a24070091032800405020006b
:10704400972407005100200040502000942407009a
:10705400f16b200040502000912407002100210002
:10706400405020008e2407004100200040502000a2
:107074008b24070091032800405020008824070037
:10708400510020004050200085240700710c20008e
:1070940040502000822407000101200040502000bd
:1070a4007f24070001012000405020007c240700b9
:1070b400910328004050200079240700310020006b
:1070c4004050200076240700618c200040502000ae
:1070d4007324070081002000405020007024070022
:1070e40091032800405020006d2407003100200047
:1070f400405020006a24070001cc200040502000aa
:107104006724070051012000405020006424070038
:107114009103280040502000612407001102200040
:10712400405020005e240700510d200040502000f4
:107134005b2407008000eb00405020005824070027
:1071440001a0200040502000552407000110200019
:1071540040502000522407003103200040502000fa
:107164004f24070001302300405020004c24070026
:10717400010021004050200049240700214325003c
:1071840040502000462407006107210040502000a1
:107194004324070021832800405020004024070096
:1071a40081882800405020003d2407008188280061
:1071b400405020003a2407008188280040502000d5
:1071c40037240700919929004050200034240700f7
:1071d4009149250040502000312407006187280090
:1071e400405020002e240700810820004050200039
:1071f4002b24070091032800405020002824070076
:10720400010820004050200025240700111c200004
:10721400405020002224070001602000405020003c
:107224001f240700e1602100405020001c240700b7
:10723400e16122004050200019240700e16223008c
:107244004050200016240700e16324004050200031
:1072540013240700e1642500405020001024070097
:10726400e1652600405020000d240700e166270058
:10727400405020000a240700e16728004050200005
:1072840007240700e1682900405020000424070077
:10729400e1692a004050200001240700e16a2b0024
:1072a40040502000fe230700e16b2c0040502000da
:1072b400fb230700e16c2d0040502000f823070059
:1072c400e16d2e0040502000f5230700e16e2f00f1
:1072d40040502000f2230700e10f2000405020001e
:1072e400ef2307008000eb0040502000ec23070050
:1072f4008000eb0040502000e92307008000eb00f1
:1073040040502000e62307008000eb00405020009e
:10731400e32307000130200040502000e023070051
:10732400b130210040502000dd230700b13122009c
:1073340040502000da230700b132230040502000df
:10734400d7230700b133240040502000d423070082
:10735400b134250040502000d1230700b135260068
:1073640040502000ce230700b136270040502000b3
:10737400cb230700b137280040502000c823070062
:10738400b138290040502000c5230700b1392a0034
:1073940040502000c2230700b13a2b004050200087
:1073a400bf230700b13b2c0040502000bc23070042
:1073b400b13c2d0040502000b9230700b13d2e0000
:1073c40040502000b6230700b13e2f00405020005b
:1073d400b3230700b10f200040502000b023070062
:1073e4008000eb0040502000ad2307008000eb003c
:1073f40040502000aa2307008000eb0040502000ea
:10740400a72307008000eb0040502000a4230700be
:107414008000eb0040502000a123070081002100e0
:10742400405020009e23070081e1210040502000ad
:107434009b23070061e222004050200098230700ac
:1074440061e32300405020009523070061e42400f9
:10745400405020009223070061e5250040502000a1
:107464008f23070061e62600405020008c2307008c
:1074740061e72700405020008923070061e82800c5
:10748400405020008623070061e929004050200075
:107494008323070061ea2a0040502000802307006c
:1074a40061eb2b00405020007d23070061ec2c0091
:1074b400405020007a23070061ed2d004050200049
:1074c4007723070061de2e0040502000742307005c
:1074d400510f200040502000712307008000eb0072
:1074e400405020006e2307008000eb004050200035
:1074f4006b2307008000eb00405020006823070046
:107504008000eb0040502000652307009103280011
:107514004050200062230700b102200040502000a8
:107524005f230700010e2000405020005c23070069
:107534008000eb00405020005923070021d1210096
:1075440040502000562307004133210040502000c2
:1075540053230700a142200040502000502307007d
:10756400c1202100405020004d23070061912100db
:10757400405020004a230700616121004050200050
:1075840047230700e1102100405020004423070056
:107594008000eb00405020004123070001802100bf
:1075a400405020003e23070041f2230040502000b9
:1075b4003b23070061c1220040502000382307000c
:1075c40041d02000405020003523070001612100f4
:1075d40040502000322307008161210040502000e8
:1075e4002f23070061012100405020002c230700b5
:1075f4001171200040502000292307006161200000
:107604004050200026230700f18020004050200035
:10761400232307006171200040502000202307002d
:1076240001012000405020001d2307009103280081
:10763400405020001a230700a100200040502000e1
:107644001723070091fc200040502000142307005a
:1076540001e021004050200011230700e101200037
:10766400405020000e2307008000eb004050200013
:107674000b23070011e023004050200008230700db
:1076840051012000405020000523070011f52f0070
:1076940040502000022307005101200040502000e8
:1076a400ff2207003105200040502000fc22070083
:1076b4005101200040502000f9220700c17b200026
:1076c40040502000f622070000882300110020000b
:1076d4003c3107005101200040502000f0220700f7
:1076e400c19c200040502000ed22070000502300e0
:1076f400c100200033310700510120004050200018
:10770400e7220700a13b200040502000e4220700ac
:107714005100200040502000e12207001101200008
:1077240040502000de22070000402d00010320000d
:10773400243107005100200040502000d8220700c7
:107744009102200040502000d522070000c02700ed
:10775400210920001b3107000080fa000000060008
:107764000000fa004100200040002000cc22070065
:1077740001f0230020002000c92207008000eb0054
:1077840020002000c62207008000eb0060002000db
:10779400c3220700f1f3200060012000c02207008b
:1077a40080c0eb0020502800af22070080c0eb000f
:1077b400b0502800ac220700f1f320004001200063
:1077c400b7220700e1cfb30020512800a62207000a
:1077d40080c0eb0040512800a322070080c0eb00ca
:1077e40050512800a022070080c0eb0060512800ff
:1077f4009d22070031c0b300004128009a220700ef
:10780400f1c3b300304128009722070061c0b300e0
:10781400004228009422070011c3b300004f28003f
:107824009122070011c0b300404f28008e220700a8
:10783400012c210000542800992207008040eb000d
:107844000063280088220700317520001063280097
:107854009322070021c0b30000672800822207009a
:10786400012c2100c0a028008d22070011c0b30004
:10787400005e28007c22070001102000305e2800f2
:10788400872207008040eb0000c028007622070012
:1078940080c0eb0010c028007322070080c0eb00fa
:1078a40020c028007022070080c0eb0030c02800f0
:1078b4006d22070080c0eb0040c028006a22070048
:1078c40080c0eb0050c028006722070080c0eb0096
:1078d40060c02800642207008040eb0070c02800cc
:1078e4006122070021c5b30080c028005e22070082
:1078f40021c6b30090c028005b22070071c0b3000a
:10790400a0c02800582207008040eb00b0c0280027
:107914005522070071c0b300c0c0280052220700de
:107924008040eb00d0c028004f2207008040eb00cd
:10793400e0c028004c2207008040eb00f0c0280083
:1079440049220700c1c1b30000c128004622070034
:10795400d1c1b30010c128004322070011c0b300f5
:1079640020c128004022070031c0b30030c12800e4
:107974003d22070001c8b30040c128003a22070095
:1079840061c0b30050c1280037220700a1c0b30072
:1079940060c128003422070081c7b30070c12800e9
:1079a40031220700a1c0b30080c128002e220700a5
:1079b400d1c0b30090c128002b22070091ccb300a2
:1079c400a0c128002822070001cab300b0c12800c2
:1079d4002522070071c5b300c0c128002222070078
:1079e40071c4b300d0c128001f22070081c9b300ad
:1079f400e0c128001c22070071c2b300f0c12800b6
:107a04001922070021c1b30000c228001622070072
:107a140081c4b30010c2280013220700c1c4b300fc
:107a240020c22800102207008040eb0030c228004a
:107a34000d2207008040eb0040c228000a22070004
:107a44008040eb0050c228000722070011c0b30099
:107a540060c228000422070011c0b30070c22800cd
:107a64000122070011c0b30080c22800fe210700d4
:107a740011c0b30090c22800fb21070011c0b3005d
:107a8400a0c22800f821070011c0b300b0c228002a
:107a9400f521070011c0b300c0c22800f22107007d
:107aa40011c0b300d0c22800ef21070011c0b300f9
:107ab400e0c22800ec21070011c0b300f0c2280086
:107ac400e921070011c0b30000c32800e621070024
:107ad40011c0b30010c32800e321070011c0b30094
:107ae40020c32800e021070011c0b30030c32800e0
:107af400dd21070011c0b30040c32800da210700cc
:107b040011c0b30050c32800d7210700a1c4b3009b
:107b140060c32800d4210700a1c1b30070c32800aa
:107b2400d121070001cdb30080c32800ce21070076
:107b340001cbb30090c32800cb21070001c2b300de
:107b4400a0c32800c82107008040eb00b0c3280070
:107b5400c5210700c1c0b300c0c32800c22107006b
:107b640001c5b300d0c32800bf210700b1c5b300cd
:107b7400e0c32800bc21070001c2b300f0c3280001
:107b8400b921070031c6b30000c42800b62107009c
:107b94008040eb0010c42800b3210700d1c3b30018
:107ba40020c42800b0210700d1c6b30030c4280087
:107bb400ad2107008040eb0040c42800aa21070043
:107bc4008040eb0050c42800a72107008040eb0050
:107bd40060c42800a421070081c1b30070c4280038
:107be400a1210700a1c4b30080c428009e2107007e
:107bf400a1c1b30090c428009b21070001cdb300ac
:107c0400a0c428009821070001cbb300b0c4280009
:107c14009521070001c2b300c0c4280092210700c7
:107c24008040eb00d0c428008f210700c1c0b300fe
:107c3400e0c428008c21070001c5b300f0c428006b
:107c440089210700b1c5b30000c5280086210700bb
:107c540001c2b30010c528008321070031c6b30058
:107c640020c52800802107008040eb0030c5280093
:107c74007d210700d1c3b30040c528007a21070045
:107c8400d1c6b30050c52800772107008040eb001f
:107c940060c52800742107008040eb0070c52800ef
:107ca400712107008040eb0080c528006e21070089
:107cb40081c1b30090c528006b2107008040eb0010
:107cc400a0c52800682107008040eb00b0c528004b
:107cd400652107008040eb00c0c528006221070031
:107ce400c1cfb300d0c528005f2107008040eb005e
:107cf400e0c528005c21070041c5b300f0c5280099
:107d040059210700f1c6b30000c628005621070018
:107d140031c7b30010c628005321070081c6b30041
:107d240020c628005021070091c6b30030c62800a1
:107d34004d21070021c6b30040c628004a21070090
:107d440011c6b30050c6280047210700d1c2b300b2
:107d540060c628004421070051c5b30070c628003e
:107d64004121070081c4b30080c628003e210700da
:107d740021c3b30090c628003b21070041c4b300cf
:107d8400a0c6280038210700a1c0b300b0c628004f
:107d9400352107008040eb00c0c6280032210700cf
:107da4008040eb00d0c628002f2107008040eb0064
:107db400e0c628002c210700d1cfb300f0c628006c
:107dc400292107008040eb0000c728002621070076
:107dd40061c3b30010c728002321070021c4b300e6
:107de40020c728002021070051c4b30030c7280051
:107df4001d210700b1c4b30040c728001a210700a1
:107e040061c0b30050c72800172107008040eb0071
:107e140060c7280014210700a1c0b30070c7280060
:107e24001121070001c2b30080c728000e210700fa
:107e340001c2b30090c728000b21070001c2b300a0
:107e4400a0c728000821070001c2b300b0c728005a
:107e54000521070001c2b300c0c7280002210700a2
:107e640001c2b300d0c72800ff20070011c0b3002f
:107e7400e0c72800fc20070061c8b300f0c7280051
:107e8400f920070021c0b30000c82800f62007002d
:107e940031c0b30010c82800f3200700a1c1b3000b
:107ea40020c82800f020070011ccb30030c82800f7
:107eb400ed20070071c4b30040c82800ea20070081
:107ec400d1ceb30050c82800e7200700e1c6b300b4
:107ed40060c82800e4200700e1c6b30070c8280089
:107ee400e1200700e1c6b30080c82800de200700b7
:107ef400e1c6b30090c82800db200700e1c6b30048
:107f0400a0c82800d8200700e1c6b300b0c82800e4
:107f1400d520070031c2b300c0c82800d220070012
:107f240081c0b300d0c82800cf20070071c0b300bf
:107f3400e0c82800cc20070011c0b300f0c8280016
:107f4400c920070031c8b30000c92800c6200700b3
:107f540011c0b30010c92800c32007008040eb0003
:107f640020c92800c02007008040eb0030c9280049
:107f7400bd20070051c6b30040c92800ba2007003d
:107f840031c0b30050c92800b7200700c1c0b300f6
:107f940060c92800b42007008040eb0070c92800a5
:107fa400b120070001c1b30080c92800ae2007003a
:107fb4008040eb0090c92800ab200700a1c4b300a7
:107fc400a0c92800a8200700a1c1b300b0c9280097
:107fd400a520070001cdb300c0c92800a2200700d6
:107fe40001cbb300d0c928009f20070001c2b30011
:107ff400e0c928009c2007008040eb00f0c928005d
:1080040099200700c1c0b30000ca280096200700c9
:1080140001c5b30010ca280093200700b1c5b300fe
:1080240020ca28009020070001c2b30030ca2800eb
:108034008d20070031c6b30040ca28008a200700fb
:108044008040eb0050ca280087200700d1c3b3004a
:1080540060ca280084200700d1c6b30070ca280073
:10806400812007008040eb0080ca28007e200700a2
:108074008040eb0090ca28007b2007008040eb0082
:10808400a0ca28007820070081c1b300b0ca280024
:1080940075200700a1c4b300c0ca280072200700dd
:1080a400a1c1b300d0ca28006f20070001cdb300de
:1080b400e0ca28006c20070001cbb300f0ca2800f6
:1080c4006920070001c2b30000cb28006620070026
:1080d4008040eb0010cb280063200700c1c0b30030
:1080e40020cb28006020070001c5b30030cb280056
:1080f4005d200700b1c5b30040cb28005a2007001b
:1081040001c2b30050cb28005720070031c6b3008a
:1081140060cb2800542007008040eb0070cb28007f
:1081240051200700d1c3b30080cb28004e200700a4
:10813400d1c6b30090cb28004b2007008040eb0051
:10814400a0cb2800482007008040eb00b0cb2800db
:10815400452007008040eb00c0cb280042200700e8
:1081640081c1b300d0cb28003f200700a1c4b300d5
:10817400e0cb28003c200700a1c1b300f0cb2800cd
:108184003920070001cdb30000cc280036200700b9
:1081940001cbb30010cc28003320070001c2b30088
:1081a40020cc2800302007008040eb0030cc280091
:1081b4002d200700c1c0b30040cc28002a200700ae
:1081c40001c5b30050cc280027200700b1c5b30077
:1081d40060cc28002420070001c2b30070cc280022
:1081e4002120070031c6b30080cc28001e200700e0
:1081f4008040eb0090cc28001b200700d1c3b300c3
:10820400a0cc280018200700d1c6b300b0cc2800a9
:10821400152007008040eb00c0cc28001220070086
:108224008040eb00d0cc28000f2007008040eb00fa
:10823400e0cc28000c20070081c1b300f0cc28005a
:1082440009200700a1c4b30000cd280006200700c0
:10825400a1c1b30010cd28000320070001cdb30055
:1082640020cd28000020070001cbb30030cd28002a
:10827400fd1f070001c2b30040cd2800fa1f07000c
:108284008040eb0050cd2800f71f0700c1c0b300a9
:1082940060cd2800f41f070001c5b30070cd28008d
:1082a400f11f0700b1c5b30080cd2800ee1f070001
:1082b40001c2b30090cd2800eb1f070031c6b30004
:1082c400a0cd2800e81f07008040eb00b0cd2800b7
:1082d400e51f0700d1c3b300c0cd2800e21f07008b
:1082e400d1c6b300d0cd2800df1f07008040eb00cb
:1082f400e0cd2800dc1f07008040eb00f0cd280013
:10830400d91f07008040eb0000ce2800d61f0700cd
:1083140081c1b30010ce2800d31f07008040eb00ba
:1083240020ce2800d01f07008040eb0030ce28006c
:10833400cd1f07008040eb0040ce2800ca1f070075
:108344008040eb0050ce2800c71f07008040eb00a0
:1083540060ce2800c41f07008040eb0070ce2800c8
:10836400c11f07008040eb0080ce2800be1f07001d
:108374008040eb0090ce2800bb1f07008040eb003c
:10838400a0ce2800b81f07008040eb00b0ce280024
:10839400b51f07008040eb00c0ce2800b21f0700c5
:1083a4008040eb00d0ce2800af1f07008040eb00d8
:1083b400e0ce2800ac1f07008040eb00f0ce280080
:1083c400a91f07008040eb0000cf2800a61f07006c
:1083d4008040eb0010cf2800a31f07008040eb0073
:1083e40020cf2800a01f07008040eb0030cf2800da
:1083f4009d1f07008040eb0040cf28009a1f070014
:108404008040eb0050cf2800971f07008040eb000e
:1084140060cf2800941f07008040eb0070cf280035
:10842400911f07008040eb0080cf28008e1f0700bb
:108434008040eb0090cf28008b1f07008040eb00aa
:10844400a0cf2800881f07008040eb00b0cf280091
:10845400851f07008040eb00c0cf2800821f070063
:108464008040eb00d0cf28007f1f07008040eb0046
:10847400e0cf28007c1f0700d1c1b300f0cf280053
:10848400791f070021c0b30030542800761f07006d
:1084940011c1b30040542800731f07008040eb0053
:1084a40000602800701f070031cfb300206028004f
:1084b4006d1f070021c0b300306028006a1f070049
:1084c400c1c0b30040602800671f070051c0b3005b
:1084d40060602800641f07008040eb007060280083
:1084e400611f070021c0b300206528005e1f07003c
:1084f400a29b2400c3202000106728007b1f0700d4
:1085040092082b00131e200050672800771f0700d5
:108514008040eb0000682800531f07000052280029
:10852400bb1e0700f1d32000600120005c1f070080
:108534001100200020002000591f07008000eb00dc
:1085440020002000561f0700000a20000100200020
:108554009c2d0700000a200001002000992d07002f
:1085640040012000b51e0700a0012000b31e070033
:1085740020502800a61e0700b0502800a41e0700a3
:1085840000522800a21e0700f1f320006001200021
:10859400431f070080c0eb0020502800321f070053
:1085a40080c0eb00b05028002f1f0700f1f320001b
:1085b400400120003a1f07000080fa000000060076
:1085c4000000fa0000802400811e20007d2d070099
:1085d40041c1200040002000311f0700012021007c
:1085e400200020002e1f07008000eb002000200048
:1085f4002b1f070021c4b30020a028001a1f070066
:10860400120020000300200080102000371f070004
:108614001200200003002000c0102000331f0700b8
:108624001200200003002000002a20002f1f070052
:108634005242210003002000c02a20002b1f070003
:1086440000e82300010020005e2d07003200200016
:1086540003002000002a2000241f070042012000fc
:108664000300200080112000201f0700d22b2100ce
:1086740003002000001220001c1f07006011b80036
:1086840040122000191f07001210200003002000d0
:1086940080122000151f0700020020001300200094
:1086a40000132000111f0700020025000300200012
:1086b400401320000d1f07000200200013002000bb
:1086c40080132000091f070002002000130020006f
:1086d400c0132000051f0700020020001300200023
:1086e40000142000011f07000200200013002000d6
:1086f40040142000fd1e070002002100030020009a
:1087040080142000f91e070002002000130020003e
:10871400c0142000f51e07001214200003002000de
:1087240000152000f11e07001200200003002000a5
:1087340040152000ed1e0700820c200003002000dd
:1087440080152000e91e0700a2022000030020007b
:1087540080162000e51e0700022d200003002000e3
:1087640000172000e11e070012082000030020006b
:10877400c0172000dd1e0700f200200003002000c7
:10878400c0182000d91e0700520520000300200055
:1087940000192000d51e07006011b800401a2000ff
:1087a400d21e07005201200003002000001c2000fc
:1087b400ce1e07006011b80040212000cb1e070028
:1087c4000208200003002000c0212000c71e07006b
:1087d4006011b80040222000c41e070022002000bf
:1087e4000300200040252000c01e070022002000b6
:1087f4002301200080252000bc1e07002200200049
:1088040053002000c0252000b81e070032002000bd
:108814003300200000262000b41e070082a3240099
:108824000300200040262000b01e07008200200024
:108834000300200080262000ac1e07004200200018
:1088440053002000c0262000a81e070002022000ba
:108854000300200000272000a41e0700f2012000ce
:108864000300200040272000a01e07001200200063
:1088740023002000802720009c1e070022002000e7
:1088840003002000c0272000981e070012002000cb
:1088940003002000c0112000941e07008000eb009c
:1088a400005020007e1e070062012000030020000b
:1088b400001120008d1e070062012000030020002b
:1088c40000312000891e07008000eb0000502000ca
:1088d400731e070062012000030020000011200025
:1088e400821e0700620120000300200000312000e6
:1088f4007e1e07000010270021002000b12c070075
:108904009103280040502000651e0700410020000c
:1089140040502000621e070091fb2f0040502000b1
:108924005f1e070031482900405020005c1e0700ec
:108934009103280040502000591e07001101200017
:1089440040502000561e070011cb27004050200045
:10895400531e07000140220040502000501e070013
:1089640061102000405020004d1e0700010121002d
:10897400405020004a1e070061e2220040502000bf
:10898400471e0700d1d1210040502000441e07009b
:108994007125210040502000411e070011602e0067
:1089a400405020003e1e0700210e200040502000b1
:1089b4003b1e07009103280040502000381e07008a
:1089c4007100200040502000351e0700210b2000bc
:1089d40040502000321e0700814c200040502000ef
:1089e4002f1e070041002000405020002c1e0700cd
:1089f4006106200040502000291e0700510020007d
:108a040040502000261e0700010220004050200094
:108a1400231e07005101200040502000201e0700a3
:108a240061032000405020001d1e0700510120005a
:108a3400405020001a1e0700a103270040502000c8
:108a4400171e07009103280040502000141e070041
:108a5400f101200040502000111e0700410b2000ae
:108a6400405020000e1e07004120230040502000eb
:108a74000b1e07000101200040502000081e0700c3
:108a84002103210040502000051e0700012023007f
:108a940040502000021e07000181200040502000a9
:108aa400ff1d07007112200040502000fc1d07002c
:108ab4003135200040502000f91d070071132000bb
:108ac40040502000f61d07003115200040502000c2
:108ad400f31d07000103230040502000f01d070090
:108ae4001110200040502000ed1d0700311420001b
:108af40040502000ea1d070031142000405020009f
:108b0400e71d07001116260040502000e41d070051
:108b14001100200040502000e11d070091032800af
:108b240040502000de1d070051002000405020006e
:108b3400db1d0700f16b200040502000d81d07000a
:108b44002100210040502000d51d070041002000d5
:108b540040502000d21d07009103280040502000ff
:108b6400cf1d07005100200040502000cc1d0700fd
:108b7400710c200040502000c91d07000101200095
:108b840040502000c61d0700010120004050200075
:108b9400c31d07009103280040502000c01d07009a
:108ba4003100200040502000bd1d0700618c2000d2
:108bb40040502000ba1d07008100200040502000d2
:108bc400b71d07009103280040502000b41d070082
:108bd4003100200040502000b11d070001cc2000ce
:108be40040502000ae1d07005101200040502000dd
:108bf400ab1d07009103280040502000a81d07006a
:108c04001102200040502000a51d0700510d200036
:108c140040502000a21d07008000eb0040502000bf
:108c24009f1d070001a02000405020009c1d07004c
:108c34000110200040502000991d0700310320003e
:108c440040502000961d07000130230040502000b2
:108c5400931d07000100210040502000901d0700d3
:108c640021432500405020008d1d0700610721008d
:108c7400405020008a1d0700218328004050200016
:108c8400871d07008188280040502000841d0700ac
:108c94008188280040502000811d07008188280019
:108ca400405020007e1d070091992900405020006b
:108cb4007b1d07009149250040502000781d0700c6
:108cc4006187280040502000751d0700810820009e
:108cd40040502000721d07009103280040502000de
:108ce4006f1d070001082000405020006c1d070084
:108cf400111c200040502000691d07000160200065
:108d040040502000661d0700e16021004050200013
:108d1400631d0700e161220040502000601d070030
:108d2400e1622300405020005d1d0700e163240040
:108d3400405020005a1d0700e164250040502000e7
:108d4400571d0700e165260040502000541d070010
:108d5400e166270040502000511d0700e16728000c
:108d6400405020004e1d0700e168290040502000bb
:108d74004b1d0700e1692a0040502000481d0700f0
:108d8400e16a2b0040502000451d0700e16b2c00d8
:108d940040502000421d0700e16c2d00405020008f
:108da4003f1d0700e16d2e00405020003c1d0700d0
:108db400e16e2f0040502000391d0700e10f200014
:108dc40040502000361d07008000eb00405020007a
:108dd400331d07008000eb0040502000301d0700c9
:108de4008000eb00405020002d1d07008000eb00a8
:108df400405020002a1d0700013020004050200070
:108e0400271d0700b130210040502000241d070019
:108e1400b131220040502000211d0700b13223004f
:108e2400405020001e1d0700b13324004050200094
:108e34001b1d0700b134250040502000181d0700f9
:108e4400b135260040502000151d0700b13627001b
:108e540040502000121d0700b13728004050200068
:108e64000f1d0700b1382900405020000c1d0700d9
:108e7400b1392a0040502000091d0700b13a2b00e7
:108e840040502000061d0700b13b2c00405020003c
:108e9400031d0700b13c2d0040502000001d0700b9
:108ea400b13d2e0040502000fd1c0700b13e2f00b4
:108eb40040502000fa1c0700b10f20004050200051
:108ec400f71c07008000eb0040502000f41c070052
:108ed4008000eb0040502000f11c07008000eb00f4
:108ee40040502000ee1c07008000eb0040502000a2
:108ef400eb1c07008000eb0040502000e81c07003a
:108f04008100210040502000e51c070081e1210080
:108f140040502000e21c070061e222004050200083
:108f2400df1c070061e3230040502000dc1c070025
:108f340061e4240040502000d91c070061e52500ad
:108f440040502000d61c070061e626004050200057
:108f5400d31c070061e7270040502000d01c070005
:108f640061e8280040502000cd1c070061e9290079
:108f740040502000ca1c070061ea2a00405020002b
:108f8400c71c070061eb2b0040502000c41c0700e5
:108f940061ec2c0040502000c11c070061ed2d0045
:108fa40040502000be1c070061de2e00405020000f
:108fb400bb1c0700510f200040502000b81c0700c4
:108fc4008000eb0040502000b51c07008000eb003f
