:020000040000fa
:08000000c01e04000000000016
:020000040000fa
:10000800041e0000081e00000c1e0000101e000048
:10001800141e0000bc1e0000bc1e0000bc1e000018
:10002800181e00001c1e0000201e0000241e0000d8
:10003800bc1e0000281e00002c1e0000301e000000
:10004800341e0000381e00003c1e0000401e000048
:10005800441e0000481e0000bc1e0000bc1e00001c
:100068004c1e0000501e0000541e0000581e0000c8
:100078005c1e0000bc1e0000bc1e0000bc1e000070
:10008800bc1e0000601e0000641e0000681e000008
:100098006c1e0000701e0000741e0000781e000018
:1000a8007c1e0000801e0000bc1e0000bc1e00005c
:1000b800bc1e0000841e0000881e00008c1e00006c
:1000c800bc1e0000901e0000bc1e0000bc1e0000ec
:1000d800bc1e0000941e0000bc1e0000bc1e0000d8
:1000e800bc1e0000981e00009c1e0000bc1e0000e4
:1000f800bc1e0000bc1e0000bc1e0000bc1e000090
:10010800bc1e0000bc1e0000bc1e0000bc1e00007f
:10011800bc1e0000bc1e0000a01e0000bc1e00008b
:10012800bc1e0000a41e0000a81e0000ac1e00009b
:10013800bc1e0000bc1e0000bc1e0000bc1e00004f
:10014800b01e0000bc1e0000bc1e0000bc1e00004b
:10015800bc1e0000b41e0000bc1e0000bc1e000037
:10016800bc1e0000bc1e0000bc1e0000bc1e00001f
:10017800bc1e0000bc1e0000b81e0000bc1e000013
:10018800bc1e0000bc1e0000bc1e0000bc1e0000ff
:10019800bc1e0000bc1e0000bc1e0000bc1e0000ef
:1001a800bc1e0000bc1e0000bc1e0000bc1e0000df
:1001b800bc1e0000bc1e0000bc1e0000bc1e0000cf
:1001c800bc1e0000bc1e0000bc1e0000bc1e0000bf
:1001d800bc1e0000bc1e0000bc1e0000bc1e0000af
:1001e800bc1e0000bc1e0000bc1e0000bc1e00009f
:0801f800bc1e0000bc1e00004b
:020000040000fa
:04020800c220000010
:020000040000fa
:04020c00c22000000c
:020000040000fa
:04021000c220000008
:020000040000fa
:04021400c220000004
:020000040000fa
:04021800c220000000
:020000040000fa
:04021c00c2200000fc
:020000040000fa
:04022000c2200000f8
:020000040000fa
:04022400c2200000f4
:020000040000fa
:04022800c2200000f0
:020000040000fa
:04022c00c2200000ec
:020000040000fa
:04023000c2200000e8
:020000040000fa
:04023400c2200000e4
:020000040000fa
:04023800c2200000e0
:020000040000fa
:04023c00c2200000dc
:020000040000fa
:04024000c2200000d8
:020000040000fa
:04024400c2200000d4
:020000040000fa
:04024800c2200000d0
:020000040000fa
:04024c00c2200000cc
:020000040000fa
:04025000c2200000c8
:020000040000fa
:04025400c2200000c4
:020000040000fa
:04025800c2200000c0
:020000040000fa
:04025c00c2200000bc
:020000040000fa
:04026000c2200000b8
:020000040000fa
:04026400c2200000b4
:020000040000fa
:04026800c2200000b0
:020000040000fa
:04026c00c2200000ac
:020000040000fa
:04027000c2200000a8
:020000040000fa
:04027400c2200000a4
:020000040000fa
:04027800c2200000a0
:020000040000fa
:04027c00c22000009c
:020000040000fa
:04028000c220000098
:020000040000fa
:04028400c220000094
:020000040000fa
:04028800c220000090
:020000040000fa
:04028c00c22000008c
:020000040000fa
:04029000c220000088
:020000040000fa
:04029400c220000084
:020000040000fa
:04029800c220000080
:020000040000fa
:04029c00c22000007c
:020000040000fa
:0402a000c220000078
:020000040000fa
:0402a400c220000074
:020000040000fa
:0402a800c220000070
:020000040000fa
:0402ac00c22000006c
:020000040000fa
:0402b000c220000068
:020000040000fa
:0402b400c220000064
:020000040000fa
:0402b800c220000060
:020000040000fa
:0402bc00c22000005c
:020000040000fa
:0402c000c220000058
:020000040000fa
:0402c400c220000054
:020000040000fa
:0402c800c220000050
:020000040000fa
:0402cc00c22000004c
:020000040000fa
:0402d000c220000048
:020000040000fa
:0402d400c220000044
:020000040000fa
:0402d800c220000040
:020000040000fa
:0402dc00c22000003c
:020000040000fa
:0402e000c220000038
:020000040000fa
:0402e400c220000034
:020000040000fa
:0402e800c220000030
:020000040000fa
:0402ec00c22000002c
:020000040000fa
:0402f000c220000028
:020000040000fa
:0402f400c220000024
:020000040000fa
:0402f800c220000020
:020000040000fa
:0402fc00c22000001c
:020000040000fa
:04030000c220000017
:020000040000fa
:04030400c220000013
:020000040000fa
:04030800c22000000f
:020000040000fa
:04030c00c22000000b
:020000040000fa
:04031000c220000007
:020000040000fa
:04031400c220000003
:020000040000fa
:04031800c2200000ff
:020000040000fa
:04031c00c2200000fb
:020000040000fa
:04032000c2200000f7
:020000040000fa
:04032400c2200000f3
:020000040000fa
:04032800c2200000ef
:020000040000fa
:04032c00c2200000eb
:020000040000fa
:04033000c2200000e7
:020000040000fa
:04033400c2200000e3
:020000040000fa
:04033800c2200000df
:020000040000fa
:04033c00c2200000db
:020000040000fa
:04034000c2200000d7
:020000040000fa
:04034400c2200000d3
:020000040000fa
:04034800c2200000cf
:020000040000fa
:04034c00c2200000cb
:020000040000fa
:04035000c2200000c7
:020000040000fa
:04035400c2200000c3
:020000040000fa
:04035800c2200000bf
:020000040000fa
:04035c00c2200000bb
:020000040000fa
:04036000c2200000b7
:020000040000fa
:04036400c2200000b3
:020000040000fa
:04036800c2200000af
:020000040000fa
:04036c00c2200000ab
:020000040000fa
:04037000c2200000a7
:020000040000fa
:04037400c2200000a3
:020000040000fa
:04037800c22000009f
:020000040000fa
:04037c00c22000009b
:020000040000fa
:04038000c220000097
:020000040000fa
:103c0000c01e040000000000c220040000000000ec
:103c1000cc1f040000000000de1f040000000000b4
:103c2000d41f040000000000e61f04000000000094
:103c3000901f040000000000c220040000000000eb
:103c4000c220040000000000c220040000000000a8
:103c5000c220040000000000c22004000000000098
:103c60008c20040000000000c220040000000000be
:103c7000c220040000000000c22004000000000078
:103c8000c220040000000000c22004000000000068
:103c9000c220040000000000c22004000000000058
:103ca0002420040000000000c220040000000000e6
:103cb000c220040000000000ae1f0400000000004d
:103cc000c220040000000000c22004000000000028
:103cd000c220040000000000ee1f040000000000ed
:103ce000c220040000000000c22004000000000008
:103cf000c220040000000000c220040000000000f8
:103d0000c220040000000000c220040000000000e7
:103d1000c220040000000000c220040000000000d7
:103d2000c220040000000000c220040000000000c7
:103d3000c220040000000000462004000000000033
:103d4000c220040000000000c220040000000000a7
:103d5000c220040000000000c22004000000000097
:103d6000c220040000000000c22004000000000087
:103d70006820040000000000c220040000000000d1
:020000040000fa
:103d80000fa220000e7f22000e018800000000001c
:103d9000000020000000e0000200320000012000ce
:103da0002002880014000700f80007000000e0006f
:103db00003003a0040cc2900010020000200370037
:103dc0000000200001002000810f7000010032007f
:103dd00014000700000020000000e0000200320094
:103de00000000200000000006489020000000000e2
:103df0000040da000000fe004440a900a00c2000b2
:103e00000000e0000300320000002000a001880054
:103e10004440a800000006008a1f78008b1f78002d
:103e20000000060091018800800478000000eb008b
:103e30001a003700e284440032a0b4009905ba00a9
:103e4000e284440032a0b4009906ba00e28444003f
:103e500032a0b4000006eb00476fde00fd07b200a1
:103e6000636ce10003003a00ebff07000000eb0089
:103e70000a003700606ce10004003a00005deb00ce
:103e80008b05e900fdff3e00040037006168e1009a
:103e9000010032000086eb000b00070019c7ba00d2
:103ea0001905ba000e04e00003003a000a00e00021
:103eb000e0ff3a0000000600fe07b2009e01880005
:103ec0008a047800f5ff3700395dba008b05e900f8
:103ed0000c003200295dba008b05e90008003200b1
:103ee0000c00e00003003a00e284440032a0b40079
:103ef000f5ff370019ddba008b05e900faff3a003b
:103f00008904e800e184440032a0b4000000060007
:103f100000000000000000000000000000000000a1
:103f20003600f800809fbe00829fbe00849fbe00c6
:103f3000869fbe000000fa009a3f07008400a90097
:103f40000080fa004f03be004f02be004f01be00ca
:103f50004f00be003600f900004006003600f800b1
:103f6000809fbe00829fbe00849fbe00869fbe00d1
:103f70000000fa00903f07008680a9000080fa0048
:103f80004f03be004f02be004f01be004f00be00f7
:103f90003600f900004006003600f8008020a90035
:103fa0000000eb00ad3f07003600f800af3f070010
:103fb0008040a90010002000a83f07003600f8004c
:103fc0008060a90020002000a43f07003600f80010
:103fd0008080a90030002000a03f07003600f800d4
:103fe000809fbe00829fbe00849fbe00869fbe0051
:103ff0000000fa00b04380000000e0000200320040
:10400000b043800000000100d09b200010407800e9
:104010008040e800d09b200001487800c09b200031
:1040200011c0b300014878008780a9000080fa0021
:104030004f03be004f02be004f01be004f00be0046
:104040003600f90000400600809fbe000000fa0024
:10405000c0438000e10f500001003a007828ef00d3
:104060004110800000402000008060000000e0005f
:104070000200320010002000d04388008620a900f2
:104080000080fa004f00be0000400600809fbe0086
:104090000000fa00e0438000e10f500001003a0008
:1040a0007c28ef00c11080000040200000806000ec
:1040b0000000e0000200320010002000f043880001
:1040c0008a40a9000080fa004f00be0000400600b0
:1040d0003600f800809fbe00829fbe00849fbe0015
:1040e000869fbe003400f80000002000a001880078
:1040f0000000fa00052307000080fa003400f900f0
:104100004f03be004f02be004f01be004f00be0075
:104110003600f900004006003600f800809fbe001f
:10412000829fbe00849fbe00869fbe000000fa00f2
:10413000904480000000e0000200320090448000c3
:1041400000000100f09b2000104078008040e80053
:10415000f09b200001487800e09b200011c0b300d4
:104160000148780084e0a9000080fa004f03be00f7
:104170004f02be004f01be004f00be003600f900e6
:10418000004006000040da000000fe0000000500cc
:10419000839f68000100e00002003d006000100005
:1041a000e08018000300e00002003d006001110003
:1041b000e08119003e0007004f00e00002003b00d4
:1041c00060001000e0801800000006000001be0042
:1041d000220007000470a70003f0a1006509b100e8
:1041e000160032000d0035006828e1000600350099
:1041f000f0ff2f00f1ff27000300e00013003b0059
:1042000001002800000005000000400081804800f7
:104210008502e900fcff3a0008003700f88f4200f1
:1042200002003c008000eb00000005008100d1008e
:104230000080d3008502e800fcff3a000300e000a4
:1042400002003b0060001000e08018000000060043
:104250004f89de008201780027013700c70ade009f
:10426000f107b200f50fb20008003200e1cf4200c2
:10427000020032000170a00024000500810f7000d0
:10428000010032000408050044000500810f7000a1
:1042900002003a00140005008502e9000000400019
:1042a00081c04800fcff3b000170a0002400050015
:1042b0006022b800060220000000d0008180d200f9
:1042c0000482d2008582d2000000a00002025200c7
:1042d00083825a00030031000202420083824a00b6
:1042e0000000a1000603e900f3ff3a000000060009
:1042f000038368000700280007036300470ade0005
:104300000480a100c71ade000580a100f70f20007d
:104310000720e100420032000728e100400032009f
:10432000889fbe008a9fbe008c1f7800f107b200f4
:10433000f307b2000400e000640032000170a00046
:104340000500e000680032000370a000850542000f
:10435000eb07b1000204b8000302b80084844400f3
:1043600060854a00020ab800848444000a854a0035
:10437000030ab80004054500040033000804d00017
:104380008984d2000a85d2008b05e9006158e100da
:104390003d003500021020000901610003082000e3
:1043a00089816100f7072000878364000886730015
:1043b000c84cde00c853dd00878474004855de0019
:1043c0000300e000060032008203760004003200a1
:1043d0008904e80060054d000a88a3000c003a003b
:1043e000f70f20000758e10044003d000a70a100cb
:1043f000c75ddd000a8575008a007300090078003a
:104400004f0678004f05be004f04be0000000600b6
:104410000a05d1008984d3008b05e800f0ff37003e
:10442000881f7800060478009000070007027800d3
:104430000001fd008101fd008c000700870278006b
:10444000850372000778a300050032000001fd001b
:104450008101fd009f0007004f0478000000060066
:10446000850372000748a30003003200f0ff2f000d
:10447000f1ff2700f8ff37000000200001f82700b7
:1044800088807000f4ff3700880178004848dd001c
:10449000808171004848de00c850dd0001007000d6
:1044a000c850de00060478000b01780016000700f3
:1044b00088807000d2ff37000500e0000500320060
:1044c000170020003a0007009dff370081037000ad
:1044d000f9ff3a00860078004f0678004f05be00cd
:1044e0004f04be000000050083037100f9ff320095
:1044f000270020002e00070094ff370001f8270056
:1045000086807000f4ff37000100e00026003200d2
:10451000610111007810e10023003c006022b80026
:104520007010e1000400350080027800010078007e
:104530008000eb00700151000200e000090034002f
:1045400070031100062add00822ade008603dd00ea
:10455000878272000200de00860bdd00070070001b
:104560008208de0084817100f4ff2700048262006b
:10457000848171000400280084826200610260006e
:1045800005f0a6000000060004827100070032005a
:104590000000e800e0804800000006000002be00c5
:1045a0006000b800efff37006000b80000000600b0
:1045b000889fbe000004eb006138e10016003a005d
:1045c0000100e00008003a00c800de004800dd00fd
:1045d000880020000100e00003003a00c800de006f
:1045e0004800dd00680444008184cf00e984540061
:1045f000060034008908dd00f08314008703de0024
:10460000878070000900dd00090444006102140085
:104610004f04be00000006000300e00008003a005e
:10462000c811de004811dd00880020000300e00012
:1046300003003a00c811de004811dd0068044400a0
:104640008384cf00e9845400060034008919dd001a
:10465000f08314008713de00878171000911dd00eb
:1046600009044400e1021400e9ff3700270020009c
:1046700001f0a70017002000470bde00f60fb20084
:10468000040032000643e8000a0032004702b3008b
:104690000000060001037800f607b2000603700070
:1046a00002003a000703b300000006008702b300cf
:1046b0000000060001037800f607b2000603700050
:1046c000020032000770a000000006000760a00092
:1046d000000006000478a300040032000578a3005f
:1046e000030032000168a30001003a000200be008e
:1046f0000160a00000000600881f78000304780015
:104700000300e00007003d0060001000e08018009a
:1047100060011900e081190002003b0001f02d004a
:10472000030037000400070008f0a70001f0a00014
:104730004f04780000000600889fbe008a9fbe00dc
:1047400000827000040271000482710026003200b1
:104750000004be000200be006011b8006b0920001a
:10476000950220000182cf000a0039000541b10006
:104770000082cf00070039000541b1000982cf0057
:10478000040039000541b1000882cf000100390062
:104790000541b10005425200120032000a003b0000
:1047a00082817100610164008100d1000080d3002a
:1047b0008984d3000884d3008b05e8000442e80014
:1047c000f7ff3a00070037000804440089844c00d2
:1047d00000004800818048008b05e9000442e900a0
:1047e000f9ff3a00030007004f05be004f04be006a
:1047f0000000060081002000618055000b003d0094
:104800000b00200061fe2f000100e1001d003400bc
:1048100082817100610164008904d1000884d300a1
:104820000000e800faff3a00710020006100640017
:1048300003007000020060000900320061044400bf
:10484000e0844c000988a500050032008b05e800d3
:104850006808e10002003a008904d1000884d3000e
:10486000f20f20000258e10005003d00c75ddd00a9
:10487000f907b20089807500080078000000060082
:104880000bf827008b0078000000050080017800fd
:1048900002003700b15978000201e9000200e0008f
:1048a000fcff3a0000000600889fbe008a9fbe0001
:1048b000800478000200e0005b00320001407800d4
:1048c000814c780082814400f1f99f00e20f510091
:1048d0005500360091449800a1449800e1f99f00ea
:1048e000d1f99f00e60f51004f003600b144980007
:1048f000c1f99f00e80f51004b0036000905ea009e
:10490000630565000a8444000a055100c1ff2f00b9
:10491000010565000080fb008000eb001210200004
:104920001310200044000700008cbe000a01440060
:1049300060b99f0071b99f00e80f55003a0036003a
:104940002004980031049800400498005104980015
:1049500020b99f0031b99f0040b99f0051b99f0015
:10496000f80f55003000360060049800710498007c
:10497000000c9800110c9800200c9800310c980045
:10498000400c9800510c980020b19f0031b19f005d
:1049900040b19f0051b19f0060b19f0071b19f0075
:1049a00000b99f0011b99f006401640078014100c3
:1049b00002044400020555006011b8000203be0065
:1049c0000002be000403be006022b80000007200b6
:1049d0008180720002017300838173001000370030
:1049e000009cbe000294be00400498005104980050
:1049f0006204980073049800000c9800110c980051
:104a0000220c9800330c9800400c9800510c980030
:104a1000620c9800730c98000a02b1000802b00002
:104a2000ff0f5500eeff3e00090078004f05be0065
:104a30004f04be0000000600020ab900001bb900c6
:104a40000200b8008100420081004300000006001f
:020000040000fa
:104a50001201000000020000000000000008000039
:104a6000d80400003f000000000100000102000027
:104a700000010000090200002900000001010000ff
:104a800000c0000032090000040000000002000025
:104a900003000000000000000921000011010000d7
:104aa00000010000221d0000000700000581000039
:104ab00003400000000100000705000001030000a2
:104ac0004000000001000000040300000904000091
:104ad000340300004d000000690000006300000086
:104ae000720000006f00000063000000680000001a
:104af0006900000070000000200000005400000069
:104b00006500000063000000680000006e00000007
:104b10006f0000006c0000006f00000067000000e4
:104b20007900000020000000490000006e00000035
:104b3000630000002e0000002e0300005300000060
:104b4000690000006d000000700000006c000000b3
:104b5000650000002000000048000000490000003f
:104b60004400000020000000440000006500000038
:104b7000760000006900000063000000650000008e
:104b80002000000044000000650000006d000000ef
:104b90006f00000006000000ff09000001a10000f6
:104ba0000119000001290000401500000026000046
:104bb000ff00000075080000954000008100000023
:104bc000190100002940000091000000c000000011
:104bd0003aa5000064a5000068a500009ca500009f
:044be00013000000be
:020000040000fa
:104be4000000fa004100200040002000f62d0700dc
:104bf40001f0230020002000f32d07008000eb00cb
:104c040020002000f02d07008000eb006000200051
:104c1400ed2d0700f1f3200060012000ea2d0700cc
:104c240080c0eb0020502800d92d070080c0eb0085
:104c3400b0502800d62d0700f1f3200040012000d9
:104c4400e12d0700e1cfb30020512800d02d07004b
:104c540080c0eb0040512800cd2d070080c0eb0040
:104c640050512800ca2d070080c0eb006051280075
:104c7400c72d070031c0b30000412800c42d070030
:104c8400f1c3b30030412800c12d070061c0b30057
:104c940000422800be2d070011c3b300004f2800b6
:104ca400bb2d070011c0b300404f2800b82d0700ea
:104cb400012c210000542800c32d07008040eb0084
:104cc40000632800b22d070031752000106328000e
:104cd400bd2d070021c0b30000672800ac2d0700dc
:104ce400012c2100c0a02800b72d070011c0b3007b
:104cf400005e2800a62d070001102000305e280069
:104d0400b12d07008040eb0000c02800a02d070053
:104d140080c0eb0010c028009d2d070080c0eb0070
:104d240020c028009a2d070080c0eb0030c0280066
:104d3400972d070080c0eb0040c02800942d070089
:104d440080c0eb0050c02800912d070080c0eb000c
:104d540060c028008e2d07008040eb0070c0280042
:104d64008b2d070021c5b30080c02800882d0700c3
:104d740021c6b30090c02800852d070011c0b300e0
:104d8400a0c02800822d07008040eb00b0c028009e
:104d94007f2d070011c0b300c0c028007c2d070080
:104da4008040eb00d0c02800792d07008040eb0044
:104db400e0c02800762d07008040eb00f0c02800fa
:104dc400732d0700c1c1b30000c12800702d070076
:104dd400d1c1b30010c128006d2d070011c0b3006c
:104de40020c128006a2d070031c0b30030c128005b
:104df400672d070001c8b30040c12800642d0700d7
:104e040061c0b30050c12800612d0700a1c0b300e8
:104e140060c128005e2d070081c7b30070c128005f
:104e24005b2d0700a1c0b30080c12800582d0700e6
:104e3400d1c0b30090c12800552d070091ccb30018
:104e4400a0c12800522d070001cab300b0c1280038
:104e54004f2d070071c5b300c0c128004c2d0700b9
:104e640071c4b300d0c12800492d070081c9b30023
:104e7400e0c12800462d070071c2b300f0c128002c
:104e8400432d070021c1b30000c22800402d0700b4
:104e940081c4b30010c228003d2d0700c1c4b30073
:104ea40020c228003a2d07008040eb0030c22800c1
:104eb400372d07008040eb0040c22800342d070046
:104ec4008040eb0050c22800312d070011c0b30010
:104ed40060c228002e2d070011c0b30070c2280044
:104ee4002b2d070011c0b30080c22800282d070015
:104ef40011c0b30090c22800252d070011c0b300d3
:104f0400a0c22800222d070011c0b300b0c228009f
:104f14001f2d070011c0b300c0c228001c2d0700bc
:104f240011c0b300d0c22800192d070011c0b3006e
:104f3400e0c22800162d070011c0b300f0c22800fb
:104f4400132d070011c0b30000c32800102d070063
:104f540011c0b30010c328000d2d070011c0b30009
:104f640020c328000a2d070011c0b30030c3280055
:104f7400072d070011c0b30040c32800042d07000b
:104f840011c0b30050c32800012d0700a1c4b30011
:104f940060c32800fe2c0700a1c1b30070c3280021
:104fa400fb2c070001cdb30080c32800f82c0700b8
:104fb40001cbb30090c32800f52c070001c2b30055
:104fc400a0c32800f22c07008040eb00b0c32800e7
:104fd400ef2c0700c1c0b300c0c32800ec2c0700ad
:104fe40001c5b300d0c32800e92c0700b1c5b30044
:104ff400e0c32800e62c070001c2b300f0c3280078
:10500400e32c070031c6b30000c42800e02c0700dd
:105014008040eb0010c42800dd2c0700d1c3b3008e
:1050240020c42800da2c0700d1c6b30030c42800fd
:10503400d72c07008040eb0040c42800d42c070084
:105044008040eb0050c42800d12c07008040eb00c6
:1050540060c42800ce2c070081c1b30070c42800ae
:10506400cb2c0700a1c4b30080c42800c82c0700bf
:10507400a1c1b30090c42800c52c070001cdb30022
:10508400a0c42800c22c070001cbb300b0c4280080
:10509400bf2c070001c2b300c0c42800bc2c070009
:1050a4008040eb00d0c42800b92c0700c1c0b30075
:1050b400e0c42800b62c070001c5b300f0c42800e2
:1050c400b32c0700b1c5b30000c52800b02c0700fd
:1050d40001c2b30010c52800ad2c070031c6b300cf
:1050e40020c52800aa2c07008040eb0030c528000a
:1050f400a72c0700d1c3b30040c52800a42c070087
:10510400d1c6b30050c52800a12c07008040eb0095
:1051140060c528009e2c07008040eb0070c5280065
:105124009b2c07008040eb0080c52800982c0700ca
:1051340081c1b30090c52800952c07008040eb0086
:10514400a0c52800922c07008040eb00b0c52800c1
:105154008f2c07008040eb00c0c528008c2c070072
:10516400c1cfb300d0c52800892c07008040eb00d4
:10517400e0c52800862c070031c4b300f0c5280020
:10518400832c0700f1c4b30000c62800802c07005c
:10519400d1c4b30010c628007d2c070051c3b3004e
:1051a40020c628007a2c070001c3b30030c62800ab
:1051b400772c070081c4b30040c62800742c070074
:1051c40051c3b30050c62800712c0700e1c4b300da
:1051d40060c628006e2c070001c3b30070c6280007
:1051e4006b2c070031c3b30080c62800682c07006d
:1051f40051c5b30090c62800652c0700c1c4b30094
:10520400a0c62800622c070031c4b300b0c6280031
:105214005f2c07008040eb00c0c628005c2c070010
:105224008040eb00d0c62800592c07008040eb00da
:10523400e0c62800562c0700d1cfb300f0c62800e2
:10524400532c07008040eb0000c72800502c0700b7
:1052540061c3b30010c728004d2c070021c4b3005c
:1052640020c728004a2c070051c4b30030c72800c7
:10527400472c0700b1c4b30040c72800442c0700e2
:1052840061c0b30050c72800412c07008040eb00e8
:1052940060c728003e2c0700a1c0b30070c72800d7
:1052a4003b2c070001c2b30080c72800382c07003c
:1052b40001c2b30090c72800352c070001c2b30017
:1052c400a0c72800322c070001c2b300b0c72800d1
:1052d4002f2c070001c2b300c0c728002c2c0700e4
:1052e40001c2b300d0c72800292c070011c0b300a5
:1052f400e0c72800262c070001c5b300f0c728002a
:10530400232c070021c0b30000c82800202c07006c
:1053140031c0b30010c828001d2c0700a1c1b30080
:1053240020c828001a2c070001ccb30030c828007c
:10533400172c070071c4b30040c82800142c0700c0
:10534400d1c7b30050c82800112c0700d1c7b3003f
:1053540060c828000e2c0700d1c7b30070c828000d
:105364000b2c0700d1c7b30080c82800082c070005
:10537400d1c7b30090c82800052c0700d1c7b300db
:10538400a0c82800022c0700d1c7b300b0c8280069
:10539400ff2b070031c2b300c0c82800fc2b070054
:1053a40081c0b300d0c82800f92b070071c0b30036
:1053b400e0c82800f62b070011c0b300f0c828008d
:1053c400f32b070031c8b30000c92800f02b0700f5
:1053d40011c0b30010c92800ed2b07008040eb007a
:1053e40020c92800ea2b07008040eb0030c92800c0
:1053f400e72b070051c6b30040c92800e42b07007f
:1054040031c0b30050c92800e12b0700c1c0b3006c
:1054140060c92800de2b07008040eb0070c928001b
:10542400db2b070001c1b30080c92800d82b07007b
:105434008040eb0090c92800d52b0700a1c4b3001d
:10544400a0c92800d22b0700a1c1b300b0c928000d
:10545400cf2b070001cdb300c0c92800cc2b070017
:1054640001cbb300d0c92800c92b070001c2b30087
:10547400e0c92800c62b07008040eb00f0c92800d3
:10548400c32b0700c1c0b30000ca2800c02b07000b
:1054940001c5b30010ca2800bd2b0700b1c5b30075
:1054a40020ca2800ba2b070001c2b30030ca280062
:1054b400b72b070031c6b30040ca2800b42b07003d
:1054c4008040eb0050ca2800b12b0700d1c3b300c1
:1054d40060ca2800ae2b0700d1c6b30070ca2800ea
:1054e400ab2b07008040eb0080ca2800a82b0700e4
:1054f4008040eb0090ca2800a52b07008040eb00f9
:10550400a0ca2800a22b070081c1b300b0ca28009a
:105514009f2b0700a1c4b300c0ca28009c2b07001e
:10552400a1c1b300d0ca2800992b070001cdb30054
:10553400e0ca2800962b070001cbb300f0ca28006c
:10554400932b070001c2b30000cb2800902b070067
:105554008040eb0010cb28008d2b0700c1c0b300a6
:1055640020cb28008a2b070001c5b30030cb2800cc
:10557400872b0700b1c5b30040cb2800842b07005c
:1055840001c2b30050cb2800812b070031c6b30001
:1055940060cb28007e2b07008040eb0070cb2800f6
:1055a4007b2b0700d1c3b30080cb2800782b0700e6
:1055b400d1c6b30090cb2800752b07008040eb00c8
:1055c400a0cb2800722b07008040eb00b0cb280052
:1055d4006f2b07008040eb00c0cb28006c2b07002a
:1055e40081c1b300d0cb2800692b0700a1c4b3004c
:1055f400e0cb2800662b0700a1c1b300f0cb280044
:10560400632b070001cdb30000cc2800602b0700fa
:1056140001cbb30010cc28005d2b070001c2b300fe
:1056240020cc28005a2b07008040eb0030cc280007
:10563400572b0700c1c0b30040cc2800542b0700ef
:1056440001c5b30050cc2800512b0700b1c5b300ed
:1056540060cc28004e2b070001c2b30070cc280098
:105664004b2b070031c6b30080cc2800482b070021
:105674008040eb0090cc2800452b0700d1c3b30039
:10568400a0cc2800422b0700d1c6b300b0cc280020
:105694003f2b07008040eb00c0cc28003c2b0700c8
:1056a4008040eb00d0cc2800392b07008040eb0071
:1056b400e0cc2800362b070081c1b300f0cc2800d1
:1056c400332b0700a1c4b30000cd2800302b070002
:1056d400a1c1b30010cd28002d2b070001cdb300cc
:1056e40020cd28002a2b070001cbb30030cd2800a1
:1056f400272b070001c2b30040cd2800242b07004c
:105704008040eb0050cd2800212b0700c1c0b3001e
:1057140060cd28001e2b070001c5b30070cd280002
:105724001b2b0700b1c5b30080cd2800182b070040
:1057340001c2b30090cd2800152b070031c6b30079
:10574400a0cd2800122b07008040eb00b0cd28002c
:105754000f2b0700d1c3b300c0cd28000c2b0700ca
:10576400d1c6b300d0cd2800092b07008040eb0040
:10577400e0cd2800062b07008040eb00f0cd280088
:10578400032b07008040eb0000ce2800002b07000d
:1057940081c1b30010ce2800fd2a07008040eb0031
:1057a40020ce2800fa2a07008040eb0030ce2800e3
:1057b400f72a07008040eb0040ce2800f42a0700b7
:1057c4008040eb0050ce2800f12a07008040eb0017
:1057d40060ce2800ee2a07008040eb0070ce28003f
:1057e400eb2a07008040eb0080ce2800e82a07005f
:1057f4008040eb0090ce2800e52a07008040eb00b3
:10580400a0ce2800e22a07008040eb00b0ce28009a
:10581400df2a07008040eb00c0ce2800dc2a070006
:105824008040eb00d0ce2800d92a07008040eb004e
:10583400e0ce2800d62a07008040eb00f0ce2800f6
:10584400d32a07008040eb0000cf2800d02a0700ad
:105854008040eb0010cf2800cd2a07008040eb00e9
:1058640020cf2800ca2a07008040eb0030cf280050
:10587400c72a07008040eb0040cf2800c42a070055
:105884008040eb0050cf2800c12a07008040eb0085
:1058940060cf2800be2a07008040eb0070cf2800ac
:1058a400bb2a07008040eb0080cf2800b82a0700fd
:1058b4008040eb0090cf2800b52a07008040eb0021
:1058c400a0cf2800b22a07008040eb00b0cf280008
:1058d400af2a07008040eb00c0cf2800ac2a0700a5
:1058e4008040eb00d0cf2800a92a07008040eb00bd
:1058f400e0cf2800a62a070041c3b300f0cf280058
:10590400a32a070021c0b30030542800a02a0700ae
:1059140011c1b300405428009d2a07008040eb00c9
:10592400006028009a2a070031cfb30020602800c5
:10593400972a070021c0b30030602800942a07008a
:10594400c1c0b30040602800912a070051c0b300d1
:10595400606028008e2a07008040eb0070602800f9
:105964008b2a070021c0b30020652800882a07007d
:10597400a29b2400c320200010672800a52a07004a
:1059840092082b00131e200050672800a12a07004c
:105994008040eb00006828007d2a07000080fa00a0
:1059a400000006000200fa0000522800e229070065
:1059b400004f780000522800df290700004f7800cc
:1059c40000522800dc290700004f78009e40780030
:1059d40061cf6000f1d32000600120007a2a070023
:1059e4001100200020002000772a07001e80fb0001
:1059f4000080fa00000006000a00fa008000eb00b4
:105a040020002000702a0700000a20000100200066
:105a1400f738070040012000d2290700000f780062
:105a2400a0012000cf290700204798002e409000b5
:105a3400614060003047980020502800be290700cc
:105a44004047980010c0b30040479800b050280069
:105a5400b92907005047980000522800b6290700ca
:105a640060479800ee40900010c8b30000c060008a
:105a740060479800f1f3200060012000522a0700db
:105a840080c0eb0020502800412a070080c0eb00b2
:105a9400b05028003e2a0700f1f320004001200006
:105aa400492a07003e4090000080fb00c200dd0050
:105ab4004e4090000080fb00000040008100700018
:105ac4006e4090000080fb000100700040079800c9
:105ad4004e0090000080fa00000006000000fa006a
:105ae400f1d3200060012000372a070011c0b30061
:105af400a0542800262a07000080fa0000000600af
:105b04000000fa0000402b00414c2000b838070088
:105b140041c12000400020002b2a07000120210061
:105b240020002000282a07008000eb00200020002d
:105b3400252a070021c4b30020a02800142a070046
:105b4400120020000300200080102000312a0700ea
:105b54001200200003002000c01020002d2a07009e
:105b64001200200003002000002a2000292a070038
:105b74003242210003002000c02a2000252a070009
:105b840000e82300010020009938070032002000bb
:105b940003002000002a20001e2a070042012000e2
:105ba40003002000801120001a2a0700d22b2100b4
:105bb4000300200000122000162a07006011b8001c
:105bc40040122000132a07001210200003002000b6
:105bd400801220000f2a070002002000130020007a
:105be400001320000b2a07000200250003002000f8
:105bf40040132000072a07000200200013002000a1
:105c040080132000032a0700020020001300200054
:105c1400c0132000ff290700020020001300200009
:105c240000142000fb2907000200200013002000bc
:105c340040142000f729070002002100030020007f
:105c440080142000f3290700020020001300200024
:105c5400c0142000ef2907001214200003002000c4
:105c640000152000eb29070012002000030020008b
:105c740040152000e7290700820c200003002000c3
:105c840080152000e3290700a20220000300200061
:105c940080162000df290700a22a2000030020002c
:105ca40000172000db290700020820000300200061
:105cb400c0172000d7290700f200200003002000ad
:105cc400c0182000d329070052052000030020003b
:105cd40000192000cf2907006011b800401a2000e5
:105ce400cc2907005201200003002000001c2000e2
:105cf400c82907006011b80040212000c529070009
:105d04000208200003002000c0212000c129070050
:105d14006011b80040222000be29070022002000a4
:105d24000300200040252000ba290700220020009b
:105d34002301200080252000b6290700220020002e
:105d440053002000c0252000b229070032002000a3
:105d54003300200000262000ae29070082a324007f
:105d64000300200040262000aa290700820020000a
:105d74000300200080262000a629070042002000fe
:105d840053002000c0262000a229070002022000a0
:105d940003002000002720009e290700f2012000b4
:105da40003002000402720009a2907001200200049
:105db40023002000802720009629070022002000cd
:105dc40003002000c02720009229070012002000b1
:105dd40003002000c01120008e2907008000eb0082
:105de40000502000782907006201200003002000f1
:105df4000011200087290700620120000300200011
:105e04000031200083290700743307009103280020
:105e1400405020006c290700410020004050200021
:105e24006929070091fb2f004050200066290700d4
:105e340031482900405020006329070091032800bd
:105e4400405020006029070011012000405020002c
:105e54005d29070011cb2700405020005a29070074
:105e64000140220040502000572907006110200003
:105e74004050200054290700010121004050200017
:105e84005129070061e22200405020004e290700fa
:105e9400d1d12100405020004b2907007125210059
:105ea400405020004829070011602e004050200077
:105eb40045290700210e20004050200042290700f8
:105ec40091032800405020003f2907007100200062
:105ed400405020003c290700210b200040502000a6
:105ee40039290700814c2000405020003629070042
:105ef40041002000405020003329070061062000a3
:105f0400405020003029070051002000405020005c
:105f14002d29070001022000405020002a290700f3
:105f24005101200040502000272907006103200070
:105f34004050200024290700510120004050200037
:105f440021290700a1032700405020001e29070033
:105f540091032800405020001b290700f101200074
:105f64004050200018290700410b20004050200019
:105f74001529070041202300405020001229070062
:105f840001012000405020000f29070021032100b7
:105f9400405020000c29070001202300405020001d
:105fa400092907000181200040502000062907002c
:105fb40071122000405020000329070031352000d1
:105fc4004050200000290700711320004050200099
:105fd400fd2807003115200040502000fa28070052
:105fe4000103230040502000f7280700111020006f
:105ff40040502000f42807003114200040502000b5
:10600400f12807003114200040502000ee2807003a
:106014001116260040502000eb2807001100200034
:1060240040502000e8280700910328004050200039
:10603400e52807005100200040502000e228070016
:10604400f16b200040502000df28070021002100d0
:1060540040502000dc280700410020004050200070
:10606400d92807009103280040502000d6280700b3
:106074005100200040502000d3280700710c20005c
:1060840040502000d028070001012000405020008b
:10609400cd2807000101200040502000ca28070035
:1060a4009103280040502000c72807003100200039
:1060b40040502000c4280700618c2000405020007c
:1060c400c12807008100200040502000be2807009e
:1060d4009103280040502000bb2807003100200015
:1060e40040502000b828070001cc20004050200078
:1060f400b52807005101200040502000b2280700b5
:106104009103280040502000af280700110220000e
:1061140040502000ac280700510d200040502000c2
:10612400a92807008000eb0040502000a6280700a3
:1061340001a0200040502000a328070001102000e7
:1061440040502000a02807003103200040502000c8
:106154009d28070001302300405020009a280700a2
:10616400010021004050200097280700214325000a
:10617400405020009428070061072100405020006f
:106184009128070021832800405020008e28070012
:1061940081882800405020008b280700818828002f
:1061a40040502000882807008188280040502000a3
:1061b4008528070091992900405020008228070073
:1061c40091492500405020007f280700618728005e
:1061d400405020007c280700810820004050200007
:1061e40079280700910328004050200076280700f2
:1061f400010820004050200073280700111c2000d3
:10620400405020007028070001602000405020000a
:106214006d280700e1602100405020006a28070033
:10622400e16122004050200067280700e16223005a
:106234004050200064280700e163240040502000ff
:1062440061280700e1642500405020005e28070013
:10625400e1652600405020005b280700e166270026
:106264004050200058280700e167280040502000d3
:1062740055280700e16829004050200052280700f3
:10628400e1692a00405020004f280700e16a2b00f2
:10629400405020004c280700e16b2c0040502000a7
:1062a40049280700e16c2d004050200046280700d3
:1062b400e16d2e004050200043280700e16e2f00be
:1062c4004050200040280700e10f200040502000eb
:1062d4003d2807008000eb00405020003a280700ca
:1062e4008000eb0040502000372807008000eb00be
:1062f40040502000342807008000eb00405020006c
:106304003128070001302000405020002e280700cb
:10631400b1302100405020002b280700b131220069
:106324004050200028280700b132230040502000ac
:1063340025280700b13324004050200022280700fc
:10634400b1342500405020001f280700b135260035
:10635400405020001c280700b13627004050200080
:1063640019280700b13728004050200016280700dc
:10637400b13829004050200013280700b1392a0001
:106384004050200010280700b13a2b004050200054
:106394000d280700b13b2c00405020000a280700bc
:1063a400b13c2d004050200007280700b13d2e00cd
:1063b4004050200004280700b13e2f004050200028
:1063c40001280700b10f200040502000fe270700dd
:1063d4008000eb0040502000fb2707008000eb000a
:1063e40040502000f82707008000eb0040502000b8
:1063f400f52707008000eb0040502000f22707003b
:106404008000eb0040502000ef27070081002100ae
:1064140040502000ec27070081e12100405020007b
:10642400e927070061e2220040502000e627070028
:1064340061e3230040502000e327070061e42400c7
:1064440040502000e027070061e52500405020006f
:10645400dd27070061e6260040502000da27070008
:1064640061e7270040502000d727070061e8280093
:1064740040502000d427070061e929004050200043
:10648400d127070061ea2a0040502000ce270700e8
:1064940061eb2b0040502000cb27070061ec2c005f
:1064a40040502000c827070061ed2d004050200017
:1064b400c527070061de2e0040502000c2270700d8
:1064c400510f200040502000bf2707008000eb0040
:1064d40040502000bc2707008000eb004050200003
:1064e400b92707008000eb0040502000b6270700c2
:1064f4008000eb0040502000b327070091032800e0
:1065040040502000b0270700b10220004050200076
:10651400ad270700010e200040502000aa270700e5
:106524008000eb0040502000a727070021d1210064
:1065340040502000a4270700413321004050200090
:10654400a1270700a1422000405020009e270700f9
:10655400c1202100405020009b27070061912100a9
:10656400405020009827070061612100405020001e
:1065740095270700e11021004050200092270700d2
:106584008000eb00405020008f270700018021008d
:10659400405020008c27070041f223004050200087
:1065a4008927070061c12200405020008627070088
:1065b40041d02000405020008327070001612100c2
:1065c40040502000802707008161210040502000b6
:1065d4007d27070061012100405020007a27070031
:1065e40011712000405020007727070061612000ce
:1065f4004050200074270700f18020004050200004
:106604007127070061712000405020006e270700a9
:1066140001012000405020006b270700910328004f
:106624004050200068270700a100200040502000af
:106634006527070091fc20004050200062270700d6
:1066440001e02100405020005f270700e101200005
:10665400405020005c2707008000eb0040502000e1
:106664005927070011e02300405020005627070057
:1066740051012000405020005327070011f52f003e
:1066840040502000502707005101200040502000b6
:106694004d27070031052000405020004a270700fd
:1066a400510120004050200047270700c17b2000f3
:1066b40040502000442707000088230011002000d8
:1066c400cb35070051012000405020003e27070031
:1066d400c19c2000405020003b27070000502300ad
:1066e400c1002000c23507005101200040502000a5
:1066f40035270700a13b2000405020003227070027
:1067040051002000405020002f27070011012000d5
:10671400405020002c27070000402d0001032000da
:10672400b335070051002000405020002627070001
:1067340091022000405020002327070000c02700ba
:1067440021092000aa3507008000eb000000250085
:106754001d2707008000eb00c00025001a27070052
:10676400f12c2000e0002500172707008000eb0033
:1067740000082500142707008000eb00c00825004e
:1067840011270700f12c2000e00825000e27070040
:1067940001082000000827000b27070001872000bc
:1067a40080002500082707000187200080082500b5
:1067b4000527070080c0eb0020502800f4260700be
:1067c40080c0eb0030502800f126070080c0eb00a9
:1067d40040502800ee26070080c0eb0050502800ef
:1067e400eb26070080c0eb0060502800e826070075
:1067f40080c0eb00b0502800e5260700f1f320002c
:1068040040012000f0260700f1d3200060012000a1
:10681400ed26070051c3200040002000ea260700af
:106824008000eb0060002000e726070062002000e3
:106834000300200000112000f6260700620020005b
:106844000300200000312000f22607000080fa0037
:10685400000006000000fa0041c1200040002000b2
:10686400d92607008100200060002000d6260700fa
:106874000120210020002000d32607008000eb0027
:1068840020002000d02607008000eb0060002000dc
:10689400cd2607009100200000002700ca2607002b
:1068a400120020000300200080102000d9260700d9
:1068b4001200200003002000c0102000d52607008d
:1068c4001200200003002000002a2000d126070027
:1068d4003242210003002000c02a2000cd260700f8
:1068e40000e82300010020004135070032002000a9
:1068f40003002000002a2000c626070042012000d1
:106904000300200080112000c2260700d22b2100a2
:106914000300200000122000be2607006011b8000a
:1069240040122000bb2607001210200003002000a4
:1069340080122000b7260700020020001300200068
:1069440000132000b32607000200250003002000e6
:1069540040132000af26070002002000130020008f
:1069640080132000ab260700020020001300200043
:10697400c0132000a72607000200200013002000f7
:1069840000142000a32607000200200013002000aa
:10699400401420009f26070002002100030020006d
:1069a400801420009b260700020020001300200012
:1069b400c0142000972607001214200003002000b2
:1069c4000015200093260700120020000300200079
:1069d400401520008f260700820c200003002000b1
:1069e400801520008b260700a2022000030020004f
:1069f400801620008726070062292000030020005b
:106a0400001720008326070002082000030020004e
:106a1400c01720007f260700f2002000030020009a
:106a2400c01820007b260700520520000300200028
:106a340000192000772607006011b800401a2000d2
:106a4400742607005201200003002000001c2000cf
:106a5400702607006011b800402120006d26070051
:106a64000208200003002000c0212000692607003e
:106a74006011b80040222000662607002200200092
:106a84000300200040252000622607002200200089
:106a940023012000802520005e260700220020001c
:106aa40053002000c02520005a2607003200200091
:106ab40033002000002620005626070082a324006d
:106ac40003002000402620005226070082002000f8
:106ad40003002000802620004e26070042002000ec
:106ae40053002000c02620004a260700020220008e
:106af400030020000027200046260700f2012000a2
:106b04000300200040272000422607001200200036
:106b140023002000802720003e26070022002000ba
:106b240003002000c02720003a260700120020009e
:106b340003002000c0112000362607008000eb006f
:106b440000502000202607008000eb0000002500f4
:106b54001d26070001002800c00025001a26070092
:106b64008000eb0000082500172607000102200022
:106b7400800027001426070031002000a000270011
:106b84001126070001382000c00027000e26070048
:106b9400c1502000e00027000b260700012d200033
:106ba40000012700082607000150200020012700cb
:106bb4000526070051052000400127000226070092
:106bc4006100200060012700ff25070071002000fc
:106bd40000002700fc25070051c3200040002000ce
:106be400f9250700620020000300200000112000a6
:106bf4000826070062002000030020000031200066
:106c04000426070041c1200040002000ee250700b3
:106c14008000eb0000002700eb2507000080fa004d
:106c2400000006000000fa00ec2f070041c120001c
:106c340040002000e4250700f1d32000600120007b
:106c4400e12507000080fa00000006000200fa00b7
:106c5400000f780001ccb30000542800cc250700b5
:106c640021c1b30010542800c925070001ccb3008a
:106c7400c0a02800c625070021c1b300d0a0280069
:106c8400c325070031c3b30030592800c0250700cd
:106c940000a0260081012000553407005040280040
:106ca400252507009e007800804878001e0fe80024
:106cb40060402800202507009e0078008048780066
:106cc4001e0fe800e05828001b2507009e007800ee
:106cd400804878001e0fe800f058280016250700a9
:106ce4009e007800804878001e0fe80000582800b5
:106cf400112507009e007800804878001e0fe800e8
:106d0400105828000c2507009e0078008048780061
:106d14001e0fe80020582800072507009e00780071
:106d2400804878001e0fe80030582800022507002c
:106d34009e007800804878001e0fe8000059280063
:106d4400fd2407009e007800804878001e0fe800ac
:106d540010592800f82407009e0078008048780025
:106d64001e0fe80040582800f32407009e00780016
:106d7400804878001e0fe80050582800ee240700d1
:106d84009e007800804878001e0fe80060582800b4
:106d9400e92407009e007800804878001e0fe80070
:106da40070582800e42407009e007800804878008a
:106db4001e0fe800c0582800df2407009e0078005a
:106dc400804878001e0fe800d0582800da24070015
:106dd4009e007800804878001e0fe800605228006a
:106de400d52407009e007800804878000080fa00cf
:106df400000006000000fa006201200003002000e9
:106e040000112000832507006201200003002000f8
:106e1400003120007f250700702f07009103280010
:106e24004050200068250700410020004050200009
:106e34006525070091fb2f004050200062250700c4
:106e440031482900405020005f25070091032800a5
:106e5400405020005c250700110120004050200014
:106e64005925070011cb2700405020005625070064
:106e740001402200405020005325070061102000eb
:106e840040502000502507000101210040502000ff
:106e94004d25070061e22200405020004a250700ea
:106ea400d1d1210040502000472507007125210041
:106eb400405020004425070011602e00405020005f
:106ec40041250700210e2000405020003e250700e8
:106ed40091032800405020003b250700710020004a
:106ee4004050200038250700210b2000405020008e
:106ef40035250700814c2000405020003225070032
:106f040041002000405020002f250700610620008a
:106f1400405020002c250700510020004050200044
:106f240029250700010220004050200026250700e3
:106f34005101200040502000232507006103200058
:106f4400405020002025070051012000405020001f
:106f54001d250700a1032700405020001a25070023
:106f6400910328004050200017250700f10120005c
:106f74004050200014250700410b20004050200001
:106f84001125070041202300405020000e25070052
:106f940001012000405020000b250700210321009f
:106fa4004050200008250700012023004050200005
:106fb400052507000181200040502000022507001c
:106fc4007112200040502000ff24070031352000ba
:106fd40040502000fc240700711320004050200082
:106fe400f92407003115200040502000f624070042
:106ff4000103230040502000f32407001110200057
:1070040040502000f024070031142000405020009c
:10701400ed2407003114200040502000ea2407002a
:107024001116260040502000e7240700110020001c
:1070340040502000e4240700910328004050200021
:10704400e12407005100200040502000de24070006
:10705400f16b200040502000db24070021002100b8
:1070640040502000d8240700410020004050200058
:10707400d52407009103280040502000d2240700a3
:107084005100200040502000cf240700710c200044
:1070940040502000cc240700010120004050200073
:1070a400c92407000101200040502000c624070025
:1070b4009103280040502000c32407003100200021
:1070c40040502000c0240700618c20004050200064
:1070d400bd2407008100200040502000ba2407008e
:1070e4009103280040502000b724070031002000fd
:1070f40040502000b424070001cc20004050200060
:10710400b12407005101200040502000ae240700a4
:107114009103280040502000ab24070011022000f6
:1071240040502000a8240700510d200040502000aa
:10713400a52407008000eb0040502000a224070093
:1071440001a02000405020009f24070001102000cf
:10715400405020009c2407003103200040502000b0
:107164009924070001302300405020009624070092
:1071740001002100405020009324070021432500f2
:107184004050200090240700610721004050200057
:107194008d24070021832800405020008a24070002
:1071a4008188280040502000872407008188280017
:1071b400405020008424070081882800405020008b
:1071c4008124070091992900405020007e24070063
:1071d40091492500405020007b2407006187280046
:1071e40040502000782407008108200040502000ef
:1071f40075240700910328004050200072240700e2
:1072040001082000405020006f240700111c2000ba
:10721400405020006c2407000160200040502000f2
:1072240069240700e1602100405020006624070023
:10723400e16122004050200063240700e162230042
:107244004050200060240700e163240040502000e7
:107254005d240700e1642500405020005a24070003
:10726400e16526004050200057240700e16627000e
:107274004050200054240700e167280040502000bb
:1072840051240700e1682900405020004e240700e3
:10729400e1692a00405020004b240700e16a2b00da
:1072a4004050200048240700e16b2c00405020008f
:1072b40045240700e16c2d004050200042240700c3
:1072c400e16d2e00405020003f240700e16e2f00a6
:1072d400405020003c240700e10f200040502000d3
:1072e400392407008000eb004050200036240700ba
:1072f4008000eb0040502000332407008000eb00a6
:1073040040502000302407008000eb004050200053
:107314002d24070001302000405020002a240700bb
:10732400b13021004050200027240700b131220051
:107334004050200024240700b13223004050200094
:1073440021240700b1332400405020001e240700ec
:10735400b1342500405020001b240700b13526001d
:107364004050200018240700b13627004050200068
:1073740015240700b13728004050200012240700cc
:10738400b1382900405020000f240700b1392a00e9
:10739400405020000c240700b13a2b00405020003c
:1073a40009240700b13b2c004050200006240700ac
:1073b400b13c2d004050200003240700b13d2e00b5
:1073c4004050200000240700b13e2f004050200010
:1073d400fd230700b10f200040502000fa230700ce
:1073e4008000eb0040502000f72307008000eb00f2
:1073f40040502000f42307008000eb0040502000a0
:10740400f12307008000eb0040502000ee2307002a
:107414008000eb0040502000eb2307008100210096
:1074240040502000e823070081e121004050200063
:10743400e523070061e2220040502000e223070018
:1074440061e3230040502000df23070061e42400af
:1074540040502000dc23070061e525004050200057
:10746400d923070061e6260040502000d6230700f8
:1074740061e7270040502000d323070061e828007b
:1074840040502000d023070061e92900405020002b
:10749400cd23070061ea2a0040502000ca230700d8
:1074a40061eb2b0040502000c723070061ec2c0047
:1074b40040502000c423070061ed2d0040502000ff
:1074c400c123070061de2e0040502000be230700c8
:1074d400510f200040502000bb2307008000eb0028
:1074e40040502000b82307008000eb0040502000eb
:1074f400b52307008000eb0040502000b2230700b2
:107504008000eb0040502000af23070091032800c7
:1075140040502000ac230700b1022000405020005e
:10752400a9230700010e200040502000a6230700d5
:107534008000eb0040502000a323070021d121004c
:1075440040502000a0230700413321004050200078
:107554009d230700a1422000405020009a230700e9
:10756400c120210040502000972307006191210091
:107574004050200094230700616121004050200006
:1075840091230700e1102100405020008e230700c2
:107594008000eb00405020008b2307000180210075
:1075a400405020008823070041f22300405020006f
:1075b4008523070061c12200405020008223070078
:1075c40041d02000405020007f23070001612100aa
:1075d400405020007c23070081612100405020009e
:1075e4007923070061012100405020007623070021
:1075f40011712000405020007323070061612000b6
:107604004050200070230700f180200040502000eb
:107614006d23070061712000405020006a23070099
:107624000101200040502000672307009103280037
:107634004050200064230700a10020004050200097
:107644006123070091fc2000405020005e230700c6
:1076540001e02100405020005b230700e1012000ed
:1076640040502000582307008000eb0040502000c9
:107674005523070011e02300405020005223070047
:1076840051012000405020004f23070011f52f0026
:10769400405020004c23070051012000405020009e
:1076a40049230700310520004050200046230700ed
:1076b400510120004050200043230700c17b2000db
:1076c40040502000402307000088230011002000c0
:1076d400c731070051012000405020003a23070021
:1076e400c19c200040502000372307000050230095
:1076f400c1002000be31070051012000405020008d
:1077040031230700a13b2000405020002e23070016
:1077140051002000405020002b23070011012000bd
:10772400405020002823070000402d0001032000c2
:10773400af310700510020004050200022230700f1
:1077440091022000405020001f23070000c02700a2
:1077540021092000a63107000080fa00000006007d
:107764000000fa004100200040002000162307001a
:1077740001f0230020002000132307008000eb0009
:1077840020002000102307008000eb006000200090
:107794000d230700f1f32000600120000a230700f5
:1077a40080c0eb0020502800f922070080c0eb00c5
:1077b400b0502800f6220700f1f320004001200019
:1077c40001230700e1cfb30020512800f022070075
:1077d40080c0eb0040512800ed22070080c0eb0080
:1077e40050512800ea22070080c0eb0060512800b5
:1077f400e722070031c0b30000412800e42207005b
:10780400f1c3b30030412800e122070061c0b30096
:1078140000422800de22070011c3b300004f2800f5
:10782400db22070011c0b300404f2800d822070014
:10783400012c210000542800e32207008040eb00c3
:1078440000632800d222070031752000106328004d
:10785400dd22070021c0b30000672800cc22070006
:10786400012c2100c0a02800d722070011c0b300ba
:10787400005e2800c622070001102000305e2800a8
:10788400d12207008040eb0000c02800c02207007e
:1078940080c0eb0010c02800bd22070080c0eb00b0
:1078a40020c02800ba22070080c0eb0030c02800a6
:1078b400b722070080c0eb0040c02800b4220700b4
:1078c40080c0eb0050c02800b122070080c0eb004c
:1078d40060c02800ae2207008040eb0070c0280082
:1078e400ab22070021c5b30080c02800a8220700ee
:1078f40021c6b30090c02800a522070071c0b300c0
:10790400a0c02800a22207008040eb00b0c02800dd
:107914009f22070071c0b300c0c028009c2207004a
:107924008040eb00d0c02800992207008040eb0083
:10793400e0c02800962207008040eb00f0c0280039
:1079440093220700c1c1b30000c1280090220700a0
:10795400d1c1b30010c128008d22070011c0b300ab
:1079640020c128008a22070031c0b30030c128009a
:107974008722070001c8b30040c128008422070001
:1079840061c0b30050c1280081220700a1c0b30028
:1079940060c128007e22070081c7b30070c128009f
:1079a4007b220700a1c0b30080c128007822070011
:1079b400d1c0b30090c128007522070091ccb30058
:1079c400a0c128007222070001cab300b0c1280078
:1079d4006f22070071c5b300c0c128006c220700e4
:1079e40071c4b300d0c128006922070081c9b30063
:1079f400e0c128006622070071c2b300f0c128006c
:107a04006322070021c1b30000c2280060220700de
:107a140081c4b30010c228005d220700c1c4b300b2
:107a240020c228005a2207008040eb0030c2280000
:107a3400572207008040eb0040c228005422070070
:107a44008040eb0050c228005122070011c0b3004f
:107a540060c228004e22070011c0b30070c2280083
:107a64004b22070011c0b30080c22800482207003f
:107a740011c0b30090c228004522070011c0b30012
:107a8400a0c228004222070011c0b300b0c22800df
:107a94003f22070011c0b300c0c228003c220700e7
:107aa40011c0b300d0c228003922070011c0b300ae
:107ab400e0c228003622070011c0b300f0c228003b
:107ac4003322070011c0b30000c32800302207008e
:107ad40011c0b30010c328002d22070011c0b30049
:107ae40020c328002a22070011c0b30030c3280095
:107af4002722070011c0b30040c328002422070036
:107b040011c0b30050c3280021220700a1c4b30050
:107b140060c328001e220700a1c1b30070c328005f
:107b24001b22070001cdb30080c3280018220700e0
:107b340001cbb30090c328001522070001c2b30093
:107b4400a0c32800122207008040eb00b0c3280025
:107b54000f220700c1c0b300c0c328000c220700d5
:107b640001c5b300d0c3280009220700b1c5b30082
:107b7400e0c328000622070001c2b300f0c32800b6
:107b84000322070031c6b30000c428000022070006
:107b94008040eb0010c42800fd210700d1c3b300ce
:107ba40020c42800fa210700d1c6b30030c428003d
:107bb400f72107008040eb0040c42800f4210700af
:107bc4008040eb0050c42800f12107008040eb0006
:107bd40060c42800ee21070081c1b30070c42800ee
:107be400eb210700a1c4b30080c42800e8210700ea
:107bf400a1c1b30090c42800e521070001cdb30062
:107c0400a0c42800e221070001cbb300b0c42800bf
:107c1400df21070001c2b300c0c42800dc21070033
:107c24008040eb00d0c42800d9210700c1c0b300b4
:107c3400e0c42800d621070001c5b300f0c4280021
:107c4400d3210700b1c5b30000c52800d021070027
:107c540001c2b30010c52800cd21070031c6b3000e
:107c640020c52800ca2107008040eb0030c5280049
:107c7400c7210700d1c3b30040c52800c4210700b1
:107c8400d1c6b30050c52800c12107008040eb00d5
:107c940060c52800be2107008040eb0070c52800a5
:107ca400bb2107008040eb0080c52800b8210700f5
:107cb40081c1b30090c52800b52107008040eb00c6
:107cc400a0c52800b22107008040eb00b0c5280001
:107cd400af2107008040eb00c0c52800ac2107009d
:107ce400c1cfb300d0c52800a92107008040eb0014
:107cf400e0c52800a621070041c5b300f0c528004f
:107d0400a3210700f1c6b30000c62800a021070084
:107d140031c7b30010c628009d21070081c6b300f7
:107d240020c628009a21070091c6b30030c6280057
:107d34009721070021c6b30040c6280094210700fc
:107d440011c6b30050c6280091210700d1c2b30068
:107d540060c628008e21070051c5b30070c62800f4
:107d64008b21070081c4b30080c628008821070046
:107d740021c3b30090c628008521070041c4b30085
:107d8400a0c6280082210700a1c0b300b0c6280005
:107d94007f2107008040eb00c0c628007c2107003b
:107da4008040eb00d0c62800792107008040eb001a
:107db400e0c6280076210700d1cfb300f0c6280022
:107dc400732107008040eb0000c7280070210700e2
:107dd40061c3b30010c728006d21070021c4b3009c
:107de40020c728006a21070051c4b30030c7280007
:107df40067210700b1c4b30040c72800642107000d
:107e040061c0b30050c72800612107008040eb0027
:107e140060c728005e210700a1c0b30070c7280016
:107e24005b21070001c2b30080c728005821070066
:107e340001c2b30090c728005521070001c2b30056
:107e4400a0c728005221070001c2b300b0c7280010
:107e54004f21070001c2b300c0c728004c2107000e
:107e640001c2b300d0c728004921070011c0b300e4
:107e7400e0c728004621070061c8b300f0c7280006
:107e84004321070021c0b30000c828004021070097
:107e940031c0b30010c828003d210700a1c1b300c0
:107ea40020c828003a21070011ccb30030c82800ac
:107eb4003721070071c4b30040c8280034210700eb
:107ec400d1ceb30050c8280031210700e1c6b30069
:107ed40060c828002e210700e1c6b30070c828003e
:107ee4002b210700e1c6b30080c828002821070021
:107ef400e1c6b30090c8280025210700e1c6b300fd
:107f0400a0c8280022210700e1c6b300b0c8280099
:107f14001f21070031c2b300c0c828001c2107007c
:107f240081c0b300d0c828001921070071c0b30074
:107f3400e0c828001621070011c0b300f0c82800cb
:107f44001321070031c8b30000c92800102107001d
:107f540011c0b30010c928000d2107008040eb00b8
:107f640020c928000a2107008040eb0030c92800fe
:107f74000721070051c6b30040c9280004210700a7
:107f840031c0b30050c9280001210700c1c0b300ab
:107f940060c92800fe2007008040eb0070c928005b
:107fa400fb20070001c1b30080c92800f8200700a6
:107fb4008040eb0090c92800f5200700a1c4b3005d
:107fc400a0c92800f2200700a1c1b300b0c928004d
:107fd400ef20070001cdb300c0c92800ec20070042
:107fe40001cbb300d0c92800e920070001c2b300c7
:107ff400e0c92800e62007008040eb00f0c9280013
:10800400e3200700c1c0b30000ca2800e020070035
:1080140001c5b30010ca2800dd200700b1c5b300b4
:1080240020ca2800da20070001c2b30030ca2800a1
:10803400d720070031c6b30040ca2800d420070067
:108044008040eb0050ca2800d1200700d1c3b30000
:1080540060ca2800ce200700d1c6b30070ca280029
:10806400cb2007008040eb0080ca2800c82007000e
:108074008040eb0090ca2800c52007008040eb0038
:10808400a0ca2800c220070081c1b300b0ca2800da
:10809400bf200700a1c4b300c0ca2800bc20070049
:1080a400a1c1b300d0ca2800b920070001cdb30094
:1080b400e0ca2800b620070001cbb300f0ca2800ac
:1080c400b320070001c2b30000cb2800b020070092
:1080d4008040eb0010cb2800ad200700c1c0b300e6
:1080e40020cb2800aa20070001c5b30030cb28000c
:1080f400a7200700b1c5b30040cb2800a420070087
:1081040001c2b30050cb2800a120070031c6b30040
:1081140060cb28009e2007008040eb0070cb280035
:108124009b200700d1c3b30080cb28009820070010
:10813400d1c6b30090cb2800952007008040eb0007
:10814400a0cb2800922007008040eb00b0cb280091
:108154008f2007008040eb00c0cb28008c20070054
:1081640081c1b300d0cb280089200700a1c4b3008b
:10817400e0cb280086200700a1c1b300f0cb280083
:108184008320070001cdb30000cc28008020070025
:1081940001cbb30010cc28007d20070001c2b3003e
:1081a40020cc28007a2007008040eb0030cc280047
:1081b40077200700c1c0b30040cc2800742007001a
:1081c40001c5b30050cc280071200700b1c5b3002d
:1081d40060cc28006e20070001c2b30070cc2800d8
:1081e4006b20070031c6b30080cc2800682007004c
:1081f4008040eb0090cc280065200700d1c3b30079
:10820400a0cc280062200700d1c6b300b0cc28005f
:108214005f2007008040eb00c0cc28005c200700f2
:108224008040eb00d0cc2800592007008040eb00b0
:10823400e0cc28005620070081c1b300f0cc280010
:1082440053200700a1c4b30000cd2800502007002c
:10825400a1c1b30010cd28004d20070001cdb3000b
:1082640020cd28004a20070001cbb30030cd2800e0
:108274004720070001c2b30040cd28004420070076
:108284008040eb0050cd280041200700c1c0b3005e
:1082940060cd28003e20070001c5b30070cd280042
:1082a4003b200700b1c5b30080cd2800382007006b
:1082b40001c2b30090cd28003520070031c6b300b9
:1082c400a0cd2800322007008040eb00b0cd28006c
:1082d4002f200700d1c3b300c0cd28002c200700f5
:1082e400d1c6b300d0cd2800292007008040eb0080
:1082f400e0cd2800262007008040eb00f0cd2800c8
:10830400232007008040eb0000ce28002020070037
:1083140081c1b30010ce28001d2007008040eb006f
:1083240020ce28001a2007008040eb0030ce280021
:10833400172007008040eb0040ce280014200700df
:108344008040eb0050ce2800112007008040eb0055
:1083540060ce28000e2007008040eb0070ce28007d
:108364000b2007008040eb0080ce28000820070087
:108374008040eb0090ce2800052007008040eb00f1
:10838400a0ce2800022007008040eb00b0ce2800d9
:10839400ff1f07008040eb00c0ce2800fc1f070031
:1083a4008040eb00d0ce2800f91f07008040eb008e
:1083b400e0ce2800f61f07008040eb00f0ce280036
:1083c400f31f07008040eb0000cf2800f01f0700d8
:1083d4008040eb0010cf2800ed1f07008040eb0029
:1083e40020cf2800ea1f07008040eb0030cf280090
:1083f400e71f07008040eb0040cf2800e41f070080
:108404008040eb0050cf2800e11f07008040eb00c4
:1084140060cf2800de1f07008040eb0070cf2800eb
:10842400db1f07008040eb0080cf2800d81f070027
:108434008040eb0090cf2800d51f07008040eb0060
:10844400a0cf2800d21f07008040eb00b0cf280047
:10845400cf1f07008040eb00c0cf2800cc1f0700cf
:108464008040eb00d0cf2800c91f07008040eb00fc
:10847400e0cf2800c61f0700d1c1b300f0cf280009
:10848400c31f070021c0b30030542800c01f0700d9
:1084940011c1b30040542800bd1f07008040eb0009
:1084a40000602800ba1f070031cfb3002060280005
:1084b400b71f070021c0b30030602800b41f0700b5
:1084c400c1c0b30040602800b11f070051c0b30011
:1084d40060602800ae1f07008040eb007060280039
:1084e400ab1f070021c0b30020652800a81f0700a8
:1084f400a29b2400c320200010672800c51f07008a
:1085040092082b00131e200050672800c11f07008b
:108514008040eb00006828009d1f070000522800df
:10852400051f0700f1d3200060012000a61f0700eb
:108534001100200020002000a31f07008000eb0092
:1085440020002000a01f0700000a200001002000d6
:10855400272e0700000a200001002000242e070017
:1085640040012000ff1e0700a0012000fd1e07009f
:1085740020502800f01e0700b0502800ee1e07000f
:1085840000522800ec1e0700f1f3200060012000d7
:108594008d1f070080c0eb00205028007c1f0700bf
:1085a40080c0eb00b0502800791f0700f1f32000d1
:1085b40040012000841f07000080fa00000006002c
:1085c4000000fa0000802400811e2000082e07000d
:1085d40041c12000400020007b1f07000120210032
:1085e40020002000781f07008000eb0020002000fe
:1085f400751f070021c4b30020a02800641f0700d2
:10860400120020000300200080102000811f0700ba
:108614001200200003002000c01020007d1f07006e
:108624001200200003002000002a2000791f070008
:108634005242210003002000c02a2000751f0700b9
:1086440000e8230001002000e92d0700320020008b
:1086540003002000002a20006e1f070042012000b2
:1086640003002000801120006a1f0700d22b210084
:108674000300200000122000661f07006011b800ec
:1086840040122000631f0700121020000300200086
:10869400801220005f1f070002002000130020004a
:1086a400001320005b1f07000200250003002000c8
:1086b40040132000571f0700020020001300200071
:1086c40080132000531f0700020020001300200025
:1086d400c01320004f1f07000200200013002000d9
:1086e400001420004b1f070002002000130020008c
:1086f40040142000471f070002002100030020004f
:1087040080142000431f07000200200013002000f3
:10871400c01420003f1f0700121420000300200093
:10872400001520003b1f070012002000030020005a
:1087340040152000371f0700820c20000300200092
:1087440080152000331f0700a20220000300200030
:10875400801620002f1f0700022d20000300200098
:10876400001720002b1f0700120820000300200020
:10877400c0172000271f0700f2002000030020007c
:10878400c0182000231f070052052000030020000a
:10879400001920001f1f07006011b800401a2000b4
:1087a4001c1f07005201200003002000001c2000b1
:1087b400181f07006011b80040212000151f070092
:1087c4000208200003002000c0212000111f070020
:1087d4006011b800402220000e1f07002200200074
:1087e40003002000402520000a1f0700220020006b
:1087f4002301200080252000061f070022002000fe
:1088040053002000c0252000021f07003200200072
:108814003300200000262000fe1e070082a324004f
:108824000300200040262000fa1e070082002000da
:108834000300200080262000f61e070042002000ce
:1088440053002000c0262000f21e07000202200070
:108854000300200000272000ee1e0700f201200084
:108864000300200040272000ea1e07001200200019
:108874002300200080272000e61e0700220020009d
:1088840003002000c0272000e21e07001200200081
:1088940003002000c0112000de1e07008000eb0052
:1088a40000502000c81e07006201200003002000c1
:1088b40000112000d71e07006201200003002000e1
:1088c40000312000d31e07008000eb000050200080
:1088d400bd1e0700620120000300200000112000db
:1088e400cc1e07006201200003002000003120009c
:1088f400c81e070000102700210020003c2d07009f
:108904009103280040502000af1e070041002000c2
:1089140040502000ac1e070091fb2f004050200067
:10892400a91e07003148290040502000a61e070058
:108934009103280040502000a31e070011012000cd
:1089440040502000a01e070011cb270040502000fb
:108954009d1e070001402200405020009a1e07007f
:108964006110200040502000971e070001012100e3
:1089740040502000941e070061e222004050200075
:10898400911e0700d1d12100405020008e1e070007
:1089940071252100405020008b1e070011602e001d
:1089a40040502000881e0700210e20004050200067
:1089b400851e07009103280040502000821e0700f6
:1089c40071002000405020007f1e0700210b200072
:1089d400405020007c1e0700814c200040502000a5
:1089e400791e07004100200040502000761e070039
:1089f4006106200040502000731e07005100200033
:108a040040502000701e070001022000405020004a
:108a14006d1e070051012000405020006a1e07000f
:108a24006103200040502000671e07005101200010
:108a340040502000641e0700a1032700405020007e
:108a4400611e070091032800405020005e1e0700ad
:108a5400f1012000405020005b1e0700410b200064
:108a640040502000581e07004120230040502000a1
:108a7400551e07000101200040502000521e07002f
:108a840021032100405020004f1e07000120230035
:108a9400405020004c1e070001812000405020005f
:108aa400491e07007112200040502000461e070096
:108ab4003135200040502000431e07007113200070
:108ac40040502000401e0700311520004050200077
:108ad4003d1e070001032300405020003a1e0700fa
:108ae4001110200040502000371e070031142000d0
:108af40040502000341e0700311420004050200054
:108b0400311e070011162600405020002e1e0700bb
:108b140011002000405020002b1e07009103280064
:108b240040502000281e0700510020004050200023
:108b3400251e0700f16b200040502000221e070074
:108b440021002100405020001f1e0700410020008a
:108b5400405020001c1e07009103280040502000b4
:108b6400191e07005100200040502000161e070067
:108b7400710c200040502000131e0700010120004a
:108b840040502000101e070001012000405020002a
:108b94000d1e070091032800405020000a1e070004
:108ba4003100200040502000071e0700618c200087
:108bb40040502000041e0700810020004050200087
:108bc400011e07009103280040502000fe1d0700ed
:108bd4003100200040502000fb1d070001cc200084
:108be40040502000f81d0700510120004050200093
:108bf400f51d07009103280040502000f21d0700d6
:108c04001102200040502000ef1d0700510d2000ec
:108c140040502000ec1d07008000eb004050200075
:108c2400e91d070001a0200040502000e61d0700b8
:108c34000110200040502000e31d070031032000f4
:108c440040502000e01d0700013023004050200068
:108c5400dd1d07000100210040502000da1d07003f
:108c64002143250040502000d71d07006107210043
:108c740040502000d41d07002183280040502000cc
:108c8400d11d07008188280040502000ce1d070018
:108c94008188280040502000cb1d070081882800cf
:108ca40040502000c81d0700919929004050200021
:108cb400c51d07009149250040502000c21d070032
:108cc4006187280040502000bf1d07008108200054
:108cd40040502000bc1d0700910328004050200094
:108ce400b91d07000108200040502000b61d0700f0
:108cf400111c200040502000b31d0700016020001b
:108d040040502000b01d0700e160210040502000c9
:108d1400ad1d0700e161220040502000aa1d07009c
:108d2400e162230040502000a71d0700e1632400f6
:108d340040502000a41d0700e1642500405020009d
:108d4400a11d0700e1652600405020009e1d07007c
:108d5400e1662700405020009b1d0700e1672800c2
:108d640040502000981d0700e16829004050200071
:108d7400951d0700e1692a0040502000921d07005c
:108d8400e16a2b00405020008f1d0700e16b2c008e
:108d9400405020008c1d0700e16c2d004050200045
:108da400891d0700e16d2e0040502000861d07003c
:108db400e16e2f0040502000831d0700e10f2000ca
:108dc40040502000801d07008000eb004050200030
:108dd4007d1d07008000eb00405020007a1d070035
:108de4008000eb0040502000771d07008000eb005e
:108df40040502000741d0700013020004050200026
:108e0400711d0700b1302100405020006e1d070085
:108e1400b1312200405020006b1d0700b132230005
:108e240040502000681d0700b1332400405020004a
:108e3400651d0700b134250040502000621d070065
:108e4400b1352600405020005f1d0700b1362700d1
:108e5400405020005c1d0700b1372800405020001e
:108e6400591d0700b138290040502000561d070045
:108e7400b1392a0040502000531d0700b13a2b009d
:108e840040502000501d0700b13b2c0040502000f2
:108e94004d1d0700b13c2d00405020004a1d070025
:108ea400b13d2e0040502000471d0700b13e2f0069
:108eb40040502000441d0700b10f20004050200006
:108ec400411d07008000eb00405020003e1d0700bc
:108ed4008000eb00405020003b1d07008000eb00a9
:108ee40040502000381d07008000eb004050200057
:108ef400351d07008000eb0040502000321d0700a4
:108f040081002100405020002f1d070081e1210035
:108f1400405020002c1d070061e222004050200038
:108f2400291d070061e3230040502000261d07008f
:108f340061e4240040502000231d070061e5250062
:108f440040502000201d070061e62600405020000c
:108f54001d1d070061e72700405020001a1d07006f
:108f640061e8280040502000171d070061e929002e
:108f740040502000141d070061ea2a0040502000e0
:108f8400111d070061eb2b00405020000e1d07004f
:108f940061ec2c00405020000b1d070061ed2d00fa
:108fa40040502000081d070061de2e0040502000c4
:108fb400051d0700510f200040502000021d07002e
:108fc4008000eb0040502000ff1c07008000eb00f5
